{
  "contractName": "CreditScoring",
  "abi": [
    {
      "inputs": [
        {
          "internalType": "address",
          "name": "",
          "type": "address"
        }
      ],
      "name": "creditScores",
      "outputs": [
        {
          "internalType": "uint256",
          "name": "",
          "type": "uint256"
        }
      ],
      "stateMutability": "view",
      "type": "function",
      "constant": true
    },
    {
      "inputs": [
        {
          "internalType": "address",
          "name": "_user",
          "type": "address"
        },
        {
          "internalType": "uint256",
          "name": "_newScore",
          "type": "uint256"
        }
      ],
      "name": "updateCreditScore",
      "outputs": [],
      "stateMutability": "nonpayable",
      "type": "function"
    },
    {
      "inputs": [
        {
          "internalType": "address",
          "name": "_user",
          "type": "address"
        }
      ],
      "name": "getCreditScore",
      "outputs": [
        {
          "internalType": "uint256",
          "name": "",
          "type": "uint256"
        }
      ],
      "stateMutability": "view",
      "type": "function",
      "constant": true
    }
  ],
  "bytecode": "0x608060405234801561001057600080fd5b506102c2806100206000396000f3fe608060405234801561001057600080fd5b50600436106100415760003560e01c806365352f9d1461004657806380bb727314610062578063d3dd2bdf14610092575b600080fd5b610060600480360381019061005b91906101bc565b6100c2565b005b61007c60048036038101906100779190610193565b610109565b6040516100899190610207565b60405180910390f35b6100ac60048036038101906100a79190610193565b610121565b6040516100b99190610207565b60405180910390f35b806000808473ffffffffffffffffffffffffffffffffffffffff1673ffffffffffffffffffffffffffffffffffffffff168152602001908152602001600020819055505050565b60006020528060005260406000206000915090505481565b60008060008373ffffffffffffffffffffffffffffffffffffffff1673ffffffffffffffffffffffffffffffffffffffff168152602001908152602001600020549050919050565b6000813590506101788161025e565b92915050565b60008135905061018d81610275565b92915050565b6000602082840312156101a557600080fd5b60006101b384828501610169565b91505092915050565b600080604083850312156101cf57600080fd5b60006101dd85828601610169565b92505060206101ee8582860161017e565b9150509250929050565b61020181610254565b82525050565b600060208201905061021c60008301846101f8565b92915050565b600061022d82610234565b9050919050565b600073ffffffffffffffffffffffffffffffffffffffff82169050919050565b6000819050919050565b61026781610222565b811461027257600080fd5b50565b61027e81610254565b811461028957600080fd5b5056fea2646970667358221220affd1110be8d4bdc961366f107e7f14cd67bba5e0f3a84e2aa1cb1eb914ec15b64736f6c63430008000033",
  "immutableReferences": {},
  "source": "// SPDX-License-Identifier: MIT\r\npragma solidity ^0.8.0;\r\n\r\ncontract CreditScoring {\r\n    mapping(address => uint) public creditScores;\r\n\r\n    function updateCreditScore(address _user, uint _newScore) public {\r\n        creditScores[_user] = _newScore;\r\n    }\r\n\r\n    function getCreditScore(address _user) public view returns (uint) {\r\n        return creditScores[_user];\r\n    }\r\n}\r\n",
  "sourcePath": "C:\\Users\\jairo\\OneDrive\\Documents\\Q2 2024\\Vanguardia\\P2P-Lending\\microfinance-platform\\contracts\\CreditScoring.sol",
  "compiler": {
    "name": "solc",
    "version": "0.8.0+commit.c7dfd78e.Emscripten.clang"
  },
  "schemaVersion": "3.4.16",
  "updatedAt": "2024-06-08T21:53:13.192Z",
  "networkType": "ethereum",
  "devdoc": {
    "kind": "dev",
    "methods": {},
    "version": 1
  },
  "userdoc": {
    "kind": "user",
    "methods": {},
    "version": 1
  }
}