{
  "contractName": "FundManagement",
  "abi": [
    {
      "inputs": [
        {
          "internalType": "address",
          "name": "",
          "type": "address"
        }
      ],
      "name": "balances",
      "outputs": [
        {
          "internalType": "uint256",
          "name": "",
          "type": "uint256"
        }
      ],
      "stateMutability": "view",
      "type": "function"
    },
    {
      "inputs": [],
      "name": "depositFunds",
      "outputs": [],
      "stateMutability": "payable",
      "type": "function"
    },
    {
      "inputs": [
        {
          "internalType": "uint256",
          "name": "_amount",
          "type": "uint256"
        }
      ],
      "name": "withdrawFunds",
      "outputs": [],
      "stateMutability": "nonpayable",
      "type": "function"
    },
    {
      "inputs": [
        {
          "internalType": "address",
          "name": "_user",
          "type": "address"
        }
      ],
      "name": "getBalance",
      "outputs": [
        {
          "internalType": "uint256",
          "name": "",
          "type": "uint256"
        }
      ],
      "stateMutability": "view",
      "type": "function"
    }
  ],
  "bytecode": "0x608060405234801561001057600080fd5b50610538806100206000396000f3fe60806040526004361061003f5760003560e01c8063155dd5ee1461004457806327e235e31461006d578063e2c41dbc146100aa578063f8b2cb4f146100b4575b600080fd5b34801561005057600080fd5b5061006b6004803603810190610066919061031b565b6100f1565b005b34801561007957600080fd5b50610094600480360381019061008f91906102f2565b610211565b6040516100a191906103b3565b60405180910390f35b6100b2610229565b005b3480156100c057600080fd5b506100db60048036038101906100d691906102f2565b610280565b6040516100e891906103b3565b60405180910390f35b806000803373ffffffffffffffffffffffffffffffffffffffff1673ffffffffffffffffffffffffffffffffffffffff168152602001908152602001600020541015610172576040517f08c379a000000000000000000000000000000000000000000000000000000000815260040161016990610393565b60405180910390fd5b806000803373ffffffffffffffffffffffffffffffffffffffff1673ffffffffffffffffffffffffffffffffffffffff16815260200190815260200160002060008282546101c09190610435565b925050819055503373ffffffffffffffffffffffffffffffffffffffff166108fc829081150290604051600060405180830381858888f1935050505015801561020d573d6000803e3d6000fd5b5050565b60006020528060005260406000206000915090505481565b346000803373ffffffffffffffffffffffffffffffffffffffff1673ffffffffffffffffffffffffffffffffffffffff168152602001908152602001600020600082825461027791906103df565b92505081905550565b60008060008373ffffffffffffffffffffffffffffffffffffffff1673ffffffffffffffffffffffffffffffffffffffff168152602001908152602001600020549050919050565b6000813590506102d7816104d4565b92915050565b6000813590506102ec816104eb565b92915050565b60006020828403121561030457600080fd5b6000610312848285016102c8565b91505092915050565b60006020828403121561032d57600080fd5b600061033b848285016102dd565b91505092915050565b60006103516014836103ce565b91507f496e73756666696369656e742062616c616e63650000000000000000000000006000830152602082019050919050565b61038d8161049b565b82525050565b600060208201905081810360008301526103ac81610344565b9050919050565b60006020820190506103c86000830184610384565b92915050565b600082825260208201905092915050565b60006103ea8261049b565b91506103f58361049b565b9250827fffffffffffffffffffffffffffffffffffffffffffffffffffffffffffffffff0382111561042a576104296104a5565b5b828201905092915050565b60006104408261049b565b915061044b8361049b565b92508282101561045e5761045d6104a5565b5b828203905092915050565b60006104748261047b565b9050919050565b600073ffffffffffffffffffffffffffffffffffffffff82169050919050565b6000819050919050565b7f4e487b7100000000000000000000000000000000000000000000000000000000600052601160045260246000fd5b6104dd81610469565b81146104e857600080fd5b50565b6104f48161049b565b81146104ff57600080fd5b5056fea264697066735822122059e9ad2c2a8116159551d4bdfff9e2d68f86e9918be3c00354d1491c3b2b94fa64736f6c63430008000033",
  "immutableReferences": {},
  "source": "// SPDX-License-Identifier: MIT\r\npragma solidity ^0.8.0;\r\n\r\ncontract FundManagement {\r\n    mapping(address => uint) public balances;\r\n\r\n    function depositFunds() public payable {\r\n        balances[msg.sender] += msg.value;\r\n    }\r\n\r\n    function withdrawFunds(uint _amount) public {\r\n        require(balances[msg.sender] >= _amount, \"Insufficient balance\");\r\n        balances[msg.sender] -= _amount;\r\n        payable(msg.sender).transfer(_amount);\r\n    }\r\n\r\n    function getBalance(address _user) public view returns (uint) {\r\n        return balances[_user];\r\n    }\r\n}\r\n",
  "sourcePath": "C:\\Users\\jairo\\OneDrive\\Documents\\Q2 2024\\Vanguardia\\P2P-Lending\\microfinance-platform\\contracts\\FundManagement.sol",
  "compiler": {
    "name": "solc",
    "version": "0.8.0+commit.c7dfd78e.Emscripten.clang"
  },
  "schemaVersion": "3.4.16",
  "updatedAt": "2024-06-11T00:17:15.559Z",
  "devdoc": {
    "kind": "dev",
    "methods": {},
    "version": 1
  },
  "userdoc": {
    "kind": "user",
    "methods": {},
    "version": 1
  }
}