{
  "contractName": "LoanContract",
  "abi": [
    {
      "inputs": [
        {
          "internalType": "address",
          "name": "_userManagement",
          "type": "address"
        },
        {
          "internalType": "address",
          "name": "_creditScoring",
          "type": "address"
        },
        {
          "internalType": "address",
          "name": "_fundManagement",
          "type": "address"
        }
      ],
      "stateMutability": "nonpayable",
      "type": "constructor"
    },
    {
      "anonymous": false,
      "inputs": [
        {
          "indexed": true,
          "internalType": "address",
          "name": "from",
          "type": "address"
        },
        {
          "indexed": true,
          "internalType": "address",
          "name": "to",
          "type": "address"
        },
        {
          "indexed": false,
          "internalType": "uint256",
          "name": "amount",
          "type": "uint256"
        }
      ],
      "name": "FundsTransferred",
      "type": "event"
    },
    {
      "anonymous": false,
      "inputs": [
        {
          "indexed": true,
          "internalType": "uint256",
          "name": "loanId",
          "type": "uint256"
        }
      ],
      "name": "LoanDeleted",
      "type": "event"
    },
    {
      "anonymous": false,
      "inputs": [
        {
          "indexed": true,
          "internalType": "address",
          "name": "lender",
          "type": "address"
        },
        {
          "indexed": true,
          "internalType": "address",
          "name": "borrower",
          "type": "address"
        },
        {
          "indexed": false,
          "internalType": "uint256",
          "name": "amount",
          "type": "uint256"
        }
      ],
      "name": "LoanFunded",
      "type": "event"
    },
    {
      "anonymous": false,
      "inputs": [
        {
          "indexed": true,
          "internalType": "uint256",
          "name": "loanId",
          "type": "uint256"
        },
        {
          "indexed": true,
          "internalType": "address",
          "name": "lender",
          "type": "address"
        },
        {
          "indexed": false,
          "internalType": "uint256",
          "name": "amount",
          "type": "uint256"
        },
        {
          "indexed": false,
          "internalType": "uint256",
          "name": "interest",
          "type": "uint256"
        },
        {
          "indexed": false,
          "internalType": "uint256",
          "name": "duration",
          "type": "uint256"
        }
      ],
      "name": "LoanOfferCreated",
      "type": "event"
    },
    {
      "anonymous": false,
      "inputs": [
        {
          "indexed": true,
          "internalType": "uint256",
          "name": "loanId",
          "type": "uint256"
        },
        {
          "indexed": true,
          "internalType": "address",
          "name": "borrower",
          "type": "address"
        },
        {
          "indexed": false,
          "internalType": "uint256",
          "name": "amount",
          "type": "uint256"
        },
        {
          "indexed": false,
          "internalType": "uint256",
          "name": "interest",
          "type": "uint256"
        },
        {
          "indexed": false,
          "internalType": "uint256",
          "name": "duration",
          "type": "uint256"
        }
      ],
      "name": "LoanRequested",
      "type": "event"
    },
    {
      "inputs": [],
      "name": "loanCount",
      "outputs": [
        {
          "internalType": "uint256",
          "name": "",
          "type": "uint256"
        }
      ],
      "stateMutability": "view",
      "type": "function",
      "constant": true
    },
    {
      "inputs": [
        {
          "internalType": "uint256",
          "name": "",
          "type": "uint256"
        }
      ],
      "name": "loans",
      "outputs": [
        {
          "internalType": "uint256",
          "name": "id",
          "type": "uint256"
        },
        {
          "internalType": "address",
          "name": "borrower",
          "type": "address"
        },
        {
          "internalType": "address",
          "name": "lender",
          "type": "address"
        },
        {
          "internalType": "uint256",
          "name": "amount",
          "type": "uint256"
        },
        {
          "internalType": "uint256",
          "name": "interest",
          "type": "uint256"
        },
        {
          "internalType": "uint256",
          "name": "duration",
          "type": "uint256"
        },
        {
          "internalType": "bool",
          "name": "isFunded",
          "type": "bool"
        },
        {
          "internalType": "bool",
          "name": "isRepaid",
          "type": "bool"
        }
      ],
      "stateMutability": "view",
      "type": "function",
      "constant": true
    },
    {
      "inputs": [
        {
          "internalType": "uint256",
          "name": "_amount",
          "type": "uint256"
        },
        {
          "internalType": "uint256",
          "name": "_interest",
          "type": "uint256"
        },
        {
          "internalType": "uint256",
          "name": "_duration",
          "type": "uint256"
        }
      ],
      "name": "createLoanOffer",
      "outputs": [],
      "stateMutability": "nonpayable",
      "type": "function"
    },
    {
      "inputs": [
        {
          "internalType": "uint256",
          "name": "_amount",
          "type": "uint256"
        },
        {
          "internalType": "uint256",
          "name": "_interest",
          "type": "uint256"
        },
        {
          "internalType": "uint256",
          "name": "_duration",
          "type": "uint256"
        }
      ],
      "name": "requestLoan",
      "outputs": [],
      "stateMutability": "nonpayable",
      "type": "function"
    },
    {
      "inputs": [
        {
          "internalType": "uint256",
          "name": "_loanId",
          "type": "uint256"
        },
        {
          "internalType": "address",
          "name": "_borrower",
          "type": "address"
        }
      ],
      "name": "fundLoan",
      "outputs": [],
      "stateMutability": "payable",
      "type": "function",
      "payable": true
    },
    {
      "inputs": [
        {
          "internalType": "uint256",
          "name": "_loanId",
          "type": "uint256"
        }
      ],
      "name": "acceptLoanOffer",
      "outputs": [],
      "stateMutability": "payable",
      "type": "function",
      "payable": true
    },
    {
      "inputs": [
        {
          "internalType": "uint256",
          "name": "_loanId",
          "type": "uint256"
        }
      ],
      "name": "repayLoan",
      "outputs": [],
      "stateMutability": "payable",
      "type": "function",
      "payable": true
    },
    {
      "inputs": [
        {
          "internalType": "uint256",
          "name": "_loanId",
          "type": "uint256"
        }
      ],
      "name": "deleteLoan",
      "outputs": [],
      "stateMutability": "nonpayable",
      "type": "function"
    },
    {
      "inputs": [
        {
          "internalType": "uint256",
          "name": "_loanId",
          "type": "uint256"
        }
      ],
      "name": "getLoan",
      "outputs": [
        {
          "components": [
            {
              "internalType": "uint256",
              "name": "id",
              "type": "uint256"
            },
            {
              "internalType": "address",
              "name": "borrower",
              "type": "address"
            },
            {
              "internalType": "address",
              "name": "lender",
              "type": "address"
            },
            {
              "internalType": "uint256",
              "name": "amount",
              "type": "uint256"
            },
            {
              "internalType": "uint256",
              "name": "interest",
              "type": "uint256"
            },
            {
              "internalType": "uint256",
              "name": "duration",
              "type": "uint256"
            },
            {
              "internalType": "bool",
              "name": "isFunded",
              "type": "bool"
            },
            {
              "internalType": "bool",
              "name": "isRepaid",
              "type": "bool"
            }
          ],
          "internalType": "struct LoanContract.Loan",
          "name": "",
          "type": "tuple"
        }
      ],
      "stateMutability": "view",
      "type": "function",
      "constant": true
    },
    {
      "inputs": [],
      "name": "getAllLoans",
      "outputs": [
        {
          "components": [
            {
              "internalType": "uint256",
              "name": "id",
              "type": "uint256"
            },
            {
              "internalType": "address",
              "name": "borrower",
              "type": "address"
            },
            {
              "internalType": "address",
              "name": "lender",
              "type": "address"
            },
            {
              "internalType": "uint256",
              "name": "amount",
              "type": "uint256"
            },
            {
              "internalType": "uint256",
              "name": "interest",
              "type": "uint256"
            },
            {
              "internalType": "uint256",
              "name": "duration",
              "type": "uint256"
            },
            {
              "internalType": "bool",
              "name": "isFunded",
              "type": "bool"
            },
            {
              "internalType": "bool",
              "name": "isRepaid",
              "type": "bool"
            }
          ],
          "internalType": "struct LoanContract.Loan[]",
          "name": "",
          "type": "tuple[]"
        }
      ],
      "stateMutability": "view",
      "type": "function",
      "constant": true
    }
  ],
  "bytecode": "0x6080604052600080553480156200001557600080fd5b5060405162002beb38038062002beb83398181016040528101906200003b91906200011e565b82600260006101000a81548173ffffffffffffffffffffffffffffffffffffffff021916908373ffffffffffffffffffffffffffffffffffffffff16021790555081600360006101000a81548173ffffffffffffffffffffffffffffffffffffffff021916908373ffffffffffffffffffffffffffffffffffffffff16021790555080600460006101000a81548173ffffffffffffffffffffffffffffffffffffffff021916908373ffffffffffffffffffffffffffffffffffffffff160217905550505050620001c2565b6000815190506200011881620001a8565b92915050565b6000806000606084860312156200013457600080fd5b6000620001448682870162000107565b9350506020620001578682870162000107565b92505060406200016a8682870162000107565b9150509250925092565b6000620001818262000188565b9050919050565b600073ffffffffffffffffffffffffffffffffffffffff82169050919050565b620001b38162000174565b8114620001bf57600080fd5b50565b612a1980620001d26000396000f3fe6080604052600436106100915760003560e01c8063a5bfd16a11610059578063a5bfd16a1461015d578063ab7b1c8914610188578063ce63094d146101a4578063e1ec3c68146101cf578063edadbbfe1461021357610091565b806321265d0e146100965780632fb1df85146100b25780633a867c89146100db578063504006ca146101045780636d1611c414610141575b600080fd5b6100b060048036038101906100ab9190611d3d565b61023c565b005b3480156100be57600080fd5b506100d960048036038101906100d49190611d3d565b610452565b005b3480156100e757600080fd5b5061010260048036038101906100fd9190611dcb565b6106ca565b005b34801561011057600080fd5b5061012b60048036038101906101269190611d3d565b6109aa565b60405161013891906125ca565b60405180910390f35b61015b60048036038101906101569190611d8f565b610b3a565b005b34801561016957600080fd5b50610172610fd7565b60405161017f9190612408565b60405180910390f35b6101a2600480360381019061019d9190611d3d565b6111ed565b005b3480156101b057600080fd5b506101b961171e565b6040516101c691906125e6565b60405180910390f35b3480156101db57600080fd5b506101f660048036038101906101f19190611d3d565b611724565b60405161020a989796959493929190612601565b60405180910390f35b34801561021f57600080fd5b5061023a60048036038101906102359190611dcb565b6117c6565b005b600060016000838152602001908152602001600020905081816000015414610299576040517f08c379a00000000000000000000000000000000000000000000000000000000081526004016102909061256a565b60405180910390fd5b8060060160009054906101000a900460ff16156102eb576040517f08c379a00000000000000000000000000000000000000000000000000000000081526004016102e29061242a565b60405180910390fd5b600073ffffffffffffffffffffffffffffffffffffffff168160020160009054906101000a900473ffffffffffffffffffffffffffffffffffffffff1673ffffffffffffffffffffffffffffffffffffffff16141561037f576040517f08c379a00000000000000000000000000000000000000000000000000000000081526004016103769061258a565b60405180910390fd5b338160010160006101000a81548173ffffffffffffffffffffffffffffffffffffffff021916908373ffffffffffffffffffffffffffffffffffffffff16021790555060018160060160006101000a81548160ff0219169083151502179055508060010160009054906101000a900473ffffffffffffffffffffffffffffffffffffffff1673ffffffffffffffffffffffffffffffffffffffff166108fc82600301549081150290604051600060405180830381858888f1935050505015801561044d573d6000803e3d6000fd5b505050565b6000600160008381526020019081526020016000209050818160000154146104af576040517f08c379a00000000000000000000000000000000000000000000000000000000081526004016104a69061256a565b60405180910390fd5b8060010160009054906101000a900473ffffffffffffffffffffffffffffffffffffffff1673ffffffffffffffffffffffffffffffffffffffff163373ffffffffffffffffffffffffffffffffffffffff16148061055c57508060020160009054906101000a900473ffffffffffffffffffffffffffffffffffffffff1673ffffffffffffffffffffffffffffffffffffffff163373ffffffffffffffffffffffffffffffffffffffff16145b61059b576040517f08c379a0000000000000000000000000000000000000000000000000000000008152600401610592906124ca565b60405180910390fd5b8060060160009054906101000a900460ff16156105ed576040517f08c379a00000000000000000000000000000000000000000000000000000000081526004016105e49061252a565b60405180910390fd5b600160008381526020019081526020016000206000808201600090556001820160006101000a81549073ffffffffffffffffffffffffffffffffffffffff02191690556002820160006101000a81549073ffffffffffffffffffffffffffffffffffffffff02191690556003820160009055600482016000905560058201600090556006820160006101000a81549060ff02191690556006820160016101000a81549060ff02191690555050817fd81c963a5d7ec66c3cf064397f432633dc7cf5db7db2197eb8ae321b2aa996b660405160405180910390a25050565b600260009054906101000a900473ffffffffffffffffffffffffffffffffffffffff1673ffffffffffffffffffffffffffffffffffffffff16636f77926b336040518263ffffffff1660e01b815260040161072591906123c4565b60006040518083038186803b15801561073d57600080fd5b505afa158015610751573d6000803e3d6000fd5b505050506040513d6000823e3d601f19601f8201168201806040525081019061077a9190611cfc565b60c001516107bd576040517f08c379a00000000000000000000000000000000000000000000000000000000081526004016107b49061254a565b60405180910390fd5b6040518061010001604052806000548152602001600073ffffffffffffffffffffffffffffffffffffffff1681526020013373ffffffffffffffffffffffffffffffffffffffff1681526020018481526020018381526020018281526020016000151581526020016000151581525060016000805481526020019081526020016000206000820151816000015560208201518160010160006101000a81548173ffffffffffffffffffffffffffffffffffffffff021916908373ffffffffffffffffffffffffffffffffffffffff16021790555060408201518160020160006101000a81548173ffffffffffffffffffffffffffffffffffffffff021916908373ffffffffffffffffffffffffffffffffffffffff160217905550606082015181600301556080820151816004015560a0820151816005015560c08201518160060160006101000a81548160ff02191690831515021790555060e08201518160060160016101000a81548160ff0219169083151502179055509050503373ffffffffffffffffffffffffffffffffffffffff166000547f068be421395498b8f640e7d439ce7c3f676b5dae2f264a77494c0e737a0d85128585856040516109869392919061267f565b60405180910390a36000808154809291906109a0906128c8565b9190505550505050565b6109b2611aa6565b81600160008481526020019081526020016000206000015414610a0a576040517f08c379a0000000000000000000000000000000000000000000000000000000008152600401610a019061256a565b60405180910390fd5b6001600083815260200190815260200160002060405180610100016040529081600082015481526020016001820160009054906101000a900473ffffffffffffffffffffffffffffffffffffffff1673ffffffffffffffffffffffffffffffffffffffff1673ffffffffffffffffffffffffffffffffffffffff1681526020016002820160009054906101000a900473ffffffffffffffffffffffffffffffffffffffff1673ffffffffffffffffffffffffffffffffffffffff1673ffffffffffffffffffffffffffffffffffffffff1681526020016003820154815260200160048201548152602001600582015481526020016006820160009054906101000a900460ff161515151581526020016006820160019054906101000a900460ff1615151515815250509050919050565b600060016000848152602001908152602001600020905082816000015414610b97576040517f08c379a0000000000000000000000000000000000000000000000000000000008152600401610b8e9061256a565b60405180910390fd5b8060060160009054906101000a900460ff1615610be9576040517f08c379a0000000000000000000000000000000000000000000000000000000008152600401610be09061242a565b60405180910390fd5b80600301543414610c2f576040517f08c379a0000000000000000000000000000000000000000000000000000000008152600401610c269061246a565b60405180910390fd5b600073ffffffffffffffffffffffffffffffffffffffff168160010160009054906101000a900473ffffffffffffffffffffffffffffffffffffffff1673ffffffffffffffffffffffffffffffffffffffff161480610cdd57508173ffffffffffffffffffffffffffffffffffffffff168160010160009054906101000a900473ffffffffffffffffffffffffffffffffffffffff1673ffffffffffffffffffffffffffffffffffffffff16145b610d1c576040517f08c379a0000000000000000000000000000000000000000000000000000000008152600401610d13906125aa565b60405180910390fd5b338160020160006101000a81548173ffffffffffffffffffffffffffffffffffffffff021916908373ffffffffffffffffffffffffffffffffffffffff160217905550818160010160006101000a81548173ffffffffffffffffffffffffffffffffffffffff021916908373ffffffffffffffffffffffffffffffffffffffff16021790555060018160060160006101000a81548160ff0219169083151502179055508060010160009054906101000a900473ffffffffffffffffffffffffffffffffffffffff1673ffffffffffffffffffffffffffffffffffffffff168160020160009054906101000a900473ffffffffffffffffffffffffffffffffffffffff1673ffffffffffffffffffffffffffffffffffffffff167ff62badb063ea4b26543119fa0f194f8c19665e8c9d635362e24e7681d6cfb6af8360030154604051610e6891906125e6565b60405180910390a360008160010160009054906101000a900473ffffffffffffffffffffffffffffffffffffffff1673ffffffffffffffffffffffffffffffffffffffff168260030154604051610ebe906123af565b60006040518083038185875af1925050503d8060008114610efb576040519150601f19603f3d011682016040523d82523d6000602084013e610f00565b606091505b5050905080610f44576040517f08c379a0000000000000000000000000000000000000000000000000000000008152600401610f3b9061244a565b60405180910390fd5b8160010160009054906101000a900473ffffffffffffffffffffffffffffffffffffffff1673ffffffffffffffffffffffffffffffffffffffff163373ffffffffffffffffffffffffffffffffffffffff167f78e6250172d8e0a57d8d41f480f13581571a2d27bb2a93f5f7bd2511f5c22a6c8460030154604051610fc991906125e6565b60405180910390a350505050565b60606000805467ffffffffffffffff81111561101c577f4e487b7100000000000000000000000000000000000000000000000000000000600052604160045260246000fd5b60405190808252806020026020018201604052801561105557816020015b611042611aa6565b81526020019060019003908161103a5790505b50905060005b6000548110156111e5576001600082815260200190815260200160002060405180610100016040529081600082015481526020016001820160009054906101000a900473ffffffffffffffffffffffffffffffffffffffff1673ffffffffffffffffffffffffffffffffffffffff1673ffffffffffffffffffffffffffffffffffffffff1681526020016002820160009054906101000a900473ffffffffffffffffffffffffffffffffffffffff1673ffffffffffffffffffffffffffffffffffffffff1673ffffffffffffffffffffffffffffffffffffffff1681526020016003820154815260200160048201548152602001600582015481526020016006820160009054906101000a900460ff161515151581526020016006820160019054906101000a900460ff1615151515815250508282815181106111c7577f4e487b7100000000000000000000000000000000000000000000000000000000600052603260045260246000fd5b602002602001018190525080806111dd906128c8565b91505061105b565b508091505090565b60006001600083815260200190815260200160002090508181600001541461124a576040517f08c379a00000000000000000000000000000000000000000000000000000000081526004016112419061256a565b60405180910390fd5b8060060160009054906101000a900460ff1661129b576040517f08c379a00000000000000000000000000000000000000000000000000000000081526004016112929061248a565b60405180910390fd5b8060060160019054906101000a900460ff16156112ed576040517f08c379a00000000000000000000000000000000000000000000000000000000081526004016112e4906124ea565b60405180910390fd5b8060010160009054906101000a900473ffffffffffffffffffffffffffffffffffffffff1673ffffffffffffffffffffffffffffffffffffffff163373ffffffffffffffffffffffffffffffffffffffff161461137f576040517f08c379a00000000000000000000000000000000000000000000000000000000081526004016113769061250a565b60405180910390fd5b600060648260040154836003015461139791906127f3565b6113a191906127c2565b82600301546113b0919061276c565b90508034146113f4576040517f08c379a00000000000000000000000000000000000000000000000000000000081526004016113eb906124aa565b60405180910390fd5b60018260060160016101000a81548160ff021916908315150217905550600460009054906101000a900473ffffffffffffffffffffffffffffffffffffffff1673ffffffffffffffffffffffffffffffffffffffff1663e2c41dbc346040518263ffffffff1660e01b81526004016000604051808303818588803b15801561147b57600080fd5b505af115801561148f573d6000803e3d6000fd5b5050505050600460009054906101000a900473ffffffffffffffffffffffffffffffffffffffff1673ffffffffffffffffffffffffffffffffffffffff1663155dd5ee346040518263ffffffff1660e01b81526004016114ef91906125e6565b600060405180830381600087803b15801561150957600080fd5b505af115801561151d573d6000803e3d6000fd5b505050508160020160009054906101000a900473ffffffffffffffffffffffffffffffffffffffff1673ffffffffffffffffffffffffffffffffffffffff166108fc349081150290604051600060405180830381858888f1935050505015801561158b573d6000803e3d6000fd5b50600360009054906101000a900473ffffffffffffffffffffffffffffffffffffffff1673ffffffffffffffffffffffffffffffffffffffff166365352f9d8360010160009054906101000a900473ffffffffffffffffffffffffffffffffffffffff166001600360009054906101000a900473ffffffffffffffffffffffffffffffffffffffff1673ffffffffffffffffffffffffffffffffffffffff1663d3dd2bdf8760010160009054906101000a900473ffffffffffffffffffffffffffffffffffffffff166040518263ffffffff1660e01b815260040161167091906123c4565b60206040518083038186803b15801561168857600080fd5b505afa15801561169c573d6000803e3d6000fd5b505050506040513d601f19601f820116820180604052508101906116c09190611d66565b6116ca919061276c565b6040518363ffffffff1660e01b81526004016116e79291906123df565b600060405180830381600087803b15801561170157600080fd5b505af1158015611715573d6000803e3d6000fd5b50505050505050565b60005481565b60016020528060005260406000206000915090508060000154908060010160009054906101000a900473ffffffffffffffffffffffffffffffffffffffff16908060020160009054906101000a900473ffffffffffffffffffffffffffffffffffffffff16908060030154908060040154908060050154908060060160009054906101000a900460ff16908060060160019054906101000a900460ff16905088565b600260009054906101000a900473ffffffffffffffffffffffffffffffffffffffff1673ffffffffffffffffffffffffffffffffffffffff16636f77926b336040518263ffffffff1660e01b815260040161182191906123c4565b60006040518083038186803b15801561183957600080fd5b505afa15801561184d573d6000803e3d6000fd5b505050506040513d6000823e3d601f19601f820116820180604052508101906118769190611cfc565b60c001516118b9576040517f08c379a00000000000000000000000000000000000000000000000000000000081526004016118b09061254a565b60405180910390fd5b60405180610100016040528060005481526020013373ffffffffffffffffffffffffffffffffffffffff168152602001600073ffffffffffffffffffffffffffffffffffffffff1681526020018481526020018381526020018281526020016000151581526020016000151581525060016000805481526020019081526020016000206000820151816000015560208201518160010160006101000a81548173ffffffffffffffffffffffffffffffffffffffff021916908373ffffffffffffffffffffffffffffffffffffffff16021790555060408201518160020160006101000a81548173ffffffffffffffffffffffffffffffffffffffff021916908373ffffffffffffffffffffffffffffffffffffffff160217905550606082015181600301556080820151816004015560a0820151816005015560c08201518160060160006101000a81548160ff02191690831515021790555060e08201518160060160016101000a81548160ff0219169083151502179055509050503373ffffffffffffffffffffffffffffffffffffffff166000547ff6cc19e46a340ab5888d736bfc79aef72ae92d12d7b76319d72b0abc170868e6858585604051611a829392919061267f565b60405180910390a3600080815480929190611a9c906128c8565b9190505550505050565b60405180610100016040528060008152602001600073ffffffffffffffffffffffffffffffffffffffff168152602001600073ffffffffffffffffffffffffffffffffffffffff1681526020016000815260200160008152602001600081526020016000151581526020016000151581525090565b6000611b2e611b29846126e7565b6126b6565b905082815260208101848484011115611b4657600080fd5b611b51848285612895565b509392505050565b600081359050611b688161299e565b92915050565b600081519050611b7d8161299e565b92915050565b600081519050611b92816129b5565b92915050565b600082601f830112611ba957600080fd5b8151611bb9848260208601611b1b565b91505092915050565b600060e08284031215611bd457600080fd5b611bde60e06126b6565b90506000611bee84828501611b6e565b600083015250602082015167ffffffffffffffff811115611c0e57600080fd5b611c1a84828501611b98565b602083015250604082015167ffffffffffffffff811115611c3a57600080fd5b611c4684828501611b98565b604083015250606082015167ffffffffffffffff811115611c6657600080fd5b611c7284828501611b98565b606083015250608082015167ffffffffffffffff811115611c9257600080fd5b611c9e84828501611b98565b60808301525060a0611cb284828501611ce7565b60a08301525060c0611cc684828501611b83565b60c08301525092915050565b600081359050611ce1816129cc565b92915050565b600081519050611cf6816129cc565b92915050565b600060208284031215611d0e57600080fd5b600082015167ffffffffffffffff811115611d2857600080fd5b611d3484828501611bc2565b91505092915050565b600060208284031215611d4f57600080fd5b6000611d5d84828501611cd2565b91505092915050565b600060208284031215611d7857600080fd5b6000611d8684828501611ce7565b91505092915050565b60008060408385031215611da257600080fd5b6000611db085828601611cd2565b9250506020611dc185828601611b59565b9150509250929050565b600080600060608486031215611de057600080fd5b6000611dee86828701611cd2565b9350506020611dff86828701611cd2565b9250506040611e1086828701611cd2565b9150509250925092565b6000611e26838361224d565b6101008301905092915050565b611e3c8161284d565b82525050565b611e4b8161284d565b82525050565b6000611e5c82612727565b611e66818561273f565b9350611e7183612717565b8060005b83811015611ea2578151611e898882611e1a565b9750611e9483612732565b925050600181019050611e75565b5085935050505092915050565b611eb88161285f565b82525050565b611ec78161285f565b82525050565b6000611eda60138361275b565b91507f4c6f616e20616c72656164792066756e646564000000000000000000000000006000830152602082019050919050565b6000611f1a600f8361275b565b91507f5472616e73666572206661696c656400000000000000000000000000000000006000830152602082019050919050565b6000611f5a60158361275b565b91507f496e636f727265637420616d6f756e742073656e7400000000000000000000006000830152602082019050919050565b6000611f9a600f8361275b565b91507f4c6f616e206e6f742066756e64656400000000000000000000000000000000006000830152602082019050919050565b6000611fda601a8361275b565b91507f496e636f72726563742072657061796d656e7420616d6f756e740000000000006000830152602082019050919050565b600061201a602b8361275b565b91507f4f6e6c7920626f72726f776572206f72206c656e6465722063616e2064656c6560008301527f746520746865206c6f616e0000000000000000000000000000000000000000006020830152604082019050919050565b600061208060138361275b565b91507f4c6f616e20616c726561647920726570616964000000000000000000000000006000830152602082019050919050565b60006120c060208361275b565b91507f4f6e6c7920626f72726f7765722063616e20726570617920746865206c6f616e6000830152602082019050919050565b6000612100600083612750565b9150600082019050919050565b600061211a601b8361275b565b91507f43616e6e6f742064656c65746520612066756e646564206c6f616e00000000006000830152602082019050919050565b600061215a60118361275b565b91507f55736572206e6f742076657269666965640000000000000000000000000000006000830152602082019050919050565b600061219a60138361275b565b91507f4c6f616e20646f6573206e6f74206578697374000000000000000000000000006000830152602082019050919050565b60006121da60128361275b565b91507f496e76616c6964206c6f616e206f6666657200000000000000000000000000006000830152602082019050919050565b600061221a60198361275b565b91507f426f72726f7765722061646472657373206d69736d61746368000000000000006000830152602082019050919050565b610100820160008201516122646000850182612391565b5060208201516122776020850182611e33565b50604082015161228a6040850182611e33565b50606082015161229d6060850182612391565b5060808201516122b06080850182612391565b5060a08201516122c360a0850182612391565b5060c08201516122d660c0850182611eaf565b5060e08201516122e960e0850182611eaf565b50505050565b610100820160008201516123066000850182612391565b5060208201516123196020850182611e33565b50604082015161232c6040850182611e33565b50606082015161233f6060850182612391565b5060808201516123526080850182612391565b5060a082015161236560a0850182612391565b5060c082015161237860c0850182611eaf565b5060e082015161238b60e0850182611eaf565b50505050565b61239a8161288b565b82525050565b6123a98161288b565b82525050565b60006123ba826120f3565b9150819050919050565b60006020820190506123d96000830184611e42565b92915050565b60006040820190506123f46000830185611e42565b61240160208301846123a0565b9392505050565b600060208201905081810360008301526124228184611e51565b905092915050565b6000602082019050818103600083015261244381611ecd565b9050919050565b6000602082019050818103600083015261246381611f0d565b9050919050565b6000602082019050818103600083015261248381611f4d565b9050919050565b600060208201905081810360008301526124a381611f8d565b9050919050565b600060208201905081810360008301526124c381611fcd565b9050919050565b600060208201905081810360008301526124e38161200d565b9050919050565b6000602082019050818103600083015261250381612073565b9050919050565b60006020820190508181036000830152612523816120b3565b9050919050565b600060208201905081810360008301526125438161210d565b9050919050565b600060208201905081810360008301526125638161214d565b9050919050565b600060208201905081810360008301526125838161218d565b9050919050565b600060208201905081810360008301526125a3816121cd565b9050919050565b600060208201905081810360008301526125c38161220d565b9050919050565b6000610100820190506125e060008301846122ef565b92915050565b60006020820190506125fb60008301846123a0565b92915050565b600061010082019050612617600083018b6123a0565b612624602083018a611e42565b6126316040830189611e42565b61263e60608301886123a0565b61264b60808301876123a0565b61265860a08301866123a0565b61266560c0830185611ebe565b61267260e0830184611ebe565b9998505050505050505050565b600060608201905061269460008301866123a0565b6126a160208301856123a0565b6126ae60408301846123a0565b949350505050565b6000604051905081810181811067ffffffffffffffff821117156126dd576126dc61296f565b5b8060405250919050565b600067ffffffffffffffff8211156127025761270161296f565b5b601f19601f8301169050602081019050919050565b6000819050602082019050919050565b600081519050919050565b6000602082019050919050565b600082825260208201905092915050565b600081905092915050565b600082825260208201905092915050565b60006127778261288b565b91506127828361288b565b9250827fffffffffffffffffffffffffffffffffffffffffffffffffffffffffffffffff038211156127b7576127b6612911565b5b828201905092915050565b60006127cd8261288b565b91506127d88361288b565b9250826127e8576127e7612940565b5b828204905092915050565b60006127fe8261288b565b91506128098361288b565b9250817fffffffffffffffffffffffffffffffffffffffffffffffffffffffffffffffff048311821515161561284257612841612911565b5b828202905092915050565b60006128588261286b565b9050919050565b60008115159050919050565b600073ffffffffffffffffffffffffffffffffffffffff82169050919050565b6000819050919050565b60005b838110156128b3578082015181840152602081019050612898565b838111156128c2576000848401525b50505050565b60006128d38261288b565b91507fffffffffffffffffffffffffffffffffffffffffffffffffffffffffffffffff82141561290657612905612911565b5b600182019050919050565b7f4e487b7100000000000000000000000000000000000000000000000000000000600052601160045260246000fd5b7f4e487b7100000000000000000000000000000000000000000000000000000000600052601260045260246000fd5b7f4e487b7100000000000000000000000000000000000000000000000000000000600052604160045260246000fd5b6129a78161284d565b81146129b257600080fd5b50565b6129be8161285f565b81146129c957600080fd5b50565b6129d58161288b565b81146129e057600080fd5b5056fea2646970667358221220a8ed141e0128170435699605a45c4b1b8521647559baad6686d9ccf80168072a64736f6c63430008000033",
  "immutableReferences": {},
  "source": "// SPDX-License-Identifier: MIT\r\npragma solidity ^0.8.0;\r\n\r\nimport \"./UserManagement.sol\";\r\nimport \"./CreditScoring.sol\";\r\nimport \"./FundManagement.sol\";\r\n\r\ncontract LoanContract {\r\n    struct Loan {\r\n        uint id;\r\n        address borrower;\r\n        address lender;\r\n        uint amount;\r\n        uint interest;\r\n        uint duration;\r\n        bool isFunded;\r\n        bool isRepaid;\r\n    }\r\n\r\n    uint public loanCount = 0;\r\n    mapping(uint => Loan) public loans;\r\n\r\n    event LoanOfferCreated(\r\n        uint indexed loanId,\r\n        address indexed lender,\r\n        uint amount,\r\n        uint interest,\r\n        uint duration\r\n    );\r\n    event LoanRequested(\r\n        uint indexed loanId,\r\n        address indexed borrower,\r\n        uint amount,\r\n        uint interest,\r\n        uint duration\r\n    );\r\n    event LoanDeleted(uint indexed loanId);\r\n    event LoanFunded(\r\n        address indexed lender,\r\n        address indexed borrower,\r\n        uint amount\r\n    );\r\n    event FundsTransferred(\r\n        address indexed from,\r\n        address indexed to,\r\n        uint amount\r\n    );\r\n\r\n    UserManagement userManagement;\r\n    CreditScoring creditScoring;\r\n    FundManagement fundManagement;\r\n\r\n    constructor(\r\n        address _userManagement,\r\n        address _creditScoring,\r\n        address _fundManagement\r\n    ) {\r\n        userManagement = UserManagement(_userManagement);\r\n        creditScoring = CreditScoring(_creditScoring);\r\n        fundManagement = FundManagement(_fundManagement);\r\n    }\r\n\r\n    function createLoanOffer(\r\n        uint _amount,\r\n        uint _interest,\r\n        uint _duration\r\n    ) public {\r\n        require(\r\n            userManagement.getUser(msg.sender).isVerified,\r\n            \"User not verified\"\r\n        );\r\n\r\n        loans[loanCount] = Loan(\r\n            loanCount,\r\n            address(0),\r\n            msg.sender,\r\n            _amount,\r\n            _interest,\r\n            _duration,\r\n            false,\r\n            false\r\n        );\r\n        emit LoanOfferCreated(\r\n            loanCount,\r\n            msg.sender,\r\n            _amount,\r\n            _interest,\r\n            _duration\r\n        );\r\n        loanCount++;\r\n    }\r\n\r\n    function requestLoan(uint _amount, uint _interest, uint _duration) public {\r\n        require(\r\n            userManagement.getUser(msg.sender).isVerified,\r\n            \"User not verified\"\r\n        );\r\n\r\n        loans[loanCount] = Loan(\r\n            loanCount,\r\n            msg.sender,\r\n            address(0),\r\n            _amount,\r\n            _interest,\r\n            _duration,\r\n            false,\r\n            false\r\n        );\r\n        emit LoanRequested(\r\n            loanCount,\r\n            msg.sender,\r\n            _amount,\r\n            _interest,\r\n            _duration\r\n        );\r\n        loanCount++;\r\n    }\r\n\r\n    function fundLoan(uint _loanId, address _borrower) public payable {\r\n        Loan storage loan = loans[_loanId];\r\n        require(loan.id == _loanId, \"Loan does not exist\");\r\n        require(!loan.isFunded, \"Loan already funded\");\r\n        require(msg.value == loan.amount, \"Incorrect amount sent\");\r\n        require(loan.borrower == address(0) || loan.borrower == _borrower, \"Borrower address mismatch\");\r\n\r\n        loan.lender = msg.sender;\r\n        loan.borrower = _borrower;\r\n        loan.isFunded = true;\r\n\r\n        // Emit event before transfer\r\n        emit LoanFunded(loan.lender, loan.borrower, loan.amount);\r\n\r\n        // Transfer funds to the borrower directly\r\n        (bool success, ) = payable(loan.borrower).call{value: loan.amount}(\"\");\r\n        require(success, \"Transfer failed\");\r\n\r\n        // Emit event after transfer\r\n        emit FundsTransferred(msg.sender, loan.borrower, loan.amount);\r\n    }\r\n\r\n\r\n    function acceptLoanOffer(uint _loanId) public payable {\r\n        Loan storage loan = loans[_loanId];\r\n        require(loan.id == _loanId, \"Loan does not exist\");\r\n        require(!loan.isFunded, \"Loan already funded\");\r\n        require(loan.lender != address(0), \"Invalid loan offer\");\r\n\r\n        loan.borrower = msg.sender;\r\n        loan.isFunded = true;\r\n\r\n        // Transfer funds to the borrower directly\r\n        payable(loan.borrower).transfer(loan.amount);\r\n    }\r\n\r\n    function repayLoan(uint _loanId) public payable {\r\n        Loan storage loan = loans[_loanId];\r\n        require(loan.id == _loanId, \"Loan does not exist\");\r\n        require(loan.isFunded, \"Loan not funded\");\r\n        require(!loan.isRepaid, \"Loan already repaid\");\r\n        require(\r\n            msg.sender == loan.borrower,\r\n            \"Only borrower can repay the loan\"\r\n        );\r\n        uint repaymentAmount = loan.amount +\r\n            ((loan.amount * loan.interest) / 100);\r\n        require(msg.value == repaymentAmount, \"Incorrect repayment amount\");\r\n\r\n        loan.isRepaid = true;\r\n\r\n        // Transfer repayment to the lender\r\n        fundManagement.depositFunds{value: msg.value}();\r\n        fundManagement.withdrawFunds(msg.value);\r\n        payable(loan.lender).transfer(msg.value);\r\n\r\n        // Update credit score\r\n        creditScoring.updateCreditScore(\r\n            loan.borrower,\r\n            creditScoring.getCreditScore(loan.borrower) + 1\r\n        );\r\n    }\r\n\r\n    function deleteLoan(uint _loanId) public {\r\n        Loan storage loan = loans[_loanId];\r\n        require(loan.id == _loanId, \"Loan does not exist\");\r\n        require(\r\n            msg.sender == loan.borrower || msg.sender == loan.lender,\r\n            \"Only borrower or lender can delete the loan\"\r\n        );\r\n        require(!loan.isFunded, \"Cannot delete a funded loan\");\r\n\r\n        delete loans[_loanId];\r\n        emit LoanDeleted(_loanId);\r\n    }\r\n\r\n    function getLoan(uint _loanId) public view returns (Loan memory) {\r\n        require(loans[_loanId].id == _loanId, \"Loan does not exist\");\r\n        return loans[_loanId];\r\n    }\r\n\r\n    function getAllLoans() public view returns (Loan[] memory) {\r\n        Loan[] memory allLoans = new Loan[](loanCount);\r\n        for (uint i = 0; i < loanCount; i++) {\r\n            allLoans[i] = loans[i];\r\n        }\r\n        return allLoans;\r\n    }\r\n}\r\n",
  "sourcePath": "C:\\Users\\jairo\\OneDrive\\Documents\\Q2 2024\\Vanguardia\\P2P-Lending\\microfinance-platform\\contracts\\LoanContract.sol",
  "compiler": {
    "name": "solc",
    "version": "0.8.0+commit.c7dfd78e.Emscripten.clang"
  },
  "schemaVersion": "3.4.16",
  "updatedAt": "2024-06-15T23:35:14.722Z",
  "networkType": "ethereum",
  "devdoc": {
    "kind": "dev",
    "methods": {},
    "version": 1
  },
  "userdoc": {
    "kind": "user",
    "methods": {},
    "version": 1
  }
}