{
  "contractName": "LoanContract",
  "abi": [
    {
      "inputs": [
        {
          "internalType": "address",
          "name": "_userManagement",
          "type": "address"
        },
        {
          "internalType": "address",
          "name": "_creditScoring",
          "type": "address"
        },
        {
          "internalType": "address",
          "name": "_fundManagement",
          "type": "address"
        }
      ],
      "stateMutability": "nonpayable",
      "type": "constructor"
    },
    {
      "inputs": [],
      "name": "loanCount",
      "outputs": [
        {
          "internalType": "uint256",
          "name": "",
          "type": "uint256"
        }
      ],
      "stateMutability": "view",
      "type": "function",
      "constant": true
    },
    {
      "inputs": [
        {
          "internalType": "uint256",
          "name": "",
          "type": "uint256"
        }
      ],
      "name": "loans",
      "outputs": [
        {
          "internalType": "uint256",
          "name": "id",
          "type": "uint256"
        },
        {
          "internalType": "address",
          "name": "borrower",
          "type": "address"
        },
        {
          "internalType": "address",
          "name": "lender",
          "type": "address"
        },
        {
          "internalType": "uint256",
          "name": "amount",
          "type": "uint256"
        },
        {
          "internalType": "uint256",
          "name": "interest",
          "type": "uint256"
        },
        {
          "internalType": "uint256",
          "name": "duration",
          "type": "uint256"
        },
        {
          "internalType": "bool",
          "name": "isFunded",
          "type": "bool"
        },
        {
          "internalType": "bool",
          "name": "isRepaid",
          "type": "bool"
        }
      ],
      "stateMutability": "view",
      "type": "function",
      "constant": true
    },
    {
      "inputs": [
        {
          "internalType": "uint256",
          "name": "_amount",
          "type": "uint256"
        },
        {
          "internalType": "uint256",
          "name": "_interest",
          "type": "uint256"
        },
        {
          "internalType": "uint256",
          "name": "_duration",
          "type": "uint256"
        }
      ],
      "name": "requestLoan",
      "outputs": [],
      "stateMutability": "nonpayable",
      "type": "function"
    },
    {
      "inputs": [
        {
          "internalType": "uint256",
          "name": "_loanId",
          "type": "uint256"
        }
      ],
      "name": "fundLoan",
      "outputs": [],
      "stateMutability": "payable",
      "type": "function",
      "payable": true
    },
    {
      "inputs": [
        {
          "internalType": "uint256",
          "name": "_loanId",
          "type": "uint256"
        }
      ],
      "name": "repayLoan",
      "outputs": [],
      "stateMutability": "payable",
      "type": "function",
      "payable": true
    },
    {
      "inputs": [
        {
          "internalType": "uint256",
          "name": "_amount",
          "type": "uint256"
        },
        {
          "internalType": "uint256",
          "name": "_interest",
          "type": "uint256"
        },
        {
          "internalType": "uint256",
          "name": "_duration",
          "type": "uint256"
        }
      ],
      "name": "createLoanOffer",
      "outputs": [],
      "stateMutability": "nonpayable",
      "type": "function"
    },
    {
      "inputs": [
        {
          "internalType": "uint256",
          "name": "_loanId",
          "type": "uint256"
        }
      ],
      "name": "acceptLoanOffer",
      "outputs": [],
      "stateMutability": "nonpayable",
      "type": "function"
    },
    {
      "inputs": [
        {
          "internalType": "uint256",
          "name": "_loanId",
          "type": "uint256"
        }
      ],
      "name": "getLoan",
      "outputs": [
        {
          "components": [
            {
              "internalType": "uint256",
              "name": "id",
              "type": "uint256"
            },
            {
              "internalType": "address",
              "name": "borrower",
              "type": "address"
            },
            {
              "internalType": "address",
              "name": "lender",
              "type": "address"
            },
            {
              "internalType": "uint256",
              "name": "amount",
              "type": "uint256"
            },
            {
              "internalType": "uint256",
              "name": "interest",
              "type": "uint256"
            },
            {
              "internalType": "uint256",
              "name": "duration",
              "type": "uint256"
            },
            {
              "internalType": "bool",
              "name": "isFunded",
              "type": "bool"
            },
            {
              "internalType": "bool",
              "name": "isRepaid",
              "type": "bool"
            }
          ],
          "internalType": "struct LoanContract.Loan",
          "name": "",
          "type": "tuple"
        }
      ],
      "stateMutability": "view",
      "type": "function",
      "constant": true
    }
  ],
  "bytecode": "0x60806040523480156200001157600080fd5b506040516200203d3803806200203d83398181016040528101906200003791906200011a565b82600260006101000a81548173ffffffffffffffffffffffffffffffffffffffff021916908373ffffffffffffffffffffffffffffffffffffffff16021790555081600360006101000a81548173ffffffffffffffffffffffffffffffffffffffff021916908373ffffffffffffffffffffffffffffffffffffffff16021790555080600460006101000a81548173ffffffffffffffffffffffffffffffffffffffff021916908373ffffffffffffffffffffffffffffffffffffffff160217905550505050620001be565b6000815190506200011481620001a4565b92915050565b6000806000606084860312156200013057600080fd5b6000620001408682870162000103565b9350506020620001538682870162000103565b9250506040620001668682870162000103565b9150509250925092565b60006200017d8262000184565b9050919050565b600073ffffffffffffffffffffffffffffffffffffffff82169050919050565b620001af8162000170565b8114620001bb57600080fd5b50565b611e6f80620001ce6000396000f3fe60806040526004361061007b5760003560e01c8063ab7b1c891161004e578063ab7b1c891461012b578063ce63094d14610147578063e1ec3c6814610172578063edadbbfe146101b65761007b565b806321265d0e146100805780633a867c89146100a9578063504006ca146100d2578063846b909a1461010f575b600080fd5b34801561008c57600080fd5b506100a760048036038101906100a291906115ba565b6101df565b005b3480156100b557600080fd5b506100d060048036038101906100cb919061160c565b6104c7565b005b3480156100de57600080fd5b506100f960048036038101906100f491906115ba565b610752565b6040516101069190611a9b565b60405180910390f35b610129600480360381019061012491906115ba565b61088a565b005b610145600480360381019061014091906115ba565b610b20565b005b34801561015357600080fd5b5061015c611005565b6040516101699190611ab7565b60405180910390f35b34801561017e57600080fd5b50610199600480360381019061019491906115ba565b61100b565b6040516101ad989796959493929190611ad2565b60405180910390f35b3480156101c257600080fd5b506101dd60048036038101906101d8919061160c565b6110ad565b005b60006001600083815260200190815260200160002090508060060160009054906101000a900460ff1615610248576040517f08c379a000000000000000000000000000000000000000000000000000000000815260040161023f9061199b565b60405180910390fd5b600073ffffffffffffffffffffffffffffffffffffffff168160020160009054906101000a900473ffffffffffffffffffffffffffffffffffffffff1673ffffffffffffffffffffffffffffffffffffffff1614156102dc576040517f08c379a00000000000000000000000000000000000000000000000000000000081526004016102d390611a7b565b60405180910390fd5b338160010160006101000a81548173ffffffffffffffffffffffffffffffffffffffff021916908373ffffffffffffffffffffffffffffffffffffffff16021790555060018160060160006101000a81548160ff021916908315150217905550600460009054906101000a900473ffffffffffffffffffffffffffffffffffffffff1673ffffffffffffffffffffffffffffffffffffffff1663e2c41dbc82600301546040518263ffffffff1660e01b81526004016000604051808303818588803b1580156103aa57600080fd5b505af11580156103be573d6000803e3d6000fd5b5050505050600460009054906101000a900473ffffffffffffffffffffffffffffffffffffffff1673ffffffffffffffffffffffffffffffffffffffff1663155dd5ee82600301546040518263ffffffff1660e01b81526004016104229190611ab7565b600060405180830381600087803b15801561043c57600080fd5b505af1158015610450573d6000803e3d6000fd5b505050508060010160009054906101000a900473ffffffffffffffffffffffffffffffffffffffff1673ffffffffffffffffffffffffffffffffffffffff166108fc82600301549081150290604051600060405180830381858888f193505050501580156104c2573d6000803e3d6000fd5b505050565b600260009054906101000a900473ffffffffffffffffffffffffffffffffffffffff1673ffffffffffffffffffffffffffffffffffffffff16636f77926b336040518263ffffffff1660e01b81526004016105229190611957565b60006040518083038186803b15801561053a57600080fd5b505afa15801561054e573d6000803e3d6000fd5b505050506040513d6000823e3d601f19601f820116820180604052508101906105779190611579565b60c001516105ba576040517f08c379a00000000000000000000000000000000000000000000000000000000081526004016105b190611a5b565b60405180910390fd5b6000808154809291906105cc90611d1e565b91905055506040518061010001604052806000548152602001600073ffffffffffffffffffffffffffffffffffffffff1681526020013373ffffffffffffffffffffffffffffffffffffffff1681526020018481526020018381526020018281526020016000151581526020016000151581525060016000805481526020019081526020016000206000820151816000015560208201518160010160006101000a81548173ffffffffffffffffffffffffffffffffffffffff021916908373ffffffffffffffffffffffffffffffffffffffff16021790555060408201518160020160006101000a81548173ffffffffffffffffffffffffffffffffffffffff021916908373ffffffffffffffffffffffffffffffffffffffff160217905550606082015181600301556080820151816004015560a0820151816005015560c08201518160060160006101000a81548160ff02191690831515021790555060e08201518160060160016101000a81548160ff021916908315150217905550905050505050565b61075a611338565b6001600083815260200190815260200160002060405180610100016040529081600082015481526020016001820160009054906101000a900473ffffffffffffffffffffffffffffffffffffffff1673ffffffffffffffffffffffffffffffffffffffff1673ffffffffffffffffffffffffffffffffffffffff1681526020016002820160009054906101000a900473ffffffffffffffffffffffffffffffffffffffff1673ffffffffffffffffffffffffffffffffffffffff1673ffffffffffffffffffffffffffffffffffffffff1681526020016003820154815260200160048201548152602001600582015481526020016006820160009054906101000a900460ff161515151581526020016006820160019054906101000a900460ff1615151515815250509050919050565b60006001600083815260200190815260200160002090508060060160009054906101000a900460ff16156108f3576040517f08c379a00000000000000000000000000000000000000000000000000000000081526004016108ea9061199b565b60405180910390fd5b80600301543414610939576040517f08c379a0000000000000000000000000000000000000000000000000000000008152600401610930906119bb565b60405180910390fd5b338160020160006101000a81548173ffffffffffffffffffffffffffffffffffffffff021916908373ffffffffffffffffffffffffffffffffffffffff16021790555060018160060160006101000a81548160ff021916908315150217905550600460009054906101000a900473ffffffffffffffffffffffffffffffffffffffff1673ffffffffffffffffffffffffffffffffffffffff1663e2c41dbc346040518263ffffffff1660e01b81526004016000604051808303818588803b158015610a0357600080fd5b505af1158015610a17573d6000803e3d6000fd5b5050505050600460009054906101000a900473ffffffffffffffffffffffffffffffffffffffff1673ffffffffffffffffffffffffffffffffffffffff1663155dd5ee82600301546040518263ffffffff1660e01b8152600401610a7b9190611ab7565b600060405180830381600087803b158015610a9557600080fd5b505af1158015610aa9573d6000803e3d6000fd5b505050508060010160009054906101000a900473ffffffffffffffffffffffffffffffffffffffff1673ffffffffffffffffffffffffffffffffffffffff166108fc82600301549081150290604051600060405180830381858888f19350505050158015610b1b573d6000803e3d6000fd5b505050565b60006001600083815260200190815260200160002090508060060160009054906101000a900460ff16610b88576040517f08c379a0000000000000000000000000000000000000000000000000000000008152600401610b7f906119db565b60405180910390fd5b8060060160019054906101000a900460ff1615610bda576040517f08c379a0000000000000000000000000000000000000000000000000000000008152600401610bd190611a1b565b60405180910390fd5b8060010160009054906101000a900473ffffffffffffffffffffffffffffffffffffffff1673ffffffffffffffffffffffffffffffffffffffff163373ffffffffffffffffffffffffffffffffffffffff1614610c6c576040517f08c379a0000000000000000000000000000000000000000000000000000000008152600401610c6390611a3b565b60405180910390fd5b606481600401548260030154610c829190611c49565b610c8c9190611c18565b8160030154610c9b9190611bc2565b3414610cdc576040517f08c379a0000000000000000000000000000000000000000000000000000000008152600401610cd3906119fb565b60405180910390fd5b60018160060160016101000a81548160ff021916908315150217905550600460009054906101000a900473ffffffffffffffffffffffffffffffffffffffff1673ffffffffffffffffffffffffffffffffffffffff1663e2c41dbc346040518263ffffffff1660e01b81526004016000604051808303818588803b158015610d6357600080fd5b505af1158015610d77573d6000803e3d6000fd5b5050505050600460009054906101000a900473ffffffffffffffffffffffffffffffffffffffff1673ffffffffffffffffffffffffffffffffffffffff1663155dd5ee346040518263ffffffff1660e01b8152600401610dd79190611ab7565b600060405180830381600087803b158015610df157600080fd5b505af1158015610e05573d6000803e3d6000fd5b505050508060020160009054906101000a900473ffffffffffffffffffffffffffffffffffffffff1673ffffffffffffffffffffffffffffffffffffffff166108fc349081150290604051600060405180830381858888f19350505050158015610e73573d6000803e3d6000fd5b50600360009054906101000a900473ffffffffffffffffffffffffffffffffffffffff1673ffffffffffffffffffffffffffffffffffffffff166365352f9d8260010160009054906101000a900473ffffffffffffffffffffffffffffffffffffffff166001600360009054906101000a900473ffffffffffffffffffffffffffffffffffffffff1673ffffffffffffffffffffffffffffffffffffffff1663d3dd2bdf8660010160009054906101000a900473ffffffffffffffffffffffffffffffffffffffff166040518263ffffffff1660e01b8152600401610f589190611957565b60206040518083038186803b158015610f7057600080fd5b505afa158015610f84573d6000803e3d6000fd5b505050506040513d601f19601f82011682018060405250810190610fa891906115e3565b610fb29190611bc2565b6040518363ffffffff1660e01b8152600401610fcf929190611972565b600060405180830381600087803b158015610fe957600080fd5b505af1158015610ffd573d6000803e3d6000fd5b505050505050565b60005481565b60016020528060005260406000206000915090508060000154908060010160009054906101000a900473ffffffffffffffffffffffffffffffffffffffff16908060020160009054906101000a900473ffffffffffffffffffffffffffffffffffffffff16908060030154908060040154908060050154908060060160009054906101000a900460ff16908060060160019054906101000a900460ff16905088565b600260009054906101000a900473ffffffffffffffffffffffffffffffffffffffff1673ffffffffffffffffffffffffffffffffffffffff16636f77926b336040518263ffffffff1660e01b81526004016111089190611957565b60006040518083038186803b15801561112057600080fd5b505afa158015611134573d6000803e3d6000fd5b505050506040513d6000823e3d601f19601f8201168201806040525081019061115d9190611579565b60c001516111a0576040517f08c379a000000000000000000000000000000000000000000000000000000000815260040161119790611a5b565b60405180910390fd5b6000808154809291906111b290611d1e565b919050555060405180610100016040528060005481526020013373ffffffffffffffffffffffffffffffffffffffff168152602001600073ffffffffffffffffffffffffffffffffffffffff1681526020018481526020018381526020018281526020016000151581526020016000151581525060016000805481526020019081526020016000206000820151816000015560208201518160010160006101000a81548173ffffffffffffffffffffffffffffffffffffffff021916908373ffffffffffffffffffffffffffffffffffffffff16021790555060408201518160020160006101000a81548173ffffffffffffffffffffffffffffffffffffffff021916908373ffffffffffffffffffffffffffffffffffffffff160217905550606082015181600301556080820151816004015560a0820151816005015560c08201518160060160006101000a81548160ff02191690831515021790555060e08201518160060160016101000a81548160ff021916908315150217905550905050505050565b60405180610100016040528060008152602001600073ffffffffffffffffffffffffffffffffffffffff168152602001600073ffffffffffffffffffffffffffffffffffffffff1681526020016000815260200160008152602001600081526020016000151581526020016000151581525090565b60006113c06113bb84611b81565b611b50565b9050828152602081018484840111156113d857600080fd5b6113e3848285611ceb565b509392505050565b6000815190506113fa81611df4565b92915050565b60008151905061140f81611e0b565b92915050565b600082601f83011261142657600080fd5b81516114368482602086016113ad565b91505092915050565b600060e0828403121561145157600080fd5b61145b60e0611b50565b9050600061146b848285016113eb565b600083015250602082015167ffffffffffffffff81111561148b57600080fd5b61149784828501611415565b602083015250604082015167ffffffffffffffff8111156114b757600080fd5b6114c384828501611415565b604083015250606082015167ffffffffffffffff8111156114e357600080fd5b6114ef84828501611415565b606083015250608082015167ffffffffffffffff81111561150f57600080fd5b61151b84828501611415565b60808301525060a061152f84828501611564565b60a08301525060c061154384828501611400565b60c08301525092915050565b60008135905061155e81611e22565b92915050565b60008151905061157381611e22565b92915050565b60006020828403121561158b57600080fd5b600082015167ffffffffffffffff8111156115a557600080fd5b6115b18482850161143f565b91505092915050565b6000602082840312156115cc57600080fd5b60006115da8482850161154f565b91505092915050565b6000602082840312156115f557600080fd5b600061160384828501611564565b91505092915050565b60008060006060848603121561162157600080fd5b600061162f8682870161154f565b93505060206116408682870161154f565b92505060406116518682870161154f565b9150509250925092565b61166481611ca3565b82525050565b61167381611ca3565b82525050565b61168281611cb5565b82525050565b61169181611cb5565b82525050565b60006116a4601383611bb1565b91507f4c6f616e20616c72656164792066756e646564000000000000000000000000006000830152602082019050919050565b60006116e4601583611bb1565b91507f496e636f727265637420616d6f756e742073656e7400000000000000000000006000830152602082019050919050565b6000611724600f83611bb1565b91507f4c6f616e206e6f742066756e64656400000000000000000000000000000000006000830152602082019050919050565b6000611764601a83611bb1565b91507f496e636f72726563742072657061796d656e7420616d6f756e740000000000006000830152602082019050919050565b60006117a4601383611bb1565b91507f4c6f616e20616c726561647920726570616964000000000000000000000000006000830152602082019050919050565b60006117e4602083611bb1565b91507f4f6e6c7920626f72726f7765722063616e20726570617920746865206c6f616e6000830152602082019050919050565b6000611824601183611bb1565b91507f55736572206e6f742076657269666965640000000000000000000000000000006000830152602082019050919050565b6000611864601283611bb1565b91507f496e76616c6964206c6f616e206f6666657200000000000000000000000000006000830152602082019050919050565b610100820160008201516118ae6000850182611939565b5060208201516118c1602085018261165b565b5060408201516118d4604085018261165b565b5060608201516118e76060850182611939565b5060808201516118fa6080850182611939565b5060a082015161190d60a0850182611939565b5060c082015161192060c0850182611679565b5060e082015161193360e0850182611679565b50505050565b61194281611ce1565b82525050565b61195181611ce1565b82525050565b600060208201905061196c600083018461166a565b92915050565b6000604082019050611987600083018561166a565b6119946020830184611948565b9392505050565b600060208201905081810360008301526119b481611697565b9050919050565b600060208201905081810360008301526119d4816116d7565b9050919050565b600060208201905081810360008301526119f481611717565b9050919050565b60006020820190508181036000830152611a1481611757565b9050919050565b60006020820190508181036000830152611a3481611797565b9050919050565b60006020820190508181036000830152611a54816117d7565b9050919050565b60006020820190508181036000830152611a7481611817565b9050919050565b60006020820190508181036000830152611a9481611857565b9050919050565b600061010082019050611ab16000830184611897565b92915050565b6000602082019050611acc6000830184611948565b92915050565b600061010082019050611ae8600083018b611948565b611af5602083018a61166a565b611b02604083018961166a565b611b0f6060830188611948565b611b1c6080830187611948565b611b2960a0830186611948565b611b3660c0830185611688565b611b4360e0830184611688565b9998505050505050505050565b6000604051905081810181811067ffffffffffffffff82111715611b7757611b76611dc5565b5b8060405250919050565b600067ffffffffffffffff821115611b9c57611b9b611dc5565b5b601f19601f8301169050602081019050919050565b600082825260208201905092915050565b6000611bcd82611ce1565b9150611bd883611ce1565b9250827fffffffffffffffffffffffffffffffffffffffffffffffffffffffffffffffff03821115611c0d57611c0c611d67565b5b828201905092915050565b6000611c2382611ce1565b9150611c2e83611ce1565b925082611c3e57611c3d611d96565b5b828204905092915050565b6000611c5482611ce1565b9150611c5f83611ce1565b9250817fffffffffffffffffffffffffffffffffffffffffffffffffffffffffffffffff0483118215151615611c9857611c97611d67565b5b828202905092915050565b6000611cae82611cc1565b9050919050565b60008115159050919050565b600073ffffffffffffffffffffffffffffffffffffffff82169050919050565b6000819050919050565b60005b83811015611d09578082015181840152602081019050611cee565b83811115611d18576000848401525b50505050565b6000611d2982611ce1565b91507fffffffffffffffffffffffffffffffffffffffffffffffffffffffffffffffff821415611d5c57611d5b611d67565b5b600182019050919050565b7f4e487b7100000000000000000000000000000000000000000000000000000000600052601160045260246000fd5b7f4e487b7100000000000000000000000000000000000000000000000000000000600052601260045260246000fd5b7f4e487b7100000000000000000000000000000000000000000000000000000000600052604160045260246000fd5b611dfd81611ca3565b8114611e0857600080fd5b50565b611e1481611cb5565b8114611e1f57600080fd5b50565b611e2b81611ce1565b8114611e3657600080fd5b5056fea2646970667358221220b0517713313ae42a3b748c07c93f47c3bde40014806946994eda7b14667f69cb64736f6c63430008000033",
  "immutableReferences": {},
  "source": "// SPDX-License-Identifier: MIT\r\npragma solidity ^0.8.0;\r\n\r\nimport \"./UserManagement.sol\";\r\nimport \"./CreditScoring.sol\";\r\nimport \"./FundManagement.sol\";\r\n\r\ncontract LoanContract {\r\n    struct Loan {\r\n        uint id;\r\n        address borrower;\r\n        address lender;\r\n        uint amount;\r\n        uint interest;\r\n        uint duration;\r\n        bool isFunded;\r\n        bool isRepaid;\r\n    }\r\n\r\n    uint public loanCount;\r\n    mapping(uint => Loan) public loans;\r\n\r\n    UserManagement userManagement;\r\n    CreditScoring creditScoring;\r\n    FundManagement fundManagement;\r\n\r\n    constructor(address _userManagement, address _creditScoring, address _fundManagement) {\r\n        userManagement = UserManagement(_userManagement);\r\n        creditScoring = CreditScoring(_creditScoring);\r\n        fundManagement = FundManagement(_fundManagement);\r\n    }\r\n\r\n    function requestLoan(uint _amount, uint _interest, uint _duration) public {\r\n        require(userManagement.getUser(msg.sender).isVerified, \"User not verified\");\r\n        loanCount++;\r\n        loans[loanCount] = Loan(loanCount, msg.sender, address(0), _amount, _interest, _duration, false, false);\r\n    }\r\n\r\n    function fundLoan(uint _loanId) public payable {\r\n        Loan storage loan = loans[_loanId];\r\n        require(!loan.isFunded, \"Loan already funded\");\r\n        require(msg.value == loan.amount, \"Incorrect amount sent\");\r\n\r\n        loan.lender = msg.sender;\r\n        loan.isFunded = true;\r\n\r\n        // Transfer funds to the borrower\r\n        fundManagement.depositFunds{value: msg.value}();\r\n        fundManagement.withdrawFunds(loan.amount);\r\n        payable(loan.borrower).transfer(loan.amount);\r\n    }\r\n\r\n    function repayLoan(uint _loanId) public payable {\r\n        Loan storage loan = loans[_loanId];\r\n        require(loan.isFunded, \"Loan not funded\");\r\n        require(!loan.isRepaid, \"Loan already repaid\");\r\n        require(msg.sender == loan.borrower, \"Only borrower can repay the loan\");\r\n        require(msg.value == loan.amount + (loan.amount * loan.interest / 100), \"Incorrect repayment amount\");\r\n\r\n        loan.isRepaid = true;\r\n\r\n        // Transfer repayment to the lender\r\n        fundManagement.depositFunds{value: msg.value}();\r\n        fundManagement.withdrawFunds(msg.value);\r\n        payable(loan.lender).transfer(msg.value);\r\n\r\n        // Update credit score\r\n        creditScoring.updateCreditScore(loan.borrower, creditScoring.getCreditScore(loan.borrower) + 1);\r\n    }\r\n\r\n    function createLoanOffer(uint _amount, uint _interest, uint _duration) public {\r\n        require(userManagement.getUser(msg.sender).isVerified, \"User not verified\");\r\n\r\n        loanCount++;\r\n        loans[loanCount] = Loan(loanCount, address(0), msg.sender, _amount, _interest, _duration, false, false);\r\n    }\r\n\r\n    function acceptLoanOffer(uint _loanId) public {\r\n        Loan storage loan = loans[_loanId];\r\n        require(!loan.isFunded, \"Loan already funded\");\r\n        require(loan.lender != address(0), \"Invalid loan offer\");\r\n\r\n        loan.borrower = msg.sender;\r\n        loan.isFunded = true;\r\n\r\n        // Transfer funds to the borrower\r\n        fundManagement.depositFunds{value: loan.amount}();\r\n        fundManagement.withdrawFunds(loan.amount);\r\n        payable(loan.borrower).transfer(loan.amount);\r\n    }\r\n\r\n    function getLoan(uint _loanId) public view returns (Loan memory) {\r\n        return loans[_loanId];\r\n    }\r\n}\r\n",
  "sourcePath": "C:\\Users\\jairo\\OneDrive\\Documents\\Q2 2024\\Vanguardia\\P2P-Lending\\microfinance-platform\\contracts\\LoanContract.sol",
  "compiler": {
    "name": "solc",
    "version": "0.8.0+commit.c7dfd78e.Emscripten.clang"
  },
  "schemaVersion": "3.4.16",
  "updatedAt": "2024-06-08T21:53:13.289Z",
  "networkType": "ethereum",
  "devdoc": {
    "kind": "dev",
    "methods": {},
    "version": 1
  },
  "userdoc": {
    "kind": "user",
    "methods": {},
    "version": 1
  }
}