{
  "contractName": "LoanContract",
  "abi": [
    {
      "inputs": [
        {
          "internalType": "address",
          "name": "_userManagement",
          "type": "address"
        },
        {
          "internalType": "address",
          "name": "_creditScoring",
          "type": "address"
        },
        {
          "internalType": "address",
          "name": "_fundManagement",
          "type": "address"
        }
      ],
      "stateMutability": "nonpayable",
      "type": "constructor"
    },
    {
      "anonymous": false,
      "inputs": [
        {
          "indexed": true,
          "internalType": "uint256",
          "name": "loanId",
          "type": "uint256"
        },
        {
          "indexed": true,
          "internalType": "address",
          "name": "lender",
          "type": "address"
        },
        {
          "indexed": false,
          "internalType": "uint256",
          "name": "amount",
          "type": "uint256"
        },
        {
          "indexed": false,
          "internalType": "uint256",
          "name": "interest",
          "type": "uint256"
        },
        {
          "indexed": false,
          "internalType": "uint256",
          "name": "duration",
          "type": "uint256"
        }
      ],
      "name": "LoanOfferCreated",
      "type": "event"
    },
    {
      "anonymous": false,
      "inputs": [
        {
          "indexed": true,
          "internalType": "uint256",
          "name": "loanId",
          "type": "uint256"
        },
        {
          "indexed": true,
          "internalType": "address",
          "name": "borrower",
          "type": "address"
        },
        {
          "indexed": false,
          "internalType": "uint256",
          "name": "amount",
          "type": "uint256"
        },
        {
          "indexed": false,
          "internalType": "uint256",
          "name": "interest",
          "type": "uint256"
        },
        {
          "indexed": false,
          "internalType": "uint256",
          "name": "duration",
          "type": "uint256"
        }
      ],
      "name": "LoanRequested",
      "type": "event"
    },
    {
      "inputs": [],
      "name": "loanCount",
      "outputs": [
        {
          "internalType": "uint256",
          "name": "",
          "type": "uint256"
        }
      ],
      "stateMutability": "view",
      "type": "function",
      "constant": true
    },
    {
      "inputs": [
        {
          "internalType": "uint256",
          "name": "",
          "type": "uint256"
        }
      ],
      "name": "loans",
      "outputs": [
        {
          "internalType": "uint256",
          "name": "id",
          "type": "uint256"
        },
        {
          "internalType": "address",
          "name": "borrower",
          "type": "address"
        },
        {
          "internalType": "address",
          "name": "lender",
          "type": "address"
        },
        {
          "internalType": "uint256",
          "name": "amount",
          "type": "uint256"
        },
        {
          "internalType": "uint256",
          "name": "interest",
          "type": "uint256"
        },
        {
          "internalType": "uint256",
          "name": "duration",
          "type": "uint256"
        },
        {
          "internalType": "bool",
          "name": "isFunded",
          "type": "bool"
        },
        {
          "internalType": "bool",
          "name": "isRepaid",
          "type": "bool"
        }
      ],
      "stateMutability": "view",
      "type": "function",
      "constant": true
    },
    {
      "inputs": [
        {
          "internalType": "uint256",
          "name": "_amount",
          "type": "uint256"
        },
        {
          "internalType": "uint256",
          "name": "_interest",
          "type": "uint256"
        },
        {
          "internalType": "uint256",
          "name": "_duration",
          "type": "uint256"
        }
      ],
      "name": "createLoanOffer",
      "outputs": [],
      "stateMutability": "nonpayable",
      "type": "function"
    },
    {
      "inputs": [
        {
          "internalType": "uint256",
          "name": "_amount",
          "type": "uint256"
        },
        {
          "internalType": "uint256",
          "name": "_interest",
          "type": "uint256"
        },
        {
          "internalType": "uint256",
          "name": "_duration",
          "type": "uint256"
        }
      ],
      "name": "requestLoan",
      "outputs": [],
      "stateMutability": "nonpayable",
      "type": "function"
    },
    {
      "inputs": [
        {
          "internalType": "uint256",
          "name": "_loanId",
          "type": "uint256"
        }
      ],
      "name": "fundLoan",
      "outputs": [],
      "stateMutability": "payable",
      "type": "function",
      "payable": true
    },
    {
      "inputs": [
        {
          "internalType": "uint256",
          "name": "_loanId",
          "type": "uint256"
        }
      ],
      "name": "repayLoan",
      "outputs": [],
      "stateMutability": "payable",
      "type": "function",
      "payable": true
    },
    {
      "inputs": [
        {
          "internalType": "uint256",
          "name": "_loanId",
          "type": "uint256"
        }
      ],
      "name": "acceptLoanOffer",
      "outputs": [],
      "stateMutability": "nonpayable",
      "type": "function"
    },
    {
      "inputs": [
        {
          "internalType": "uint256",
          "name": "_loanId",
          "type": "uint256"
        }
      ],
      "name": "getLoan",
      "outputs": [
        {
          "components": [
            {
              "internalType": "uint256",
              "name": "id",
              "type": "uint256"
            },
            {
              "internalType": "address",
              "name": "borrower",
              "type": "address"
            },
            {
              "internalType": "address",
              "name": "lender",
              "type": "address"
            },
            {
              "internalType": "uint256",
              "name": "amount",
              "type": "uint256"
            },
            {
              "internalType": "uint256",
              "name": "interest",
              "type": "uint256"
            },
            {
              "internalType": "uint256",
              "name": "duration",
              "type": "uint256"
            },
            {
              "internalType": "bool",
              "name": "isFunded",
              "type": "bool"
            },
            {
              "internalType": "bool",
              "name": "isRepaid",
              "type": "bool"
            }
          ],
          "internalType": "struct LoanContract.Loan",
          "name": "",
          "type": "tuple"
        }
      ],
      "stateMutability": "view",
      "type": "function",
      "constant": true
    }
  ],
  "bytecode": "0x60806040523480156200001157600080fd5b506040516200211e3803806200211e83398181016040528101906200003791906200011a565b82600260006101000a81548173ffffffffffffffffffffffffffffffffffffffff021916908373ffffffffffffffffffffffffffffffffffffffff16021790555081600360006101000a81548173ffffffffffffffffffffffffffffffffffffffff021916908373ffffffffffffffffffffffffffffffffffffffff16021790555080600460006101000a81548173ffffffffffffffffffffffffffffffffffffffff021916908373ffffffffffffffffffffffffffffffffffffffff160217905550505050620001be565b6000815190506200011481620001a4565b92915050565b6000806000606084860312156200013057600080fd5b6000620001408682870162000103565b9350506020620001538682870162000103565b9250506040620001668682870162000103565b9150509250925092565b60006200017d8262000184565b9050919050565b600073ffffffffffffffffffffffffffffffffffffffff82169050919050565b620001af8162000170565b8114620001bb57600080fd5b50565b611f5080620001ce6000396000f3fe60806040526004361061007b5760003560e01c8063ab7b1c891161004e578063ab7b1c891461012b578063ce63094d14610147578063e1ec3c6814610172578063edadbbfe146101b65761007b565b806321265d0e146100805780633a867c89146100a9578063504006ca146100d2578063846b909a1461010f575b600080fd5b34801561008c57600080fd5b506100a760048036038101906100a29190611664565b6101df565b005b3480156100b557600080fd5b506100d060048036038101906100cb91906116b6565b6104c7565b005b3480156100de57600080fd5b506100f960048036038101906100f49190611664565b6107a7565b6040516101069190611b45565b60405180910390f35b61012960048036038101906101249190611664565b6108df565b005b61014560048036038101906101409190611664565b610b75565b005b34801561015357600080fd5b5061015c61105a565b6040516101699190611b61565b60405180910390f35b34801561017e57600080fd5b5061019960048036038101906101949190611664565b611060565b6040516101ad989796959493929190611b7c565b60405180910390f35b3480156101c257600080fd5b506101dd60048036038101906101d891906116b6565b611102565b005b60006001600083815260200190815260200160002090508060060160009054906101000a900460ff1615610248576040517f08c379a000000000000000000000000000000000000000000000000000000000815260040161023f90611a45565b60405180910390fd5b600073ffffffffffffffffffffffffffffffffffffffff168160020160009054906101000a900473ffffffffffffffffffffffffffffffffffffffff1673ffffffffffffffffffffffffffffffffffffffff1614156102dc576040517f08c379a00000000000000000000000000000000000000000000000000000000081526004016102d390611b25565b60405180910390fd5b338160010160006101000a81548173ffffffffffffffffffffffffffffffffffffffff021916908373ffffffffffffffffffffffffffffffffffffffff16021790555060018160060160006101000a81548160ff021916908315150217905550600460009054906101000a900473ffffffffffffffffffffffffffffffffffffffff1673ffffffffffffffffffffffffffffffffffffffff1663e2c41dbc82600301546040518263ffffffff1660e01b81526004016000604051808303818588803b1580156103aa57600080fd5b505af11580156103be573d6000803e3d6000fd5b5050505050600460009054906101000a900473ffffffffffffffffffffffffffffffffffffffff1673ffffffffffffffffffffffffffffffffffffffff1663155dd5ee82600301546040518263ffffffff1660e01b81526004016104229190611b61565b600060405180830381600087803b15801561043c57600080fd5b505af1158015610450573d6000803e3d6000fd5b505050508060010160009054906101000a900473ffffffffffffffffffffffffffffffffffffffff1673ffffffffffffffffffffffffffffffffffffffff166108fc82600301549081150290604051600060405180830381858888f193505050501580156104c2573d6000803e3d6000fd5b505050565b600260009054906101000a900473ffffffffffffffffffffffffffffffffffffffff1673ffffffffffffffffffffffffffffffffffffffff16636f77926b336040518263ffffffff1660e01b81526004016105229190611a01565b60006040518083038186803b15801561053a57600080fd5b505afa15801561054e573d6000803e3d6000fd5b505050506040513d6000823e3d601f19601f820116820180604052508101906105779190611623565b60c001516105ba576040517f08c379a00000000000000000000000000000000000000000000000000000000081526004016105b190611b05565b60405180910390fd5b6000808154809291906105cc90611dff565b91905055506040518061010001604052806000548152602001600073ffffffffffffffffffffffffffffffffffffffff1681526020013373ffffffffffffffffffffffffffffffffffffffff1681526020018481526020018381526020018281526020016000151581526020016000151581525060016000805481526020019081526020016000206000820151816000015560208201518160010160006101000a81548173ffffffffffffffffffffffffffffffffffffffff021916908373ffffffffffffffffffffffffffffffffffffffff16021790555060408201518160020160006101000a81548173ffffffffffffffffffffffffffffffffffffffff021916908373ffffffffffffffffffffffffffffffffffffffff160217905550606082015181600301556080820151816004015560a0820151816005015560c08201518160060160006101000a81548160ff02191690831515021790555060e08201518160060160016101000a81548160ff0219169083151502179055509050503373ffffffffffffffffffffffffffffffffffffffff166000547f068be421395498b8f640e7d439ce7c3f676b5dae2f264a77494c0e737a0d851285858560405161079a93929190611bfa565b60405180910390a3505050565b6107af6113e2565b6001600083815260200190815260200160002060405180610100016040529081600082015481526020016001820160009054906101000a900473ffffffffffffffffffffffffffffffffffffffff1673ffffffffffffffffffffffffffffffffffffffff1673ffffffffffffffffffffffffffffffffffffffff1681526020016002820160009054906101000a900473ffffffffffffffffffffffffffffffffffffffff1673ffffffffffffffffffffffffffffffffffffffff1673ffffffffffffffffffffffffffffffffffffffff1681526020016003820154815260200160048201548152602001600582015481526020016006820160009054906101000a900460ff161515151581526020016006820160019054906101000a900460ff1615151515815250509050919050565b60006001600083815260200190815260200160002090508060060160009054906101000a900460ff1615610948576040517f08c379a000000000000000000000000000000000000000000000000000000000815260040161093f90611a45565b60405180910390fd5b8060030154341461098e576040517f08c379a000000000000000000000000000000000000000000000000000000000815260040161098590611a65565b60405180910390fd5b338160020160006101000a81548173ffffffffffffffffffffffffffffffffffffffff021916908373ffffffffffffffffffffffffffffffffffffffff16021790555060018160060160006101000a81548160ff021916908315150217905550600460009054906101000a900473ffffffffffffffffffffffffffffffffffffffff1673ffffffffffffffffffffffffffffffffffffffff1663e2c41dbc346040518263ffffffff1660e01b81526004016000604051808303818588803b158015610a5857600080fd5b505af1158015610a6c573d6000803e3d6000fd5b5050505050600460009054906101000a900473ffffffffffffffffffffffffffffffffffffffff1673ffffffffffffffffffffffffffffffffffffffff1663155dd5ee82600301546040518263ffffffff1660e01b8152600401610ad09190611b61565b600060405180830381600087803b158015610aea57600080fd5b505af1158015610afe573d6000803e3d6000fd5b505050508060010160009054906101000a900473ffffffffffffffffffffffffffffffffffffffff1673ffffffffffffffffffffffffffffffffffffffff166108fc82600301549081150290604051600060405180830381858888f19350505050158015610b70573d6000803e3d6000fd5b505050565b60006001600083815260200190815260200160002090508060060160009054906101000a900460ff16610bdd576040517f08c379a0000000000000000000000000000000000000000000000000000000008152600401610bd490611a85565b60405180910390fd5b8060060160019054906101000a900460ff1615610c2f576040517f08c379a0000000000000000000000000000000000000000000000000000000008152600401610c2690611ac5565b60405180910390fd5b8060010160009054906101000a900473ffffffffffffffffffffffffffffffffffffffff1673ffffffffffffffffffffffffffffffffffffffff163373ffffffffffffffffffffffffffffffffffffffff1614610cc1576040517f08c379a0000000000000000000000000000000000000000000000000000000008152600401610cb890611ae5565b60405180910390fd5b606481600401548260030154610cd79190611d2a565b610ce19190611cf9565b8160030154610cf09190611ca3565b3414610d31576040517f08c379a0000000000000000000000000000000000000000000000000000000008152600401610d2890611aa5565b60405180910390fd5b60018160060160016101000a81548160ff021916908315150217905550600460009054906101000a900473ffffffffffffffffffffffffffffffffffffffff1673ffffffffffffffffffffffffffffffffffffffff1663e2c41dbc346040518263ffffffff1660e01b81526004016000604051808303818588803b158015610db857600080fd5b505af1158015610dcc573d6000803e3d6000fd5b5050505050600460009054906101000a900473ffffffffffffffffffffffffffffffffffffffff1673ffffffffffffffffffffffffffffffffffffffff1663155dd5ee346040518263ffffffff1660e01b8152600401610e2c9190611b61565b600060405180830381600087803b158015610e4657600080fd5b505af1158015610e5a573d6000803e3d6000fd5b505050508060020160009054906101000a900473ffffffffffffffffffffffffffffffffffffffff1673ffffffffffffffffffffffffffffffffffffffff166108fc349081150290604051600060405180830381858888f19350505050158015610ec8573d6000803e3d6000fd5b50600360009054906101000a900473ffffffffffffffffffffffffffffffffffffffff1673ffffffffffffffffffffffffffffffffffffffff166365352f9d8260010160009054906101000a900473ffffffffffffffffffffffffffffffffffffffff166001600360009054906101000a900473ffffffffffffffffffffffffffffffffffffffff1673ffffffffffffffffffffffffffffffffffffffff1663d3dd2bdf8660010160009054906101000a900473ffffffffffffffffffffffffffffffffffffffff166040518263ffffffff1660e01b8152600401610fad9190611a01565b60206040518083038186803b158015610fc557600080fd5b505afa158015610fd9573d6000803e3d6000fd5b505050506040513d601f19601f82011682018060405250810190610ffd919061168d565b6110079190611ca3565b6040518363ffffffff1660e01b8152600401611024929190611a1c565b600060405180830381600087803b15801561103e57600080fd5b505af1158015611052573d6000803e3d6000fd5b505050505050565b60005481565b60016020528060005260406000206000915090508060000154908060010160009054906101000a900473ffffffffffffffffffffffffffffffffffffffff16908060020160009054906101000a900473ffffffffffffffffffffffffffffffffffffffff16908060030154908060040154908060050154908060060160009054906101000a900460ff16908060060160019054906101000a900460ff16905088565b600260009054906101000a900473ffffffffffffffffffffffffffffffffffffffff1673ffffffffffffffffffffffffffffffffffffffff16636f77926b336040518263ffffffff1660e01b815260040161115d9190611a01565b60006040518083038186803b15801561117557600080fd5b505afa158015611189573d6000803e3d6000fd5b505050506040513d6000823e3d601f19601f820116820180604052508101906111b29190611623565b60c001516111f5576040517f08c379a00000000000000000000000000000000000000000000000000000000081526004016111ec90611b05565b60405180910390fd5b60008081548092919061120790611dff565b919050555060405180610100016040528060005481526020013373ffffffffffffffffffffffffffffffffffffffff168152602001600073ffffffffffffffffffffffffffffffffffffffff1681526020018481526020018381526020018281526020016000151581526020016000151581525060016000805481526020019081526020016000206000820151816000015560208201518160010160006101000a81548173ffffffffffffffffffffffffffffffffffffffff021916908373ffffffffffffffffffffffffffffffffffffffff16021790555060408201518160020160006101000a81548173ffffffffffffffffffffffffffffffffffffffff021916908373ffffffffffffffffffffffffffffffffffffffff160217905550606082015181600301556080820151816004015560a0820151816005015560c08201518160060160006101000a81548160ff02191690831515021790555060e08201518160060160016101000a81548160ff0219169083151502179055509050503373ffffffffffffffffffffffffffffffffffffffff166000547ff6cc19e46a340ab5888d736bfc79aef72ae92d12d7b76319d72b0abc170868e68585856040516113d593929190611bfa565b60405180910390a3505050565b60405180610100016040528060008152602001600073ffffffffffffffffffffffffffffffffffffffff168152602001600073ffffffffffffffffffffffffffffffffffffffff1681526020016000815260200160008152602001600081526020016000151581526020016000151581525090565b600061146a61146584611c62565b611c31565b90508281526020810184848401111561148257600080fd5b61148d848285611dcc565b509392505050565b6000815190506114a481611ed5565b92915050565b6000815190506114b981611eec565b92915050565b600082601f8301126114d057600080fd5b81516114e0848260208601611457565b91505092915050565b600060e082840312156114fb57600080fd5b61150560e0611c31565b9050600061151584828501611495565b600083015250602082015167ffffffffffffffff81111561153557600080fd5b611541848285016114bf565b602083015250604082015167ffffffffffffffff81111561156157600080fd5b61156d848285016114bf565b604083015250606082015167ffffffffffffffff81111561158d57600080fd5b611599848285016114bf565b606083015250608082015167ffffffffffffffff8111156115b957600080fd5b6115c5848285016114bf565b60808301525060a06115d98482850161160e565b60a08301525060c06115ed848285016114aa565b60c08301525092915050565b60008135905061160881611f03565b92915050565b60008151905061161d81611f03565b92915050565b60006020828403121561163557600080fd5b600082015167ffffffffffffffff81111561164f57600080fd5b61165b848285016114e9565b91505092915050565b60006020828403121561167657600080fd5b6000611684848285016115f9565b91505092915050565b60006020828403121561169f57600080fd5b60006116ad8482850161160e565b91505092915050565b6000806000606084860312156116cb57600080fd5b60006116d9868287016115f9565b93505060206116ea868287016115f9565b92505060406116fb868287016115f9565b9150509250925092565b61170e81611d84565b82525050565b61171d81611d84565b82525050565b61172c81611d96565b82525050565b61173b81611d96565b82525050565b600061174e601383611c92565b91507f4c6f616e20616c72656164792066756e646564000000000000000000000000006000830152602082019050919050565b600061178e601583611c92565b91507f496e636f727265637420616d6f756e742073656e7400000000000000000000006000830152602082019050919050565b60006117ce600f83611c92565b91507f4c6f616e206e6f742066756e64656400000000000000000000000000000000006000830152602082019050919050565b600061180e601a83611c92565b91507f496e636f72726563742072657061796d656e7420616d6f756e740000000000006000830152602082019050919050565b600061184e601383611c92565b91507f4c6f616e20616c726561647920726570616964000000000000000000000000006000830152602082019050919050565b600061188e602083611c92565b91507f4f6e6c7920626f72726f7765722063616e20726570617920746865206c6f616e6000830152602082019050919050565b60006118ce601183611c92565b91507f55736572206e6f742076657269666965640000000000000000000000000000006000830152602082019050919050565b600061190e601283611c92565b91507f496e76616c6964206c6f616e206f6666657200000000000000000000000000006000830152602082019050919050565b6101008201600082015161195860008501826119e3565b50602082015161196b6020850182611705565b50604082015161197e6040850182611705565b50606082015161199160608501826119e3565b5060808201516119a460808501826119e3565b5060a08201516119b760a08501826119e3565b5060c08201516119ca60c0850182611723565b5060e08201516119dd60e0850182611723565b50505050565b6119ec81611dc2565b82525050565b6119fb81611dc2565b82525050565b6000602082019050611a166000830184611714565b92915050565b6000604082019050611a316000830185611714565b611a3e60208301846119f2565b9392505050565b60006020820190508181036000830152611a5e81611741565b9050919050565b60006020820190508181036000830152611a7e81611781565b9050919050565b60006020820190508181036000830152611a9e816117c1565b9050919050565b60006020820190508181036000830152611abe81611801565b9050919050565b60006020820190508181036000830152611ade81611841565b9050919050565b60006020820190508181036000830152611afe81611881565b9050919050565b60006020820190508181036000830152611b1e816118c1565b9050919050565b60006020820190508181036000830152611b3e81611901565b9050919050565b600061010082019050611b5b6000830184611941565b92915050565b6000602082019050611b7660008301846119f2565b92915050565b600061010082019050611b92600083018b6119f2565b611b9f602083018a611714565b611bac6040830189611714565b611bb960608301886119f2565b611bc660808301876119f2565b611bd360a08301866119f2565b611be060c0830185611732565b611bed60e0830184611732565b9998505050505050505050565b6000606082019050611c0f60008301866119f2565b611c1c60208301856119f2565b611c2960408301846119f2565b949350505050565b6000604051905081810181811067ffffffffffffffff82111715611c5857611c57611ea6565b5b8060405250919050565b600067ffffffffffffffff821115611c7d57611c7c611ea6565b5b601f19601f8301169050602081019050919050565b600082825260208201905092915050565b6000611cae82611dc2565b9150611cb983611dc2565b9250827fffffffffffffffffffffffffffffffffffffffffffffffffffffffffffffffff03821115611cee57611ced611e48565b5b828201905092915050565b6000611d0482611dc2565b9150611d0f83611dc2565b925082611d1f57611d1e611e77565b5b828204905092915050565b6000611d3582611dc2565b9150611d4083611dc2565b9250817fffffffffffffffffffffffffffffffffffffffffffffffffffffffffffffffff0483118215151615611d7957611d78611e48565b5b828202905092915050565b6000611d8f82611da2565b9050919050565b60008115159050919050565b600073ffffffffffffffffffffffffffffffffffffffff82169050919050565b6000819050919050565b60005b83811015611dea578082015181840152602081019050611dcf565b83811115611df9576000848401525b50505050565b6000611e0a82611dc2565b91507fffffffffffffffffffffffffffffffffffffffffffffffffffffffffffffffff821415611e3d57611e3c611e48565b5b600182019050919050565b7f4e487b7100000000000000000000000000000000000000000000000000000000600052601160045260246000fd5b7f4e487b7100000000000000000000000000000000000000000000000000000000600052601260045260246000fd5b7f4e487b7100000000000000000000000000000000000000000000000000000000600052604160045260246000fd5b611ede81611d84565b8114611ee957600080fd5b50565b611ef581611d96565b8114611f0057600080fd5b50565b611f0c81611dc2565b8114611f1757600080fd5b5056fea26469706673582212206402a9df375766e197cbcb67d413b0752762979e7815bf5003dfe0ab5903790664736f6c63430008000033",
  "immutableReferences": {},
  "source": "// SPDX-License-Identifier: MIT\r\npragma solidity ^0.8.0;\r\n\r\nimport \"./UserManagement.sol\";\r\nimport \"./CreditScoring.sol\";\r\nimport \"./FundManagement.sol\";\r\n\r\ncontract LoanContract {\r\n    struct Loan {\r\n        uint id;\r\n        address borrower;\r\n        address lender;\r\n        uint amount;\r\n        uint interest;\r\n        uint duration;\r\n        bool isFunded;\r\n        bool isRepaid;\r\n    }\r\n\r\n    uint public loanCount;\r\n    mapping(uint => Loan) public loans;\r\n\r\n    event LoanOfferCreated(uint indexed loanId, address indexed lender, uint amount, uint interest, uint duration);\r\n    event LoanRequested(uint indexed loanId, address indexed borrower, uint amount, uint interest, uint duration);\r\n\r\n    UserManagement userManagement;\r\n    CreditScoring creditScoring;\r\n    FundManagement fundManagement;\r\n\r\n    constructor(address _userManagement, address _creditScoring, address _fundManagement) {\r\n        userManagement = UserManagement(_userManagement);\r\n        creditScoring = CreditScoring(_creditScoring);\r\n        fundManagement = FundManagement(_fundManagement);\r\n    }\r\n\r\n    function createLoanOffer(uint _amount, uint _interest, uint _duration) public {\r\n        require(userManagement.getUser(msg.sender).isVerified, \"User not verified\");\r\n\r\n        loanCount++;\r\n        loans[loanCount] = Loan(loanCount, address(0), msg.sender, _amount, _interest, _duration, false, false);\r\n\r\n        emit LoanOfferCreated(loanCount, msg.sender, _amount, _interest, _duration);\r\n    }\r\n\r\n    function requestLoan(uint _amount, uint _interest, uint _duration) public {\r\n        require(userManagement.getUser(msg.sender).isVerified, \"User not verified\");\r\n        \r\n        loanCount++;\r\n        loans[loanCount] = Loan(loanCount, msg.sender, address(0), _amount, _interest, _duration, false, false);\r\n\r\n        emit LoanRequested(loanCount, msg.sender, _amount, _interest, _duration);\r\n    }\r\n\r\n    function fundLoan(uint _loanId) public payable {\r\n        Loan storage loan = loans[_loanId];\r\n        require(!loan.isFunded, \"Loan already funded\");\r\n        require(msg.value == loan.amount, \"Incorrect amount sent\");\r\n\r\n        loan.lender = msg.sender;\r\n        loan.isFunded = true;\r\n\r\n        // Transfer funds to the borrower\r\n        fundManagement.depositFunds{value: msg.value}();\r\n        fundManagement.withdrawFunds(loan.amount);\r\n        payable(loan.borrower).transfer(loan.amount);\r\n    }\r\n\r\n    function repayLoan(uint _loanId) public payable {\r\n        Loan storage loan = loans[_loanId];\r\n        require(loan.isFunded, \"Loan not funded\");\r\n        require(!loan.isRepaid, \"Loan already repaid\");\r\n        require(msg.sender == loan.borrower, \"Only borrower can repay the loan\");\r\n        require(msg.value == loan.amount + (loan.amount * loan.interest / 100), \"Incorrect repayment amount\");\r\n\r\n        loan.isRepaid = true;\r\n\r\n        // Transfer repayment to the lender\r\n        fundManagement.depositFunds{value: msg.value}();\r\n        fundManagement.withdrawFunds(msg.value);\r\n        payable(loan.lender).transfer(msg.value);\r\n\r\n        // Update credit score\r\n        creditScoring.updateCreditScore(loan.borrower, creditScoring.getCreditScore(loan.borrower) + 1);\r\n    }\r\n\r\n    function acceptLoanOffer(uint _loanId) public {\r\n        Loan storage loan = loans[_loanId];\r\n        require(!loan.isFunded, \"Loan already funded\");\r\n        require(loan.lender != address(0), \"Invalid loan offer\");\r\n\r\n        loan.borrower = msg.sender;\r\n        loan.isFunded = true;\r\n\r\n        // Transfer funds to the borrower\r\n        fundManagement.depositFunds{value: loan.amount}();\r\n        fundManagement.withdrawFunds(loan.amount);\r\n        payable(loan.borrower).transfer(loan.amount);\r\n    }\r\n\r\n    function getLoan(uint _loanId) public view returns (Loan memory) {\r\n        return loans[_loanId];\r\n    }\r\n}\r\n",
  "sourcePath": "C:\\Users\\jairo\\OneDrive\\Documents\\Q2 2024\\Vanguardia\\P2P-Lending\\microfinance-platform\\contracts\\LoanContract.sol",
  "compiler": {
    "name": "solc",
    "version": "0.8.0+commit.c7dfd78e.Emscripten.clang"
  },
  "schemaVersion": "3.4.16",
  "updatedAt": "2024-06-09T01:54:57.636Z",
  "networkType": "ethereum",
  "devdoc": {
    "kind": "dev",
    "methods": {},
    "version": 1
  },
  "userdoc": {
    "kind": "user",
    "methods": {},
    "version": 1
  }
}