{
  "contractName": "LoanContract",
  "abi": [
    {
      "inputs": [
        {
          "internalType": "address",
          "name": "_userManagement",
          "type": "address"
        },
        {
          "internalType": "address",
          "name": "_creditScoring",
          "type": "address"
        },
        {
          "internalType": "address",
          "name": "_fundManagement",
          "type": "address"
        }
      ],
      "stateMutability": "nonpayable",
      "type": "constructor"
    },
    {
      "anonymous": false,
      "inputs": [
        {
          "indexed": true,
          "internalType": "uint256",
          "name": "loanId",
          "type": "uint256"
        }
      ],
      "name": "LoanDeleted",
      "type": "event"
    },
    {
      "anonymous": false,
      "inputs": [
        {
          "indexed": true,
          "internalType": "uint256",
          "name": "loanId",
          "type": "uint256"
        },
        {
          "indexed": true,
          "internalType": "address",
          "name": "lender",
          "type": "address"
        },
        {
          "indexed": false,
          "internalType": "uint256",
          "name": "amount",
          "type": "uint256"
        },
        {
          "indexed": false,
          "internalType": "uint256",
          "name": "interest",
          "type": "uint256"
        },
        {
          "indexed": false,
          "internalType": "uint256",
          "name": "duration",
          "type": "uint256"
        }
      ],
      "name": "LoanOfferCreated",
      "type": "event"
    },
    {
      "anonymous": false,
      "inputs": [
        {
          "indexed": true,
          "internalType": "uint256",
          "name": "loanId",
          "type": "uint256"
        },
        {
          "indexed": true,
          "internalType": "address",
          "name": "borrower",
          "type": "address"
        },
        {
          "indexed": false,
          "internalType": "uint256",
          "name": "amount",
          "type": "uint256"
        },
        {
          "indexed": false,
          "internalType": "uint256",
          "name": "interest",
          "type": "uint256"
        },
        {
          "indexed": false,
          "internalType": "uint256",
          "name": "duration",
          "type": "uint256"
        }
      ],
      "name": "LoanRequested",
      "type": "event"
    },
    {
      "inputs": [],
      "name": "loanCount",
      "outputs": [
        {
          "internalType": "uint256",
          "name": "",
          "type": "uint256"
        }
      ],
      "stateMutability": "view",
      "type": "function",
      "constant": true
    },
    {
      "inputs": [
        {
          "internalType": "uint256",
          "name": "",
          "type": "uint256"
        }
      ],
      "name": "loans",
      "outputs": [
        {
          "internalType": "uint256",
          "name": "id",
          "type": "uint256"
        },
        {
          "internalType": "address",
          "name": "borrower",
          "type": "address"
        },
        {
          "internalType": "address",
          "name": "lender",
          "type": "address"
        },
        {
          "internalType": "uint256",
          "name": "amount",
          "type": "uint256"
        },
        {
          "internalType": "uint256",
          "name": "interest",
          "type": "uint256"
        },
        {
          "internalType": "uint256",
          "name": "duration",
          "type": "uint256"
        },
        {
          "internalType": "bool",
          "name": "isFunded",
          "type": "bool"
        },
        {
          "internalType": "bool",
          "name": "isRepaid",
          "type": "bool"
        }
      ],
      "stateMutability": "view",
      "type": "function",
      "constant": true
    },
    {
      "inputs": [
        {
          "internalType": "uint256",
          "name": "_amount",
          "type": "uint256"
        },
        {
          "internalType": "uint256",
          "name": "_interest",
          "type": "uint256"
        },
        {
          "internalType": "uint256",
          "name": "_duration",
          "type": "uint256"
        }
      ],
      "name": "createLoanOffer",
      "outputs": [],
      "stateMutability": "nonpayable",
      "type": "function"
    },
    {
      "inputs": [
        {
          "internalType": "uint256",
          "name": "_amount",
          "type": "uint256"
        },
        {
          "internalType": "uint256",
          "name": "_interest",
          "type": "uint256"
        },
        {
          "internalType": "uint256",
          "name": "_duration",
          "type": "uint256"
        }
      ],
      "name": "requestLoan",
      "outputs": [],
      "stateMutability": "nonpayable",
      "type": "function"
    },
    {
      "inputs": [
        {
          "internalType": "uint256",
          "name": "_loanId",
          "type": "uint256"
        }
      ],
      "name": "fundLoan",
      "outputs": [],
      "stateMutability": "payable",
      "type": "function",
      "payable": true
    },
    {
      "inputs": [
        {
          "internalType": "uint256",
          "name": "_loanId",
          "type": "uint256"
        }
      ],
      "name": "repayLoan",
      "outputs": [],
      "stateMutability": "payable",
      "type": "function",
      "payable": true
    },
    {
      "inputs": [
        {
          "internalType": "uint256",
          "name": "_loanId",
          "type": "uint256"
        }
      ],
      "name": "acceptLoanOffer",
      "outputs": [],
      "stateMutability": "nonpayable",
      "type": "function"
    },
    {
      "inputs": [
        {
          "internalType": "uint256",
          "name": "_loanId",
          "type": "uint256"
        }
      ],
      "name": "deleteLoan",
      "outputs": [],
      "stateMutability": "nonpayable",
      "type": "function"
    },
    {
      "inputs": [
        {
          "internalType": "uint256",
          "name": "_loanId",
          "type": "uint256"
        }
      ],
      "name": "getLoan",
      "outputs": [
        {
          "components": [
            {
              "internalType": "uint256",
              "name": "id",
              "type": "uint256"
            },
            {
              "internalType": "address",
              "name": "borrower",
              "type": "address"
            },
            {
              "internalType": "address",
              "name": "lender",
              "type": "address"
            },
            {
              "internalType": "uint256",
              "name": "amount",
              "type": "uint256"
            },
            {
              "internalType": "uint256",
              "name": "interest",
              "type": "uint256"
            },
            {
              "internalType": "uint256",
              "name": "duration",
              "type": "uint256"
            },
            {
              "internalType": "bool",
              "name": "isFunded",
              "type": "bool"
            },
            {
              "internalType": "bool",
              "name": "isRepaid",
              "type": "bool"
            }
          ],
          "internalType": "struct LoanContract.Loan",
          "name": "",
          "type": "tuple"
        }
      ],
      "stateMutability": "view",
      "type": "function",
      "constant": true
    }
  ],
  "bytecode": "0x60806040523480156200001157600080fd5b506040516200246a3803806200246a83398181016040528101906200003791906200011a565b82600260006101000a81548173ffffffffffffffffffffffffffffffffffffffff021916908373ffffffffffffffffffffffffffffffffffffffff16021790555081600360006101000a81548173ffffffffffffffffffffffffffffffffffffffff021916908373ffffffffffffffffffffffffffffffffffffffff16021790555080600460006101000a81548173ffffffffffffffffffffffffffffffffffffffff021916908373ffffffffffffffffffffffffffffffffffffffff160217905550505050620001be565b6000815190506200011481620001a4565b92915050565b6000806000606084860312156200013057600080fd5b6000620001408682870162000103565b9350506020620001538682870162000103565b9250506040620001668682870162000103565b9150509250925092565b60006200017d8262000184565b9050919050565b600073ffffffffffffffffffffffffffffffffffffffff82169050919050565b620001af8162000170565b8114620001bb57600080fd5b50565b61229c80620001ce6000396000f3fe6080604052600436106100865760003560e01c8063846b909a11610059578063846b909a14610143578063ab7b1c891461015f578063ce63094d1461017b578063e1ec3c68146101a6578063edadbbfe146101ea57610086565b806321265d0e1461008b5780632fb1df85146100b45780633a867c89146100dd578063504006ca14610106575b600080fd5b34801561009757600080fd5b506100b260048036038101906100ad91906118ca565b610213565b005b3480156100c057600080fd5b506100db60048036038101906100d691906118ca565b6104fb565b005b3480156100e957600080fd5b5061010460048036038101906100ff919061191c565b61072d565b005b34801561011257600080fd5b5061012d600480360381019061012891906118ca565b610a0d565b60405161013a9190611e91565b60405180910390f35b61015d600480360381019061015891906118ca565b610b45565b005b610179600480360381019061017491906118ca565b610ddb565b005b34801561018757600080fd5b506101906112c0565b60405161019d9190611ead565b60405180910390f35b3480156101b257600080fd5b506101cd60048036038101906101c891906118ca565b6112c6565b6040516101e1989796959493929190611ec8565b60405180910390f35b3480156101f657600080fd5b50610211600480360381019061020c919061191c565b611368565b005b60006001600083815260200190815260200160002090508060060160009054906101000a900460ff161561027c576040517f08c379a000000000000000000000000000000000000000000000000000000000815260040161027390611d51565b60405180910390fd5b600073ffffffffffffffffffffffffffffffffffffffff168160020160009054906101000a900473ffffffffffffffffffffffffffffffffffffffff1673ffffffffffffffffffffffffffffffffffffffff161415610310576040517f08c379a000000000000000000000000000000000000000000000000000000000815260040161030790611e71565b60405180910390fd5b338160010160006101000a81548173ffffffffffffffffffffffffffffffffffffffff021916908373ffffffffffffffffffffffffffffffffffffffff16021790555060018160060160006101000a81548160ff021916908315150217905550600460009054906101000a900473ffffffffffffffffffffffffffffffffffffffff1673ffffffffffffffffffffffffffffffffffffffff1663e2c41dbc82600301546040518263ffffffff1660e01b81526004016000604051808303818588803b1580156103de57600080fd5b505af11580156103f2573d6000803e3d6000fd5b5050505050600460009054906101000a900473ffffffffffffffffffffffffffffffffffffffff1673ffffffffffffffffffffffffffffffffffffffff1663155dd5ee82600301546040518263ffffffff1660e01b81526004016104569190611ead565b600060405180830381600087803b15801561047057600080fd5b505af1158015610484573d6000803e3d6000fd5b505050508060010160009054906101000a900473ffffffffffffffffffffffffffffffffffffffff1673ffffffffffffffffffffffffffffffffffffffff166108fc82600301549081150290604051600060405180830381858888f193505050501580156104f6573d6000803e3d6000fd5b505050565b60006001600083815260200190815260200160002090508060010160009054906101000a900473ffffffffffffffffffffffffffffffffffffffff1673ffffffffffffffffffffffffffffffffffffffff163373ffffffffffffffffffffffffffffffffffffffff1614806105bf57508060020160009054906101000a900473ffffffffffffffffffffffffffffffffffffffff1673ffffffffffffffffffffffffffffffffffffffff163373ffffffffffffffffffffffffffffffffffffffff16145b6105fe576040517f08c379a00000000000000000000000000000000000000000000000000000000081526004016105f590611dd1565b60405180910390fd5b8060060160009054906101000a900460ff1615610650576040517f08c379a000000000000000000000000000000000000000000000000000000000815260040161064790611e31565b60405180910390fd5b600160008381526020019081526020016000206000808201600090556001820160006101000a81549073ffffffffffffffffffffffffffffffffffffffff02191690556002820160006101000a81549073ffffffffffffffffffffffffffffffffffffffff02191690556003820160009055600482016000905560058201600090556006820160006101000a81549060ff02191690556006820160016101000a81549060ff02191690555050817fd81c963a5d7ec66c3cf064397f432633dc7cf5db7db2197eb8ae321b2aa996b660405160405180910390a25050565b600260009054906101000a900473ffffffffffffffffffffffffffffffffffffffff1673ffffffffffffffffffffffffffffffffffffffff16636f77926b336040518263ffffffff1660e01b81526004016107889190611d0d565b60006040518083038186803b1580156107a057600080fd5b505afa1580156107b4573d6000803e3d6000fd5b505050506040513d6000823e3d601f19601f820116820180604052508101906107dd9190611889565b60c00151610820576040517f08c379a000000000000000000000000000000000000000000000000000000000815260040161081790611e51565b60405180910390fd5b6000808154809291906108329061214b565b91905055506040518061010001604052806000548152602001600073ffffffffffffffffffffffffffffffffffffffff1681526020013373ffffffffffffffffffffffffffffffffffffffff1681526020018481526020018381526020018281526020016000151581526020016000151581525060016000805481526020019081526020016000206000820151816000015560208201518160010160006101000a81548173ffffffffffffffffffffffffffffffffffffffff021916908373ffffffffffffffffffffffffffffffffffffffff16021790555060408201518160020160006101000a81548173ffffffffffffffffffffffffffffffffffffffff021916908373ffffffffffffffffffffffffffffffffffffffff160217905550606082015181600301556080820151816004015560a0820151816005015560c08201518160060160006101000a81548160ff02191690831515021790555060e08201518160060160016101000a81548160ff0219169083151502179055509050503373ffffffffffffffffffffffffffffffffffffffff166000547f068be421395498b8f640e7d439ce7c3f676b5dae2f264a77494c0e737a0d8512858585604051610a0093929190611f46565b60405180910390a3505050565b610a15611648565b6001600083815260200190815260200160002060405180610100016040529081600082015481526020016001820160009054906101000a900473ffffffffffffffffffffffffffffffffffffffff1673ffffffffffffffffffffffffffffffffffffffff1673ffffffffffffffffffffffffffffffffffffffff1681526020016002820160009054906101000a900473ffffffffffffffffffffffffffffffffffffffff1673ffffffffffffffffffffffffffffffffffffffff1673ffffffffffffffffffffffffffffffffffffffff1681526020016003820154815260200160048201548152602001600582015481526020016006820160009054906101000a900460ff161515151581526020016006820160019054906101000a900460ff1615151515815250509050919050565b60006001600083815260200190815260200160002090508060060160009054906101000a900460ff1615610bae576040517f08c379a0000000000000000000000000000000000000000000000000000000008152600401610ba590611d51565b60405180910390fd5b80600301543414610bf4576040517f08c379a0000000000000000000000000000000000000000000000000000000008152600401610beb90611d71565b60405180910390fd5b338160020160006101000a81548173ffffffffffffffffffffffffffffffffffffffff021916908373ffffffffffffffffffffffffffffffffffffffff16021790555060018160060160006101000a81548160ff021916908315150217905550600460009054906101000a900473ffffffffffffffffffffffffffffffffffffffff1673ffffffffffffffffffffffffffffffffffffffff1663e2c41dbc346040518263ffffffff1660e01b81526004016000604051808303818588803b158015610cbe57600080fd5b505af1158015610cd2573d6000803e3d6000fd5b5050505050600460009054906101000a900473ffffffffffffffffffffffffffffffffffffffff1673ffffffffffffffffffffffffffffffffffffffff1663155dd5ee82600301546040518263ffffffff1660e01b8152600401610d369190611ead565b600060405180830381600087803b158015610d5057600080fd5b505af1158015610d64573d6000803e3d6000fd5b505050508060010160009054906101000a900473ffffffffffffffffffffffffffffffffffffffff1673ffffffffffffffffffffffffffffffffffffffff166108fc82600301549081150290604051600060405180830381858888f19350505050158015610dd6573d6000803e3d6000fd5b505050565b60006001600083815260200190815260200160002090508060060160009054906101000a900460ff16610e43576040517f08c379a0000000000000000000000000000000000000000000000000000000008152600401610e3a90611d91565b60405180910390fd5b8060060160019054906101000a900460ff1615610e95576040517f08c379a0000000000000000000000000000000000000000000000000000000008152600401610e8c90611df1565b60405180910390fd5b8060010160009054906101000a900473ffffffffffffffffffffffffffffffffffffffff1673ffffffffffffffffffffffffffffffffffffffff163373ffffffffffffffffffffffffffffffffffffffff1614610f27576040517f08c379a0000000000000000000000000000000000000000000000000000000008152600401610f1e90611e11565b60405180910390fd5b606481600401548260030154610f3d9190612076565b610f479190612045565b8160030154610f569190611fef565b3414610f97576040517f08c379a0000000000000000000000000000000000000000000000000000000008152600401610f8e90611db1565b60405180910390fd5b60018160060160016101000a81548160ff021916908315150217905550600460009054906101000a900473ffffffffffffffffffffffffffffffffffffffff1673ffffffffffffffffffffffffffffffffffffffff1663e2c41dbc346040518263ffffffff1660e01b81526004016000604051808303818588803b15801561101e57600080fd5b505af1158015611032573d6000803e3d6000fd5b5050505050600460009054906101000a900473ffffffffffffffffffffffffffffffffffffffff1673ffffffffffffffffffffffffffffffffffffffff1663155dd5ee346040518263ffffffff1660e01b81526004016110929190611ead565b600060405180830381600087803b1580156110ac57600080fd5b505af11580156110c0573d6000803e3d6000fd5b505050508060020160009054906101000a900473ffffffffffffffffffffffffffffffffffffffff1673ffffffffffffffffffffffffffffffffffffffff166108fc349081150290604051600060405180830381858888f1935050505015801561112e573d6000803e3d6000fd5b50600360009054906101000a900473ffffffffffffffffffffffffffffffffffffffff1673ffffffffffffffffffffffffffffffffffffffff166365352f9d8260010160009054906101000a900473ffffffffffffffffffffffffffffffffffffffff166001600360009054906101000a900473ffffffffffffffffffffffffffffffffffffffff1673ffffffffffffffffffffffffffffffffffffffff1663d3dd2bdf8660010160009054906101000a900473ffffffffffffffffffffffffffffffffffffffff166040518263ffffffff1660e01b81526004016112139190611d0d565b60206040518083038186803b15801561122b57600080fd5b505afa15801561123f573d6000803e3d6000fd5b505050506040513d601f19601f8201168201806040525081019061126391906118f3565b61126d9190611fef565b6040518363ffffffff1660e01b815260040161128a929190611d28565b600060405180830381600087803b1580156112a457600080fd5b505af11580156112b8573d6000803e3d6000fd5b505050505050565b60005481565b60016020528060005260406000206000915090508060000154908060010160009054906101000a900473ffffffffffffffffffffffffffffffffffffffff16908060020160009054906101000a900473ffffffffffffffffffffffffffffffffffffffff16908060030154908060040154908060050154908060060160009054906101000a900460ff16908060060160019054906101000a900460ff16905088565b600260009054906101000a900473ffffffffffffffffffffffffffffffffffffffff1673ffffffffffffffffffffffffffffffffffffffff16636f77926b336040518263ffffffff1660e01b81526004016113c39190611d0d565b60006040518083038186803b1580156113db57600080fd5b505afa1580156113ef573d6000803e3d6000fd5b505050506040513d6000823e3d601f19601f820116820180604052508101906114189190611889565b60c0015161145b576040517f08c379a000000000000000000000000000000000000000000000000000000000815260040161145290611e51565b60405180910390fd5b60008081548092919061146d9061214b565b919050555060405180610100016040528060005481526020013373ffffffffffffffffffffffffffffffffffffffff168152602001600073ffffffffffffffffffffffffffffffffffffffff1681526020018481526020018381526020018281526020016000151581526020016000151581525060016000805481526020019081526020016000206000820151816000015560208201518160010160006101000a81548173ffffffffffffffffffffffffffffffffffffffff021916908373ffffffffffffffffffffffffffffffffffffffff16021790555060408201518160020160006101000a81548173ffffffffffffffffffffffffffffffffffffffff021916908373ffffffffffffffffffffffffffffffffffffffff160217905550606082015181600301556080820151816004015560a0820151816005015560c08201518160060160006101000a81548160ff02191690831515021790555060e08201518160060160016101000a81548160ff0219169083151502179055509050503373ffffffffffffffffffffffffffffffffffffffff166000547ff6cc19e46a340ab5888d736bfc79aef72ae92d12d7b76319d72b0abc170868e685858560405161163b93929190611f46565b60405180910390a3505050565b60405180610100016040528060008152602001600073ffffffffffffffffffffffffffffffffffffffff168152602001600073ffffffffffffffffffffffffffffffffffffffff1681526020016000815260200160008152602001600081526020016000151581526020016000151581525090565b60006116d06116cb84611fae565b611f7d565b9050828152602081018484840111156116e857600080fd5b6116f3848285612118565b509392505050565b60008151905061170a81612221565b92915050565b60008151905061171f81612238565b92915050565b600082601f83011261173657600080fd5b81516117468482602086016116bd565b91505092915050565b600060e0828403121561176157600080fd5b61176b60e0611f7d565b9050600061177b848285016116fb565b600083015250602082015167ffffffffffffffff81111561179b57600080fd5b6117a784828501611725565b602083015250604082015167ffffffffffffffff8111156117c757600080fd5b6117d384828501611725565b604083015250606082015167ffffffffffffffff8111156117f357600080fd5b6117ff84828501611725565b606083015250608082015167ffffffffffffffff81111561181f57600080fd5b61182b84828501611725565b60808301525060a061183f84828501611874565b60a08301525060c061185384828501611710565b60c08301525092915050565b60008135905061186e8161224f565b92915050565b6000815190506118838161224f565b92915050565b60006020828403121561189b57600080fd5b600082015167ffffffffffffffff8111156118b557600080fd5b6118c18482850161174f565b91505092915050565b6000602082840312156118dc57600080fd5b60006118ea8482850161185f565b91505092915050565b60006020828403121561190557600080fd5b600061191384828501611874565b91505092915050565b60008060006060848603121561193157600080fd5b600061193f8682870161185f565b93505060206119508682870161185f565b92505060406119618682870161185f565b9150509250925092565b611974816120d0565b82525050565b611983816120d0565b82525050565b611992816120e2565b82525050565b6119a1816120e2565b82525050565b60006119b4601383611fde565b91507f4c6f616e20616c72656164792066756e646564000000000000000000000000006000830152602082019050919050565b60006119f4601583611fde565b91507f496e636f727265637420616d6f756e742073656e7400000000000000000000006000830152602082019050919050565b6000611a34600f83611fde565b91507f4c6f616e206e6f742066756e64656400000000000000000000000000000000006000830152602082019050919050565b6000611a74601a83611fde565b91507f496e636f72726563742072657061796d656e7420616d6f756e740000000000006000830152602082019050919050565b6000611ab4602b83611fde565b91507f4f6e6c7920626f72726f776572206f72206c656e6465722063616e2064656c6560008301527f746520746865206c6f616e0000000000000000000000000000000000000000006020830152604082019050919050565b6000611b1a601383611fde565b91507f4c6f616e20616c726561647920726570616964000000000000000000000000006000830152602082019050919050565b6000611b5a602083611fde565b91507f4f6e6c7920626f72726f7765722063616e20726570617920746865206c6f616e6000830152602082019050919050565b6000611b9a601b83611fde565b91507f43616e6e6f742064656c65746520612066756e646564206c6f616e00000000006000830152602082019050919050565b6000611bda601183611fde565b91507f55736572206e6f742076657269666965640000000000000000000000000000006000830152602082019050919050565b6000611c1a601283611fde565b91507f496e76616c6964206c6f616e206f6666657200000000000000000000000000006000830152602082019050919050565b61010082016000820151611c646000850182611cef565b506020820151611c77602085018261196b565b506040820151611c8a604085018261196b565b506060820151611c9d6060850182611cef565b506080820151611cb06080850182611cef565b5060a0820151611cc360a0850182611cef565b5060c0820151611cd660c0850182611989565b5060e0820151611ce960e0850182611989565b50505050565b611cf88161210e565b82525050565b611d078161210e565b82525050565b6000602082019050611d22600083018461197a565b92915050565b6000604082019050611d3d600083018561197a565b611d4a6020830184611cfe565b9392505050565b60006020820190508181036000830152611d6a816119a7565b9050919050565b60006020820190508181036000830152611d8a816119e7565b9050919050565b60006020820190508181036000830152611daa81611a27565b9050919050565b60006020820190508181036000830152611dca81611a67565b9050919050565b60006020820190508181036000830152611dea81611aa7565b9050919050565b60006020820190508181036000830152611e0a81611b0d565b9050919050565b60006020820190508181036000830152611e2a81611b4d565b9050919050565b60006020820190508181036000830152611e4a81611b8d565b9050919050565b60006020820190508181036000830152611e6a81611bcd565b9050919050565b60006020820190508181036000830152611e8a81611c0d565b9050919050565b600061010082019050611ea76000830184611c4d565b92915050565b6000602082019050611ec26000830184611cfe565b92915050565b600061010082019050611ede600083018b611cfe565b611eeb602083018a61197a565b611ef8604083018961197a565b611f056060830188611cfe565b611f126080830187611cfe565b611f1f60a0830186611cfe565b611f2c60c0830185611998565b611f3960e0830184611998565b9998505050505050505050565b6000606082019050611f5b6000830186611cfe565b611f686020830185611cfe565b611f756040830184611cfe565b949350505050565b6000604051905081810181811067ffffffffffffffff82111715611fa457611fa36121f2565b5b8060405250919050565b600067ffffffffffffffff821115611fc957611fc86121f2565b5b601f19601f8301169050602081019050919050565b600082825260208201905092915050565b6000611ffa8261210e565b91506120058361210e565b9250827fffffffffffffffffffffffffffffffffffffffffffffffffffffffffffffffff0382111561203a57612039612194565b5b828201905092915050565b60006120508261210e565b915061205b8361210e565b92508261206b5761206a6121c3565b5b828204905092915050565b60006120818261210e565b915061208c8361210e565b9250817fffffffffffffffffffffffffffffffffffffffffffffffffffffffffffffffff04831182151516156120c5576120c4612194565b5b828202905092915050565b60006120db826120ee565b9050919050565b60008115159050919050565b600073ffffffffffffffffffffffffffffffffffffffff82169050919050565b6000819050919050565b60005b8381101561213657808201518184015260208101905061211b565b83811115612145576000848401525b50505050565b60006121568261210e565b91507fffffffffffffffffffffffffffffffffffffffffffffffffffffffffffffffff82141561218957612188612194565b5b600182019050919050565b7f4e487b7100000000000000000000000000000000000000000000000000000000600052601160045260246000fd5b7f4e487b7100000000000000000000000000000000000000000000000000000000600052601260045260246000fd5b7f4e487b7100000000000000000000000000000000000000000000000000000000600052604160045260246000fd5b61222a816120d0565b811461223557600080fd5b50565b612241816120e2565b811461224c57600080fd5b50565b6122588161210e565b811461226357600080fd5b5056fea264697066735822122083ccb9cee408f4c61352656ed323fa87c64ef16d043a9eadd4bdbf46fc80de9164736f6c63430008000033",
  "immutableReferences": {},
  "source": "// SPDX-License-Identifier: MIT\r\npragma solidity ^0.8.0;\r\n\r\nimport \"./UserManagement.sol\";\r\nimport \"./CreditScoring.sol\";\r\nimport \"./FundManagement.sol\";\r\n\r\ncontract LoanContract {\r\n    struct Loan {\r\n        uint id;\r\n        address borrower;\r\n        address lender;\r\n        uint amount;\r\n        uint interest;\r\n        uint duration;\r\n        bool isFunded;\r\n        bool isRepaid;\r\n    }\r\n\r\n    uint public loanCount;\r\n    mapping(uint => Loan) public loans;\r\n\r\n    event LoanOfferCreated(uint indexed loanId, address indexed lender, uint amount, uint interest, uint duration);\r\n    event LoanRequested(uint indexed loanId, address indexed borrower, uint amount, uint interest, uint duration);\r\n    event LoanDeleted(uint indexed loanId);\r\n\r\n    UserManagement userManagement;\r\n    CreditScoring creditScoring;\r\n    FundManagement fundManagement;\r\n\r\n    constructor(address _userManagement, address _creditScoring, address _fundManagement) {\r\n        userManagement = UserManagement(_userManagement);\r\n        creditScoring = CreditScoring(_creditScoring);\r\n        fundManagement = FundManagement(_fundManagement);\r\n    }\r\n\r\n    function createLoanOffer(uint _amount, uint _interest, uint _duration) public {\r\n        require(userManagement.getUser(msg.sender).isVerified, \"User not verified\");\r\n\r\n        loanCount++;\r\n        loans[loanCount] = Loan(loanCount, address(0), msg.sender, _amount, _interest, _duration, false, false);\r\n\r\n        emit LoanOfferCreated(loanCount, msg.sender, _amount, _interest, _duration);\r\n    }\r\n\r\n    function requestLoan(uint _amount, uint _interest, uint _duration) public {\r\n        require(userManagement.getUser(msg.sender).isVerified, \"User not verified\");\r\n        \r\n        loanCount++;\r\n        loans[loanCount] = Loan(loanCount, msg.sender, address(0), _amount, _interest, _duration, false, false);\r\n\r\n        emit LoanRequested(loanCount, msg.sender, _amount, _interest, _duration);\r\n    }\r\n\r\n    function fundLoan(uint _loanId) public payable {\r\n        Loan storage loan = loans[_loanId];\r\n        require(!loan.isFunded, \"Loan already funded\");\r\n        require(msg.value == loan.amount, \"Incorrect amount sent\");\r\n\r\n        loan.lender = msg.sender;\r\n        loan.isFunded = true;\r\n\r\n        // Transfer funds to the borrower\r\n        fundManagement.depositFunds{value: msg.value}();\r\n        fundManagement.withdrawFunds(loan.amount);\r\n        payable(loan.borrower).transfer(loan.amount);\r\n    }\r\n\r\n    function repayLoan(uint _loanId) public payable {\r\n        Loan storage loan = loans[_loanId];\r\n        require(loan.isFunded, \"Loan not funded\");\r\n        require(!loan.isRepaid, \"Loan already repaid\");\r\n        require(msg.sender == loan.borrower, \"Only borrower can repay the loan\");\r\n        require(msg.value == loan.amount + (loan.amount * loan.interest / 100), \"Incorrect repayment amount\");\r\n\r\n        loan.isRepaid = true;\r\n\r\n        // Transfer repayment to the lender\r\n        fundManagement.depositFunds{value: msg.value}();\r\n        fundManagement.withdrawFunds(msg.value);\r\n        payable(loan.lender).transfer(msg.value);\r\n\r\n        // Update credit score\r\n        creditScoring.updateCreditScore(loan.borrower, creditScoring.getCreditScore(loan.borrower) + 1);\r\n    }\r\n\r\n    function acceptLoanOffer(uint _loanId) public {\r\n        Loan storage loan = loans[_loanId];\r\n        require(!loan.isFunded, \"Loan already funded\");\r\n        require(loan.lender != address(0), \"Invalid loan offer\");\r\n\r\n        loan.borrower = msg.sender;\r\n        loan.isFunded = true;\r\n\r\n        // Transfer funds to the borrower\r\n        fundManagement.depositFunds{value: loan.amount}();\r\n        fundManagement.withdrawFunds(loan.amount);\r\n        payable(loan.borrower).transfer(loan.amount);\r\n    }\r\n\r\n    function deleteLoan(uint _loanId) public {\r\n        Loan storage loan = loans[_loanId];\r\n        require(msg.sender == loan.borrower || msg.sender == loan.lender, \"Only borrower or lender can delete the loan\");\r\n        require(!loan.isFunded, \"Cannot delete a funded loan\");\r\n\r\n        delete loans[_loanId];\r\n        emit LoanDeleted(_loanId);\r\n    }\r\n\r\n    function getLoan(uint _loanId) public view returns (Loan memory) {\r\n        return loans[_loanId];\r\n    }\r\n}\r\n",
  "sourcePath": "C:\\Users\\jairo\\OneDrive\\Documents\\Q2 2024\\Vanguardia\\P2P-Lending\\microfinance-platform\\contracts\\LoanContract.sol",
  "compiler": {
    "name": "solc",
    "version": "0.8.0+commit.c7dfd78e.Emscripten.clang"
  },
  "schemaVersion": "3.4.16",
  "updatedAt": "2024-06-11T00:17:18.011Z",
  "networkType": "ethereum",
  "devdoc": {
    "kind": "dev",
    "methods": {},
    "version": 1
  },
  "userdoc": {
    "kind": "user",
    "methods": {},
    "version": 1
  }
}