{
  "contractName": "LoanContract",
  "abi": [
    {
      "inputs": [
        {
          "internalType": "address",
          "name": "_userManagement",
          "type": "address"
        },
        {
          "internalType": "address",
          "name": "_creditScoring",
          "type": "address"
        },
        {
          "internalType": "address",
          "name": "_fundManagement",
          "type": "address"
        }
      ],
      "stateMutability": "nonpayable",
      "type": "constructor"
    },
    {
      "anonymous": false,
      "inputs": [
        {
          "indexed": true,
          "internalType": "uint256",
          "name": "loanId",
          "type": "uint256"
        }
      ],
      "name": "LoanDeleted",
      "type": "event"
    },
    {
      "anonymous": false,
      "inputs": [
        {
          "indexed": true,
          "internalType": "uint256",
          "name": "loanId",
          "type": "uint256"
        },
        {
          "indexed": true,
          "internalType": "address",
          "name": "lender",
          "type": "address"
        },
        {
          "indexed": false,
          "internalType": "uint256",
          "name": "amount",
          "type": "uint256"
        },
        {
          "indexed": false,
          "internalType": "uint256",
          "name": "interest",
          "type": "uint256"
        },
        {
          "indexed": false,
          "internalType": "uint256",
          "name": "duration",
          "type": "uint256"
        }
      ],
      "name": "LoanOfferCreated",
      "type": "event"
    },
    {
      "anonymous": false,
      "inputs": [
        {
          "indexed": true,
          "internalType": "uint256",
          "name": "loanId",
          "type": "uint256"
        },
        {
          "indexed": true,
          "internalType": "address",
          "name": "borrower",
          "type": "address"
        },
        {
          "indexed": false,
          "internalType": "uint256",
          "name": "amount",
          "type": "uint256"
        },
        {
          "indexed": false,
          "internalType": "uint256",
          "name": "interest",
          "type": "uint256"
        },
        {
          "indexed": false,
          "internalType": "uint256",
          "name": "duration",
          "type": "uint256"
        }
      ],
      "name": "LoanRequested",
      "type": "event"
    },
    {
      "inputs": [],
      "name": "loanCount",
      "outputs": [
        {
          "internalType": "uint256",
          "name": "",
          "type": "uint256"
        }
      ],
      "stateMutability": "view",
      "type": "function",
      "constant": true
    },
    {
      "inputs": [
        {
          "internalType": "uint256",
          "name": "",
          "type": "uint256"
        }
      ],
      "name": "loans",
      "outputs": [
        {
          "internalType": "uint256",
          "name": "id",
          "type": "uint256"
        },
        {
          "internalType": "address",
          "name": "borrower",
          "type": "address"
        },
        {
          "internalType": "address",
          "name": "lender",
          "type": "address"
        },
        {
          "internalType": "uint256",
          "name": "amount",
          "type": "uint256"
        },
        {
          "internalType": "uint256",
          "name": "interest",
          "type": "uint256"
        },
        {
          "internalType": "uint256",
          "name": "duration",
          "type": "uint256"
        },
        {
          "internalType": "bool",
          "name": "isFunded",
          "type": "bool"
        },
        {
          "internalType": "bool",
          "name": "isRepaid",
          "type": "bool"
        }
      ],
      "stateMutability": "view",
      "type": "function",
      "constant": true
    },
    {
      "inputs": [
        {
          "internalType": "uint256",
          "name": "_amount",
          "type": "uint256"
        },
        {
          "internalType": "uint256",
          "name": "_interest",
          "type": "uint256"
        },
        {
          "internalType": "uint256",
          "name": "_duration",
          "type": "uint256"
        }
      ],
      "name": "createLoanOffer",
      "outputs": [],
      "stateMutability": "nonpayable",
      "type": "function"
    },
    {
      "inputs": [
        {
          "internalType": "uint256",
          "name": "_amount",
          "type": "uint256"
        },
        {
          "internalType": "uint256",
          "name": "_interest",
          "type": "uint256"
        },
        {
          "internalType": "uint256",
          "name": "_duration",
          "type": "uint256"
        }
      ],
      "name": "requestLoan",
      "outputs": [],
      "stateMutability": "nonpayable",
      "type": "function"
    },
    {
      "inputs": [
        {
          "internalType": "uint256",
          "name": "_loanId",
          "type": "uint256"
        }
      ],
      "name": "fundLoan",
      "outputs": [],
      "stateMutability": "payable",
      "type": "function",
      "payable": true
    },
    {
      "inputs": [
        {
          "internalType": "uint256",
          "name": "_loanId",
          "type": "uint256"
        }
      ],
      "name": "acceptLoanOffer",
      "outputs": [],
      "stateMutability": "payable",
      "type": "function",
      "payable": true
    },
    {
      "inputs": [
        {
          "internalType": "uint256",
          "name": "_loanId",
          "type": "uint256"
        }
      ],
      "name": "repayLoan",
      "outputs": [],
      "stateMutability": "payable",
      "type": "function",
      "payable": true
    },
    {
      "inputs": [
        {
          "internalType": "uint256",
          "name": "_loanId",
          "type": "uint256"
        }
      ],
      "name": "deleteLoan",
      "outputs": [],
      "stateMutability": "nonpayable",
      "type": "function"
    },
    {
      "inputs": [
        {
          "internalType": "uint256",
          "name": "_loanId",
          "type": "uint256"
        }
      ],
      "name": "getLoan",
      "outputs": [
        {
          "components": [
            {
              "internalType": "uint256",
              "name": "id",
              "type": "uint256"
            },
            {
              "internalType": "address",
              "name": "borrower",
              "type": "address"
            },
            {
              "internalType": "address",
              "name": "lender",
              "type": "address"
            },
            {
              "internalType": "uint256",
              "name": "amount",
              "type": "uint256"
            },
            {
              "internalType": "uint256",
              "name": "interest",
              "type": "uint256"
            },
            {
              "internalType": "uint256",
              "name": "duration",
              "type": "uint256"
            },
            {
              "internalType": "bool",
              "name": "isFunded",
              "type": "bool"
            },
            {
              "internalType": "bool",
              "name": "isRepaid",
              "type": "bool"
            }
          ],
          "internalType": "struct LoanContract.Loan",
          "name": "",
          "type": "tuple"
        }
      ],
      "stateMutability": "view",
      "type": "function",
      "constant": true
    },
    {
      "inputs": [],
      "name": "getAllLoans",
      "outputs": [
        {
          "components": [
            {
              "internalType": "uint256",
              "name": "id",
              "type": "uint256"
            },
            {
              "internalType": "address",
              "name": "borrower",
              "type": "address"
            },
            {
              "internalType": "address",
              "name": "lender",
              "type": "address"
            },
            {
              "internalType": "uint256",
              "name": "amount",
              "type": "uint256"
            },
            {
              "internalType": "uint256",
              "name": "interest",
              "type": "uint256"
            },
            {
              "internalType": "uint256",
              "name": "duration",
              "type": "uint256"
            },
            {
              "internalType": "bool",
              "name": "isFunded",
              "type": "bool"
            },
            {
              "internalType": "bool",
              "name": "isRepaid",
              "type": "bool"
            }
          ],
          "internalType": "struct LoanContract.Loan[]",
          "name": "",
          "type": "tuple[]"
        }
      ],
      "stateMutability": "view",
      "type": "function",
      "constant": true
    }
  ],
  "bytecode": "0x6080604052600080553480156200001557600080fd5b50604051620027cb380380620027cb83398181016040528101906200003b91906200011e565b82600260006101000a81548173ffffffffffffffffffffffffffffffffffffffff021916908373ffffffffffffffffffffffffffffffffffffffff16021790555081600360006101000a81548173ffffffffffffffffffffffffffffffffffffffff021916908373ffffffffffffffffffffffffffffffffffffffff16021790555080600460006101000a81548173ffffffffffffffffffffffffffffffffffffffff021916908373ffffffffffffffffffffffffffffffffffffffff160217905550505050620001c2565b6000815190506200011881620001a8565b92915050565b6000806000606084860312156200013457600080fd5b6000620001448682870162000107565b9350506020620001578682870162000107565b92505060406200016a8682870162000107565b9150509250925092565b6000620001818262000188565b9050919050565b600073ffffffffffffffffffffffffffffffffffffffff82169050919050565b620001b38162000174565b8114620001bf57600080fd5b50565b6125f980620001d26000396000f3fe6080604052600436106100915760003560e01c8063a5bfd16a11610059578063a5bfd16a1461015d578063ab7b1c8914610188578063ce63094d146101a4578063e1ec3c68146101cf578063edadbbfe1461021357610091565b806321265d0e146100965780632fb1df85146100b25780633a867c89146100db578063504006ca14610104578063846b909a14610141575b600080fd5b6100b060048036038101906100ab9190611a53565b61023c565b005b3480156100be57600080fd5b506100d960048036038101906100d49190611a53565b610452565b005b3480156100e757600080fd5b5061010260048036038101906100fd9190611aa5565b6106ca565b005b34801561011057600080fd5b5061012b60048036038101906101269190611a53565b6109aa565b60405161013891906121b5565b60405180910390f35b61015b60048036038101906101569190611a53565b610b3a565b005b34801561016957600080fd5b50610172610d02565b60405161017f9190612033565b60405180910390f35b6101a2600480360381019061019d9190611a53565b610f18565b005b3480156101b057600080fd5b506101b9611449565b6040516101c691906121d1565b60405180910390f35b3480156101db57600080fd5b506101f660048036038101906101f19190611a53565b61144f565b60405161020a9897969594939291906121ec565b60405180910390f35b34801561021f57600080fd5b5061023a60048036038101906102359190611aa5565b6114f1565b005b600060016000838152602001908152602001600020905081816000015414610299576040517f08c379a000000000000000000000000000000000000000000000000000000000815260040161029090612175565b60405180910390fd5b8060060160009054906101000a900460ff16156102eb576040517f08c379a00000000000000000000000000000000000000000000000000000000081526004016102e290612055565b60405180910390fd5b600073ffffffffffffffffffffffffffffffffffffffff168160020160009054906101000a900473ffffffffffffffffffffffffffffffffffffffff1673ffffffffffffffffffffffffffffffffffffffff16141561037f576040517f08c379a000000000000000000000000000000000000000000000000000000000815260040161037690612195565b60405180910390fd5b338160010160006101000a81548173ffffffffffffffffffffffffffffffffffffffff021916908373ffffffffffffffffffffffffffffffffffffffff16021790555060018160060160006101000a81548160ff0219169083151502179055508060010160009054906101000a900473ffffffffffffffffffffffffffffffffffffffff1673ffffffffffffffffffffffffffffffffffffffff166108fc82600301549081150290604051600060405180830381858888f1935050505015801561044d573d6000803e3d6000fd5b505050565b6000600160008381526020019081526020016000209050818160000154146104af576040517f08c379a00000000000000000000000000000000000000000000000000000000081526004016104a690612175565b60405180910390fd5b8060010160009054906101000a900473ffffffffffffffffffffffffffffffffffffffff1673ffffffffffffffffffffffffffffffffffffffff163373ffffffffffffffffffffffffffffffffffffffff16148061055c57508060020160009054906101000a900473ffffffffffffffffffffffffffffffffffffffff1673ffffffffffffffffffffffffffffffffffffffff163373ffffffffffffffffffffffffffffffffffffffff16145b61059b576040517f08c379a0000000000000000000000000000000000000000000000000000000008152600401610592906120d5565b60405180910390fd5b8060060160009054906101000a900460ff16156105ed576040517f08c379a00000000000000000000000000000000000000000000000000000000081526004016105e490612135565b60405180910390fd5b600160008381526020019081526020016000206000808201600090556001820160006101000a81549073ffffffffffffffffffffffffffffffffffffffff02191690556002820160006101000a81549073ffffffffffffffffffffffffffffffffffffffff02191690556003820160009055600482016000905560058201600090556006820160006101000a81549060ff02191690556006820160016101000a81549060ff02191690555050817fd81c963a5d7ec66c3cf064397f432633dc7cf5db7db2197eb8ae321b2aa996b660405160405180910390a25050565b600260009054906101000a900473ffffffffffffffffffffffffffffffffffffffff1673ffffffffffffffffffffffffffffffffffffffff16636f77926b336040518263ffffffff1660e01b81526004016107259190611fef565b60006040518083038186803b15801561073d57600080fd5b505afa158015610751573d6000803e3d6000fd5b505050506040513d6000823e3d601f19601f8201168201806040525081019061077a9190611a12565b60c001516107bd576040517f08c379a00000000000000000000000000000000000000000000000000000000081526004016107b490612155565b60405180910390fd5b6040518061010001604052806000548152602001600073ffffffffffffffffffffffffffffffffffffffff1681526020013373ffffffffffffffffffffffffffffffffffffffff1681526020018481526020018381526020018281526020016000151581526020016000151581525060016000805481526020019081526020016000206000820151816000015560208201518160010160006101000a81548173ffffffffffffffffffffffffffffffffffffffff021916908373ffffffffffffffffffffffffffffffffffffffff16021790555060408201518160020160006101000a81548173ffffffffffffffffffffffffffffffffffffffff021916908373ffffffffffffffffffffffffffffffffffffffff160217905550606082015181600301556080820151816004015560a0820151816005015560c08201518160060160006101000a81548160ff02191690831515021790555060e08201518160060160016101000a81548160ff0219169083151502179055509050503373ffffffffffffffffffffffffffffffffffffffff166000547f068be421395498b8f640e7d439ce7c3f676b5dae2f264a77494c0e737a0d85128585856040516109869392919061226a565b60405180910390a36000808154809291906109a0906124a8565b9190505550505050565b6109b26117d1565b81600160008481526020019081526020016000206000015414610a0a576040517f08c379a0000000000000000000000000000000000000000000000000000000008152600401610a0190612175565b60405180910390fd5b6001600083815260200190815260200160002060405180610100016040529081600082015481526020016001820160009054906101000a900473ffffffffffffffffffffffffffffffffffffffff1673ffffffffffffffffffffffffffffffffffffffff1673ffffffffffffffffffffffffffffffffffffffff1681526020016002820160009054906101000a900473ffffffffffffffffffffffffffffffffffffffff1673ffffffffffffffffffffffffffffffffffffffff1673ffffffffffffffffffffffffffffffffffffffff1681526020016003820154815260200160048201548152602001600582015481526020016006820160009054906101000a900460ff161515151581526020016006820160019054906101000a900460ff1615151515815250509050919050565b600060016000838152602001908152602001600020905081816000015414610b97576040517f08c379a0000000000000000000000000000000000000000000000000000000008152600401610b8e90612175565b60405180910390fd5b8060060160009054906101000a900460ff1615610be9576040517f08c379a0000000000000000000000000000000000000000000000000000000008152600401610be090612055565b60405180910390fd5b80600301543414610c2f576040517f08c379a0000000000000000000000000000000000000000000000000000000008152600401610c2690612075565b60405180910390fd5b338160020160006101000a81548173ffffffffffffffffffffffffffffffffffffffff021916908373ffffffffffffffffffffffffffffffffffffffff16021790555060018160060160006101000a81548160ff0219169083151502179055508060010160009054906101000a900473ffffffffffffffffffffffffffffffffffffffff1673ffffffffffffffffffffffffffffffffffffffff166108fc82600301549081150290604051600060405180830381858888f19350505050158015610cfd573d6000803e3d6000fd5b505050565b60606000805467ffffffffffffffff811115610d47577f4e487b7100000000000000000000000000000000000000000000000000000000600052604160045260246000fd5b604051908082528060200260200182016040528015610d8057816020015b610d6d6117d1565b815260200190600190039081610d655790505b50905060005b600054811015610f10576001600082815260200190815260200160002060405180610100016040529081600082015481526020016001820160009054906101000a900473ffffffffffffffffffffffffffffffffffffffff1673ffffffffffffffffffffffffffffffffffffffff1673ffffffffffffffffffffffffffffffffffffffff1681526020016002820160009054906101000a900473ffffffffffffffffffffffffffffffffffffffff1673ffffffffffffffffffffffffffffffffffffffff1673ffffffffffffffffffffffffffffffffffffffff1681526020016003820154815260200160048201548152602001600582015481526020016006820160009054906101000a900460ff161515151581526020016006820160019054906101000a900460ff161515151581525050828281518110610ef2577f4e487b7100000000000000000000000000000000000000000000000000000000600052603260045260246000fd5b60200260200101819052508080610f08906124a8565b915050610d86565b508091505090565b600060016000838152602001908152602001600020905081816000015414610f75576040517f08c379a0000000000000000000000000000000000000000000000000000000008152600401610f6c90612175565b60405180910390fd5b8060060160009054906101000a900460ff16610fc6576040517f08c379a0000000000000000000000000000000000000000000000000000000008152600401610fbd90612095565b60405180910390fd5b8060060160019054906101000a900460ff1615611018576040517f08c379a000000000000000000000000000000000000000000000000000000000815260040161100f906120f5565b60405180910390fd5b8060010160009054906101000a900473ffffffffffffffffffffffffffffffffffffffff1673ffffffffffffffffffffffffffffffffffffffff163373ffffffffffffffffffffffffffffffffffffffff16146110aa576040517f08c379a00000000000000000000000000000000000000000000000000000000081526004016110a190612115565b60405180910390fd5b60006064826004015483600301546110c291906123d3565b6110cc91906123a2565b82600301546110db919061234c565b905080341461111f576040517f08c379a0000000000000000000000000000000000000000000000000000000008152600401611116906120b5565b60405180910390fd5b60018260060160016101000a81548160ff021916908315150217905550600460009054906101000a900473ffffffffffffffffffffffffffffffffffffffff1673ffffffffffffffffffffffffffffffffffffffff1663e2c41dbc346040518263ffffffff1660e01b81526004016000604051808303818588803b1580156111a657600080fd5b505af11580156111ba573d6000803e3d6000fd5b5050505050600460009054906101000a900473ffffffffffffffffffffffffffffffffffffffff1673ffffffffffffffffffffffffffffffffffffffff1663155dd5ee346040518263ffffffff1660e01b815260040161121a91906121d1565b600060405180830381600087803b15801561123457600080fd5b505af1158015611248573d6000803e3d6000fd5b505050508160020160009054906101000a900473ffffffffffffffffffffffffffffffffffffffff1673ffffffffffffffffffffffffffffffffffffffff166108fc349081150290604051600060405180830381858888f193505050501580156112b6573d6000803e3d6000fd5b50600360009054906101000a900473ffffffffffffffffffffffffffffffffffffffff1673ffffffffffffffffffffffffffffffffffffffff166365352f9d8360010160009054906101000a900473ffffffffffffffffffffffffffffffffffffffff166001600360009054906101000a900473ffffffffffffffffffffffffffffffffffffffff1673ffffffffffffffffffffffffffffffffffffffff1663d3dd2bdf8760010160009054906101000a900473ffffffffffffffffffffffffffffffffffffffff166040518263ffffffff1660e01b815260040161139b9190611fef565b60206040518083038186803b1580156113b357600080fd5b505afa1580156113c7573d6000803e3d6000fd5b505050506040513d601f19601f820116820180604052508101906113eb9190611a7c565b6113f5919061234c565b6040518363ffffffff1660e01b815260040161141292919061200a565b600060405180830381600087803b15801561142c57600080fd5b505af1158015611440573d6000803e3d6000fd5b50505050505050565b60005481565b60016020528060005260406000206000915090508060000154908060010160009054906101000a900473ffffffffffffffffffffffffffffffffffffffff16908060020160009054906101000a900473ffffffffffffffffffffffffffffffffffffffff16908060030154908060040154908060050154908060060160009054906101000a900460ff16908060060160019054906101000a900460ff16905088565b600260009054906101000a900473ffffffffffffffffffffffffffffffffffffffff1673ffffffffffffffffffffffffffffffffffffffff16636f77926b336040518263ffffffff1660e01b815260040161154c9190611fef565b60006040518083038186803b15801561156457600080fd5b505afa158015611578573d6000803e3d6000fd5b505050506040513d6000823e3d601f19601f820116820180604052508101906115a19190611a12565b60c001516115e4576040517f08c379a00000000000000000000000000000000000000000000000000000000081526004016115db90612155565b60405180910390fd5b60405180610100016040528060005481526020013373ffffffffffffffffffffffffffffffffffffffff168152602001600073ffffffffffffffffffffffffffffffffffffffff1681526020018481526020018381526020018281526020016000151581526020016000151581525060016000805481526020019081526020016000206000820151816000015560208201518160010160006101000a81548173ffffffffffffffffffffffffffffffffffffffff021916908373ffffffffffffffffffffffffffffffffffffffff16021790555060408201518160020160006101000a81548173ffffffffffffffffffffffffffffffffffffffff021916908373ffffffffffffffffffffffffffffffffffffffff160217905550606082015181600301556080820151816004015560a0820151816005015560c08201518160060160006101000a81548160ff02191690831515021790555060e08201518160060160016101000a81548160ff0219169083151502179055509050503373ffffffffffffffffffffffffffffffffffffffff166000547ff6cc19e46a340ab5888d736bfc79aef72ae92d12d7b76319d72b0abc170868e68585856040516117ad9392919061226a565b60405180910390a36000808154809291906117c7906124a8565b9190505550505050565b60405180610100016040528060008152602001600073ffffffffffffffffffffffffffffffffffffffff168152602001600073ffffffffffffffffffffffffffffffffffffffff1681526020016000815260200160008152602001600081526020016000151581526020016000151581525090565b6000611859611854846122d2565b6122a1565b90508281526020810184848401111561187157600080fd5b61187c848285612475565b509392505050565b6000815190506118938161257e565b92915050565b6000815190506118a881612595565b92915050565b600082601f8301126118bf57600080fd5b81516118cf848260208601611846565b91505092915050565b600060e082840312156118ea57600080fd5b6118f460e06122a1565b9050600061190484828501611884565b600083015250602082015167ffffffffffffffff81111561192457600080fd5b611930848285016118ae565b602083015250604082015167ffffffffffffffff81111561195057600080fd5b61195c848285016118ae565b604083015250606082015167ffffffffffffffff81111561197c57600080fd5b611988848285016118ae565b606083015250608082015167ffffffffffffffff8111156119a857600080fd5b6119b4848285016118ae565b60808301525060a06119c8848285016119fd565b60a08301525060c06119dc84828501611899565b60c08301525092915050565b6000813590506119f7816125ac565b92915050565b600081519050611a0c816125ac565b92915050565b600060208284031215611a2457600080fd5b600082015167ffffffffffffffff811115611a3e57600080fd5b611a4a848285016118d8565b91505092915050565b600060208284031215611a6557600080fd5b6000611a73848285016119e8565b91505092915050565b600060208284031215611a8e57600080fd5b6000611a9c848285016119fd565b91505092915050565b600080600060608486031215611aba57600080fd5b6000611ac8868287016119e8565b9350506020611ad9868287016119e8565b9250506040611aea868287016119e8565b9150509250925092565b6000611b008383611e8d565b6101008301905092915050565b611b168161242d565b82525050565b611b258161242d565b82525050565b6000611b3682612312565b611b40818561232a565b9350611b4b83612302565b8060005b83811015611b7c578151611b638882611af4565b9750611b6e8361231d565b925050600181019050611b4f565b5085935050505092915050565b611b928161243f565b82525050565b611ba18161243f565b82525050565b6000611bb460138361233b565b91507f4c6f616e20616c72656164792066756e646564000000000000000000000000006000830152602082019050919050565b6000611bf460158361233b565b91507f496e636f727265637420616d6f756e742073656e7400000000000000000000006000830152602082019050919050565b6000611c34600f8361233b565b91507f4c6f616e206e6f742066756e64656400000000000000000000000000000000006000830152602082019050919050565b6000611c74601a8361233b565b91507f496e636f72726563742072657061796d656e7420616d6f756e740000000000006000830152602082019050919050565b6000611cb4602b8361233b565b91507f4f6e6c7920626f72726f776572206f72206c656e6465722063616e2064656c6560008301527f746520746865206c6f616e0000000000000000000000000000000000000000006020830152604082019050919050565b6000611d1a60138361233b565b91507f4c6f616e20616c726561647920726570616964000000000000000000000000006000830152602082019050919050565b6000611d5a60208361233b565b91507f4f6e6c7920626f72726f7765722063616e20726570617920746865206c6f616e6000830152602082019050919050565b6000611d9a601b8361233b565b91507f43616e6e6f742064656c65746520612066756e646564206c6f616e00000000006000830152602082019050919050565b6000611dda60118361233b565b91507f55736572206e6f742076657269666965640000000000000000000000000000006000830152602082019050919050565b6000611e1a60138361233b565b91507f4c6f616e20646f6573206e6f74206578697374000000000000000000000000006000830152602082019050919050565b6000611e5a60128361233b565b91507f496e76616c6964206c6f616e206f6666657200000000000000000000000000006000830152602082019050919050565b61010082016000820151611ea46000850182611fd1565b506020820151611eb76020850182611b0d565b506040820151611eca6040850182611b0d565b506060820151611edd6060850182611fd1565b506080820151611ef06080850182611fd1565b5060a0820151611f0360a0850182611fd1565b5060c0820151611f1660c0850182611b89565b5060e0820151611f2960e0850182611b89565b50505050565b61010082016000820151611f466000850182611fd1565b506020820151611f596020850182611b0d565b506040820151611f6c6040850182611b0d565b506060820151611f7f6060850182611fd1565b506080820151611f926080850182611fd1565b5060a0820151611fa560a0850182611fd1565b5060c0820151611fb860c0850182611b89565b5060e0820151611fcb60e0850182611b89565b50505050565b611fda8161246b565b82525050565b611fe98161246b565b82525050565b60006020820190506120046000830184611b1c565b92915050565b600060408201905061201f6000830185611b1c565b61202c6020830184611fe0565b9392505050565b6000602082019050818103600083015261204d8184611b2b565b905092915050565b6000602082019050818103600083015261206e81611ba7565b9050919050565b6000602082019050818103600083015261208e81611be7565b9050919050565b600060208201905081810360008301526120ae81611c27565b9050919050565b600060208201905081810360008301526120ce81611c67565b9050919050565b600060208201905081810360008301526120ee81611ca7565b9050919050565b6000602082019050818103600083015261210e81611d0d565b9050919050565b6000602082019050818103600083015261212e81611d4d565b9050919050565b6000602082019050818103600083015261214e81611d8d565b9050919050565b6000602082019050818103600083015261216e81611dcd565b9050919050565b6000602082019050818103600083015261218e81611e0d565b9050919050565b600060208201905081810360008301526121ae81611e4d565b9050919050565b6000610100820190506121cb6000830184611f2f565b92915050565b60006020820190506121e66000830184611fe0565b92915050565b600061010082019050612202600083018b611fe0565b61220f602083018a611b1c565b61221c6040830189611b1c565b6122296060830188611fe0565b6122366080830187611fe0565b61224360a0830186611fe0565b61225060c0830185611b98565b61225d60e0830184611b98565b9998505050505050505050565b600060608201905061227f6000830186611fe0565b61228c6020830185611fe0565b6122996040830184611fe0565b949350505050565b6000604051905081810181811067ffffffffffffffff821117156122c8576122c761254f565b5b8060405250919050565b600067ffffffffffffffff8211156122ed576122ec61254f565b5b601f19601f8301169050602081019050919050565b6000819050602082019050919050565b600081519050919050565b6000602082019050919050565b600082825260208201905092915050565b600082825260208201905092915050565b60006123578261246b565b91506123628361246b565b9250827fffffffffffffffffffffffffffffffffffffffffffffffffffffffffffffffff03821115612397576123966124f1565b5b828201905092915050565b60006123ad8261246b565b91506123b88361246b565b9250826123c8576123c7612520565b5b828204905092915050565b60006123de8261246b565b91506123e98361246b565b9250817fffffffffffffffffffffffffffffffffffffffffffffffffffffffffffffffff0483118215151615612422576124216124f1565b5b828202905092915050565b60006124388261244b565b9050919050565b60008115159050919050565b600073ffffffffffffffffffffffffffffffffffffffff82169050919050565b6000819050919050565b60005b83811015612493578082015181840152602081019050612478565b838111156124a2576000848401525b50505050565b60006124b38261246b565b91507fffffffffffffffffffffffffffffffffffffffffffffffffffffffffffffffff8214156124e6576124e56124f1565b5b600182019050919050565b7f4e487b7100000000000000000000000000000000000000000000000000000000600052601160045260246000fd5b7f4e487b7100000000000000000000000000000000000000000000000000000000600052601260045260246000fd5b7f4e487b7100000000000000000000000000000000000000000000000000000000600052604160045260246000fd5b6125878161242d565b811461259257600080fd5b50565b61259e8161243f565b81146125a957600080fd5b50565b6125b58161246b565b81146125c057600080fd5b5056fea2646970667358221220510377f6c89ac1d2f9399242d616517297e422ede014c2f582ea83d78096ac1d64736f6c63430008000033",
  "immutableReferences": {},
  "source": "// SPDX-License-Identifier: MIT\r\npragma solidity ^0.8.0;\r\n\r\nimport \"./UserManagement.sol\";\r\nimport \"./CreditScoring.sol\";\r\nimport \"./FundManagement.sol\";\r\n\r\ncontract LoanContract {\r\n    struct Loan {\r\n        uint id;\r\n        address borrower;\r\n        address lender;\r\n        uint amount;\r\n        uint interest;\r\n        uint duration;\r\n        bool isFunded;\r\n        bool isRepaid;\r\n    }\r\n\r\n    uint public loanCount = 0;\r\n    mapping(uint => Loan) public loans;\r\n\r\n    event LoanOfferCreated(\r\n        uint indexed loanId,\r\n        address indexed lender,\r\n        uint amount,\r\n        uint interest,\r\n        uint duration\r\n    );\r\n    event LoanRequested(\r\n        uint indexed loanId,\r\n        address indexed borrower,\r\n        uint amount,\r\n        uint interest,\r\n        uint duration\r\n    );\r\n    event LoanDeleted(uint indexed loanId);\r\n\r\n    UserManagement userManagement;\r\n    CreditScoring creditScoring;\r\n    FundManagement fundManagement;\r\n\r\n    constructor(\r\n        address _userManagement,\r\n        address _creditScoring,\r\n        address _fundManagement\r\n    ) {\r\n        userManagement = UserManagement(_userManagement);\r\n        creditScoring = CreditScoring(_creditScoring);\r\n        fundManagement = FundManagement(_fundManagement);\r\n    }\r\n\r\n    function createLoanOffer(\r\n        uint _amount,\r\n        uint _interest,\r\n        uint _duration\r\n    ) public {\r\n        require(\r\n            userManagement.getUser(msg.sender).isVerified,\r\n            \"User not verified\"\r\n        );\r\n\r\n        loans[loanCount] = Loan(\r\n            loanCount,\r\n            address(0),\r\n            msg.sender,\r\n            _amount,\r\n            _interest,\r\n            _duration,\r\n            false,\r\n            false\r\n        );\r\n        emit LoanOfferCreated(\r\n            loanCount,\r\n            msg.sender,\r\n            _amount,\r\n            _interest,\r\n            _duration\r\n        );\r\n        loanCount++;\r\n    }\r\n\r\n    function requestLoan(uint _amount, uint _interest, uint _duration) public {\r\n        require(\r\n            userManagement.getUser(msg.sender).isVerified,\r\n            \"User not verified\"\r\n        );\r\n\r\n        loans[loanCount] = Loan(\r\n            loanCount,\r\n            msg.sender,\r\n            address(0),\r\n            _amount,\r\n            _interest,\r\n            _duration,\r\n            false,\r\n            false\r\n        );\r\n        emit LoanRequested(\r\n            loanCount,\r\n            msg.sender,\r\n            _amount,\r\n            _interest,\r\n            _duration\r\n        );\r\n        loanCount++;\r\n    }\r\n\r\n    function fundLoan(uint _loanId) public payable {\r\n        Loan storage loan = loans[_loanId];\r\n        require(loan.id == _loanId, \"Loan does not exist\");\r\n        require(!loan.isFunded, \"Loan already funded\");\r\n        require(msg.value == loan.amount, \"Incorrect amount sent\");\r\n\r\n        loan.lender = msg.sender;\r\n        loan.isFunded = true;\r\n\r\n        // Transfer funds to the borrower directly\r\n        payable(loan.borrower).transfer(loan.amount);\r\n    }\r\n\r\n    function acceptLoanOffer(uint _loanId) public payable {\r\n        Loan storage loan = loans[_loanId];\r\n        require(loan.id == _loanId, \"Loan does not exist\");\r\n        require(!loan.isFunded, \"Loan already funded\");\r\n        require(loan.lender != address(0), \"Invalid loan offer\");\r\n\r\n        loan.borrower = msg.sender;\r\n        loan.isFunded = true;\r\n\r\n        // Transfer funds to the borrower directly\r\n        payable(loan.borrower).transfer(loan.amount);\r\n    }\r\n\r\n    function repayLoan(uint _loanId) public payable {\r\n        Loan storage loan = loans[_loanId];\r\n        require(loan.id == _loanId, \"Loan does not exist\");\r\n        require(loan.isFunded, \"Loan not funded\");\r\n        require(!loan.isRepaid, \"Loan already repaid\");\r\n        require(\r\n            msg.sender == loan.borrower,\r\n            \"Only borrower can repay the loan\"\r\n        );\r\n        uint repaymentAmount = loan.amount +\r\n            ((loan.amount * loan.interest) / 100);\r\n        require(msg.value == repaymentAmount, \"Incorrect repayment amount\");\r\n\r\n        loan.isRepaid = true;\r\n\r\n        // Transfer repayment to the lender\r\n        fundManagement.depositFunds{value: msg.value}();\r\n        fundManagement.withdrawFunds(msg.value);\r\n        payable(loan.lender).transfer(msg.value);\r\n\r\n        // Update credit score\r\n        creditScoring.updateCreditScore(\r\n            loan.borrower,\r\n            creditScoring.getCreditScore(loan.borrower) + 1\r\n        );\r\n    }\r\n\r\n    function deleteLoan(uint _loanId) public {\r\n        Loan storage loan = loans[_loanId];\r\n        require(loan.id == _loanId, \"Loan does not exist\");\r\n        require(\r\n            msg.sender == loan.borrower || msg.sender == loan.lender,\r\n            \"Only borrower or lender can delete the loan\"\r\n        );\r\n        require(!loan.isFunded, \"Cannot delete a funded loan\");\r\n\r\n        delete loans[_loanId];\r\n        emit LoanDeleted(_loanId);\r\n    }\r\n\r\n    function getLoan(uint _loanId) public view returns (Loan memory) {\r\n        require(loans[_loanId].id == _loanId, \"Loan does not exist\");\r\n        return loans[_loanId];\r\n    }\r\n\r\n    function getAllLoans() public view returns (Loan[] memory) {\r\n        Loan[] memory allLoans = new Loan[](loanCount);\r\n        for (uint i = 0; i < loanCount; i++) {\r\n            allLoans[i] = loans[i];\r\n        }\r\n        return allLoans;\r\n    }\r\n}\r\n",
  "sourcePath": "C:\\Users\\jairo\\OneDrive\\Documents\\Q2 2024\\Vanguardia\\P2P-Lending\\microfinance-platform\\contracts\\LoanContract.sol",
  "compiler": {
    "name": "solc",
    "version": "0.8.0+commit.c7dfd78e.Emscripten.clang"
  },
  "schemaVersion": "3.4.16",
  "updatedAt": "2024-06-15T23:15:54.418Z",
  "networkType": "ethereum",
  "devdoc": {
    "kind": "dev",
    "methods": {},
    "version": 1
  },
  "userdoc": {
    "kind": "user",
    "methods": {},
    "version": 1
  }
}