{
  "contractName": "LoanContract",
  "abi": [
    {
      "inputs": [
        {
          "internalType": "address",
          "name": "_userManagement",
          "type": "address"
        },
        {
          "internalType": "address",
          "name": "_creditScoring",
          "type": "address"
        },
        {
          "internalType": "address",
          "name": "_fundManagement",
          "type": "address"
        }
      ],
      "stateMutability": "nonpayable",
      "type": "constructor"
    },
    {
      "inputs": [],
      "name": "loanCount",
      "outputs": [
        {
          "internalType": "uint256",
          "name": "",
          "type": "uint256"
        }
      ],
      "stateMutability": "view",
      "type": "function",
      "constant": true
    },
    {
      "inputs": [
        {
          "internalType": "uint256",
          "name": "",
          "type": "uint256"
        }
      ],
      "name": "loans",
      "outputs": [
        {
          "internalType": "uint256",
          "name": "id",
          "type": "uint256"
        },
        {
          "internalType": "address",
          "name": "borrower",
          "type": "address"
        },
        {
          "internalType": "address",
          "name": "lender",
          "type": "address"
        },
        {
          "internalType": "uint256",
          "name": "amount",
          "type": "uint256"
        },
        {
          "internalType": "uint256",
          "name": "interest",
          "type": "uint256"
        },
        {
          "internalType": "uint256",
          "name": "duration",
          "type": "uint256"
        },
        {
          "internalType": "bool",
          "name": "isFunded",
          "type": "bool"
        },
        {
          "internalType": "bool",
          "name": "isRepaid",
          "type": "bool"
        }
      ],
      "stateMutability": "view",
      "type": "function",
      "constant": true
    },
    {
      "inputs": [
        {
          "internalType": "uint256",
          "name": "_amount",
          "type": "uint256"
        },
        {
          "internalType": "uint256",
          "name": "_interest",
          "type": "uint256"
        },
        {
          "internalType": "uint256",
          "name": "_duration",
          "type": "uint256"
        }
      ],
      "name": "requestLoan",
      "outputs": [],
      "stateMutability": "nonpayable",
      "type": "function"
    },
    {
      "inputs": [
        {
          "internalType": "uint256",
          "name": "_loanId",
          "type": "uint256"
        }
      ],
      "name": "fundLoan",
      "outputs": [],
      "stateMutability": "payable",
      "type": "function",
      "payable": true
    },
    {
      "inputs": [
        {
          "internalType": "uint256",
          "name": "_loanId",
          "type": "uint256"
        }
      ],
      "name": "repayLoan",
      "outputs": [],
      "stateMutability": "payable",
      "type": "function",
      "payable": true
    },
    {
      "inputs": [
        {
          "internalType": "uint256",
          "name": "_loanId",
          "type": "uint256"
        }
      ],
      "name": "getLoan",
      "outputs": [
        {
          "components": [
            {
              "internalType": "uint256",
              "name": "id",
              "type": "uint256"
            },
            {
              "internalType": "address",
              "name": "borrower",
              "type": "address"
            },
            {
              "internalType": "address",
              "name": "lender",
              "type": "address"
            },
            {
              "internalType": "uint256",
              "name": "amount",
              "type": "uint256"
            },
            {
              "internalType": "uint256",
              "name": "interest",
              "type": "uint256"
            },
            {
              "internalType": "uint256",
              "name": "duration",
              "type": "uint256"
            },
            {
              "internalType": "bool",
              "name": "isFunded",
              "type": "bool"
            },
            {
              "internalType": "bool",
              "name": "isRepaid",
              "type": "bool"
            }
          ],
          "internalType": "struct LoanContract.Loan",
          "name": "",
          "type": "tuple"
        }
      ],
      "stateMutability": "view",
      "type": "function",
      "constant": true
    }
  ],
  "bytecode": "0x60806040523480156200001157600080fd5b50604051620019f2380380620019f283398181016040528101906200003791906200011a565b82600260006101000a81548173ffffffffffffffffffffffffffffffffffffffff021916908373ffffffffffffffffffffffffffffffffffffffff16021790555081600360006101000a81548173ffffffffffffffffffffffffffffffffffffffff021916908373ffffffffffffffffffffffffffffffffffffffff16021790555080600460006101000a81548173ffffffffffffffffffffffffffffffffffffffff021916908373ffffffffffffffffffffffffffffffffffffffff160217905550505050620001be565b6000815190506200011481620001a4565b92915050565b6000806000606084860312156200013057600080fd5b6000620001408682870162000103565b9350506020620001538682870162000103565b9250506040620001668682870162000103565b9150509250925092565b60006200017d8262000184565b9050919050565b600073ffffffffffffffffffffffffffffffffffffffff82169050919050565b620001af8162000170565b8114620001bb57600080fd5b50565b61182480620001ce6000396000f3fe6080604052600436106100555760003560e01c8063504006ca1461005a578063846b909a14610097578063ab7b1c89146100b3578063ce63094d146100cf578063e1ec3c68146100fa578063edadbbfe1461013e575b600080fd5b34801561006657600080fd5b50610081600480360381019061007c9190610fcf565b610167565b60405161008e9190611450565b60405180910390f35b6100b160048036038101906100ac9190610fcf565b61029f565b005b6100cd60048036038101906100c89190610fcf565b610535565b005b3480156100db57600080fd5b506100e4610a1a565b6040516100f1919061146c565b60405180910390f35b34801561010657600080fd5b50610121600480360381019061011c9190610fcf565b610a20565b604051610135989796959493929190611487565b60405180910390f35b34801561014a57600080fd5b5061016560048036038101906101609190611021565b610ac2565b005b61016f610d4d565b6001600083815260200190815260200160002060405180610100016040529081600082015481526020016001820160009054906101000a900473ffffffffffffffffffffffffffffffffffffffff1673ffffffffffffffffffffffffffffffffffffffff1673ffffffffffffffffffffffffffffffffffffffff1681526020016002820160009054906101000a900473ffffffffffffffffffffffffffffffffffffffff1673ffffffffffffffffffffffffffffffffffffffff1673ffffffffffffffffffffffffffffffffffffffff1681526020016003820154815260200160048201548152602001600582015481526020016006820160009054906101000a900460ff161515151581526020016006820160019054906101000a900460ff1615151515815250509050919050565b60006001600083815260200190815260200160002090508060060160009054906101000a900460ff1615610308576040517f08c379a00000000000000000000000000000000000000000000000000000000081526004016102ff90611370565b60405180910390fd5b8060030154341461034e576040517f08c379a000000000000000000000000000000000000000000000000000000000815260040161034590611390565b60405180910390fd5b338160020160006101000a81548173ffffffffffffffffffffffffffffffffffffffff021916908373ffffffffffffffffffffffffffffffffffffffff16021790555060018160060160006101000a81548160ff021916908315150217905550600460009054906101000a900473ffffffffffffffffffffffffffffffffffffffff1673ffffffffffffffffffffffffffffffffffffffff1663e2c41dbc346040518263ffffffff1660e01b81526004016000604051808303818588803b15801561041857600080fd5b505af115801561042c573d6000803e3d6000fd5b5050505050600460009054906101000a900473ffffffffffffffffffffffffffffffffffffffff1673ffffffffffffffffffffffffffffffffffffffff1663155dd5ee82600301546040518263ffffffff1660e01b8152600401610490919061146c565b600060405180830381600087803b1580156104aa57600080fd5b505af11580156104be573d6000803e3d6000fd5b505050508060010160009054906101000a900473ffffffffffffffffffffffffffffffffffffffff1673ffffffffffffffffffffffffffffffffffffffff166108fc82600301549081150290604051600060405180830381858888f19350505050158015610530573d6000803e3d6000fd5b505050565b60006001600083815260200190815260200160002090508060060160009054906101000a900460ff1661059d576040517f08c379a0000000000000000000000000000000000000000000000000000000008152600401610594906113b0565b60405180910390fd5b8060060160019054906101000a900460ff16156105ef576040517f08c379a00000000000000000000000000000000000000000000000000000000081526004016105e6906113f0565b60405180910390fd5b8060010160009054906101000a900473ffffffffffffffffffffffffffffffffffffffff1673ffffffffffffffffffffffffffffffffffffffff163373ffffffffffffffffffffffffffffffffffffffff1614610681576040517f08c379a000000000000000000000000000000000000000000000000000000000815260040161067890611410565b60405180910390fd5b60648160040154826003015461069791906115fe565b6106a191906115cd565b81600301546106b09190611577565b34146106f1576040517f08c379a00000000000000000000000000000000000000000000000000000000081526004016106e8906113d0565b60405180910390fd5b60018160060160016101000a81548160ff021916908315150217905550600460009054906101000a900473ffffffffffffffffffffffffffffffffffffffff1673ffffffffffffffffffffffffffffffffffffffff1663e2c41dbc346040518263ffffffff1660e01b81526004016000604051808303818588803b15801561077857600080fd5b505af115801561078c573d6000803e3d6000fd5b5050505050600460009054906101000a900473ffffffffffffffffffffffffffffffffffffffff1673ffffffffffffffffffffffffffffffffffffffff1663155dd5ee346040518263ffffffff1660e01b81526004016107ec919061146c565b600060405180830381600087803b15801561080657600080fd5b505af115801561081a573d6000803e3d6000fd5b505050508060020160009054906101000a900473ffffffffffffffffffffffffffffffffffffffff1673ffffffffffffffffffffffffffffffffffffffff166108fc349081150290604051600060405180830381858888f19350505050158015610888573d6000803e3d6000fd5b50600360009054906101000a900473ffffffffffffffffffffffffffffffffffffffff1673ffffffffffffffffffffffffffffffffffffffff166365352f9d8260010160009054906101000a900473ffffffffffffffffffffffffffffffffffffffff166001600360009054906101000a900473ffffffffffffffffffffffffffffffffffffffff1673ffffffffffffffffffffffffffffffffffffffff1663d3dd2bdf8660010160009054906101000a900473ffffffffffffffffffffffffffffffffffffffff166040518263ffffffff1660e01b815260040161096d919061132c565b60206040518083038186803b15801561098557600080fd5b505afa158015610999573d6000803e3d6000fd5b505050506040513d601f19601f820116820180604052508101906109bd9190610ff8565b6109c79190611577565b6040518363ffffffff1660e01b81526004016109e4929190611347565b600060405180830381600087803b1580156109fe57600080fd5b505af1158015610a12573d6000803e3d6000fd5b505050505050565b60005481565b60016020528060005260406000206000915090508060000154908060010160009054906101000a900473ffffffffffffffffffffffffffffffffffffffff16908060020160009054906101000a900473ffffffffffffffffffffffffffffffffffffffff16908060030154908060040154908060050154908060060160009054906101000a900460ff16908060060160019054906101000a900460ff16905088565b600260009054906101000a900473ffffffffffffffffffffffffffffffffffffffff1673ffffffffffffffffffffffffffffffffffffffff16636f77926b336040518263ffffffff1660e01b8152600401610b1d919061132c565b60006040518083038186803b158015610b3557600080fd5b505afa158015610b49573d6000803e3d6000fd5b505050506040513d6000823e3d601f19601f82011682018060405250810190610b729190610f8e565b60c00151610bb5576040517f08c379a0000000000000000000000000000000000000000000000000000000008152600401610bac90611430565b60405180910390fd5b600080815480929190610bc7906116d3565b919050555060405180610100016040528060005481526020013373ffffffffffffffffffffffffffffffffffffffff168152602001600073ffffffffffffffffffffffffffffffffffffffff1681526020018481526020018381526020018281526020016000151581526020016000151581525060016000805481526020019081526020016000206000820151816000015560208201518160010160006101000a81548173ffffffffffffffffffffffffffffffffffffffff021916908373ffffffffffffffffffffffffffffffffffffffff16021790555060408201518160020160006101000a81548173ffffffffffffffffffffffffffffffffffffffff021916908373ffffffffffffffffffffffffffffffffffffffff160217905550606082015181600301556080820151816004015560a0820151816005015560c08201518160060160006101000a81548160ff02191690831515021790555060e08201518160060160016101000a81548160ff021916908315150217905550905050505050565b60405180610100016040528060008152602001600073ffffffffffffffffffffffffffffffffffffffff168152602001600073ffffffffffffffffffffffffffffffffffffffff1681526020016000815260200160008152602001600081526020016000151581526020016000151581525090565b6000610dd5610dd084611536565b611505565b905082815260208101848484011115610ded57600080fd5b610df88482856116a0565b509392505050565b600081519050610e0f816117a9565b92915050565b600081519050610e24816117c0565b92915050565b600082601f830112610e3b57600080fd5b8151610e4b848260208601610dc2565b91505092915050565b600060e08284031215610e6657600080fd5b610e7060e0611505565b90506000610e8084828501610e00565b600083015250602082015167ffffffffffffffff811115610ea057600080fd5b610eac84828501610e2a565b602083015250604082015167ffffffffffffffff811115610ecc57600080fd5b610ed884828501610e2a565b604083015250606082015167ffffffffffffffff811115610ef857600080fd5b610f0484828501610e2a565b606083015250608082015167ffffffffffffffff811115610f2457600080fd5b610f3084828501610e2a565b60808301525060a0610f4484828501610f79565b60a08301525060c0610f5884828501610e15565b60c08301525092915050565b600081359050610f73816117d7565b92915050565b600081519050610f88816117d7565b92915050565b600060208284031215610fa057600080fd5b600082015167ffffffffffffffff811115610fba57600080fd5b610fc684828501610e54565b91505092915050565b600060208284031215610fe157600080fd5b6000610fef84828501610f64565b91505092915050565b60006020828403121561100a57600080fd5b600061101884828501610f79565b91505092915050565b60008060006060848603121561103657600080fd5b600061104486828701610f64565b935050602061105586828701610f64565b925050604061106686828701610f64565b9150509250925092565b61107981611658565b82525050565b61108881611658565b82525050565b6110978161166a565b82525050565b6110a68161166a565b82525050565b60006110b9601383611566565b91507f4c6f616e20616c72656164792066756e646564000000000000000000000000006000830152602082019050919050565b60006110f9601583611566565b91507f496e636f727265637420616d6f756e742073656e7400000000000000000000006000830152602082019050919050565b6000611139600f83611566565b91507f4c6f616e206e6f742066756e64656400000000000000000000000000000000006000830152602082019050919050565b6000611179601a83611566565b91507f496e636f72726563742072657061796d656e7420616d6f756e740000000000006000830152602082019050919050565b60006111b9601383611566565b91507f4c6f616e20616c726561647920726570616964000000000000000000000000006000830152602082019050919050565b60006111f9602083611566565b91507f4f6e6c7920626f72726f7765722063616e20726570617920746865206c6f616e6000830152602082019050919050565b6000611239601183611566565b91507f55736572206e6f742076657269666965640000000000000000000000000000006000830152602082019050919050565b61010082016000820151611283600085018261130e565b5060208201516112966020850182611070565b5060408201516112a96040850182611070565b5060608201516112bc606085018261130e565b5060808201516112cf608085018261130e565b5060a08201516112e260a085018261130e565b5060c08201516112f560c085018261108e565b5060e082015161130860e085018261108e565b50505050565b61131781611696565b82525050565b61132681611696565b82525050565b6000602082019050611341600083018461107f565b92915050565b600060408201905061135c600083018561107f565b611369602083018461131d565b9392505050565b60006020820190508181036000830152611389816110ac565b9050919050565b600060208201905081810360008301526113a9816110ec565b9050919050565b600060208201905081810360008301526113c98161112c565b9050919050565b600060208201905081810360008301526113e98161116c565b9050919050565b60006020820190508181036000830152611409816111ac565b9050919050565b60006020820190508181036000830152611429816111ec565b9050919050565b600060208201905081810360008301526114498161122c565b9050919050565b600061010082019050611466600083018461126c565b92915050565b6000602082019050611481600083018461131d565b92915050565b60006101008201905061149d600083018b61131d565b6114aa602083018a61107f565b6114b7604083018961107f565b6114c4606083018861131d565b6114d1608083018761131d565b6114de60a083018661131d565b6114eb60c083018561109d565b6114f860e083018461109d565b9998505050505050505050565b6000604051905081810181811067ffffffffffffffff8211171561152c5761152b61177a565b5b8060405250919050565b600067ffffffffffffffff8211156115515761155061177a565b5b601f19601f8301169050602081019050919050565b600082825260208201905092915050565b600061158282611696565b915061158d83611696565b9250827fffffffffffffffffffffffffffffffffffffffffffffffffffffffffffffffff038211156115c2576115c161171c565b5b828201905092915050565b60006115d882611696565b91506115e383611696565b9250826115f3576115f261174b565b5b828204905092915050565b600061160982611696565b915061161483611696565b9250817fffffffffffffffffffffffffffffffffffffffffffffffffffffffffffffffff048311821515161561164d5761164c61171c565b5b828202905092915050565b600061166382611676565b9050919050565b60008115159050919050565b600073ffffffffffffffffffffffffffffffffffffffff82169050919050565b6000819050919050565b60005b838110156116be5780820151818401526020810190506116a3565b838111156116cd576000848401525b50505050565b60006116de82611696565b91507fffffffffffffffffffffffffffffffffffffffffffffffffffffffffffffffff8214156117115761171061171c565b5b600182019050919050565b7f4e487b7100000000000000000000000000000000000000000000000000000000600052601160045260246000fd5b7f4e487b7100000000000000000000000000000000000000000000000000000000600052601260045260246000fd5b7f4e487b7100000000000000000000000000000000000000000000000000000000600052604160045260246000fd5b6117b281611658565b81146117bd57600080fd5b50565b6117c98161166a565b81146117d457600080fd5b50565b6117e081611696565b81146117eb57600080fd5b5056fea2646970667358221220fc8e199807713bd2bd84edbd5054beec7615533c21e573525ca9a91919edfaac64736f6c63430008000033",
  "immutableReferences": {},
  "source": "// SPDX-License-Identifier: MIT\r\npragma solidity ^0.8.0;\r\n\r\nimport \"./UserManagement.sol\";\r\nimport \"./CreditScoring.sol\";\r\nimport \"./FundManagement.sol\";\r\n\r\ncontract LoanContract {\r\n    struct Loan {\r\n        uint id;\r\n        address borrower;\r\n        address lender;\r\n        uint amount;\r\n        uint interest;\r\n        uint duration;\r\n        bool isFunded;\r\n        bool isRepaid;\r\n    }\r\n\r\n    uint public loanCount;\r\n    mapping(uint => Loan) public loans;\r\n\r\n    UserManagement userManagement;\r\n    CreditScoring creditScoring;\r\n    FundManagement fundManagement;\r\n\r\n    constructor(address _userManagement, address _creditScoring, address _fundManagement) {\r\n        userManagement = UserManagement(_userManagement);\r\n        creditScoring = CreditScoring(_creditScoring);\r\n        fundManagement = FundManagement(_fundManagement);\r\n    }\r\n\r\n    function requestLoan(uint _amount, uint _interest, uint _duration) public {\r\n        require(userManagement.getUser(msg.sender).isVerified, \"User not verified\");\r\n        loanCount++;\r\n        loans[loanCount] = Loan(loanCount, msg.sender, address(0), _amount, _interest, _duration, false, false);\r\n    }\r\n\r\n    function fundLoan(uint _loanId) public payable {\r\n        Loan storage loan = loans[_loanId];\r\n        require(!loan.isFunded, \"Loan already funded\");\r\n        require(msg.value == loan.amount, \"Incorrect amount sent\");\r\n\r\n        loan.lender = msg.sender;\r\n        loan.isFunded = true;\r\n\r\n        // Transfer funds to the borrower\r\n        fundManagement.depositFunds{value: msg.value}();\r\n        fundManagement.withdrawFunds(loan.amount);\r\n        payable(loan.borrower).transfer(loan.amount);\r\n    }\r\n\r\n    function repayLoan(uint _loanId) public payable {\r\n        Loan storage loan = loans[_loanId];\r\n        require(loan.isFunded, \"Loan not funded\");\r\n        require(!loan.isRepaid, \"Loan already repaid\");\r\n        require(msg.sender == loan.borrower, \"Only borrower can repay the loan\");\r\n        require(msg.value == loan.amount + (loan.amount * loan.interest / 100), \"Incorrect repayment amount\");\r\n\r\n        loan.isRepaid = true;\r\n\r\n        // Transfer repayment to the lender\r\n        fundManagement.depositFunds{value: msg.value}();\r\n        fundManagement.withdrawFunds(msg.value);\r\n        payable(loan.lender).transfer(msg.value);\r\n\r\n        // Update credit score\r\n        creditScoring.updateCreditScore(loan.borrower, creditScoring.getCreditScore(loan.borrower) + 1);\r\n    }\r\n\r\n    function getLoan(uint _loanId) public view returns (Loan memory) {\r\n        return loans[_loanId];\r\n    }\r\n}\r\n",
  "sourcePath": "C:\\Users\\jairo\\OneDrive\\Documents\\Q2 2024\\Vanguardia\\P2P-Lending\\microfinance-platform\\contracts\\LoanContract.sol",
  "compiler": {
    "name": "solc",
    "version": "0.8.0+commit.c7dfd78e.Emscripten.clang"
  },
  "schemaVersion": "3.4.16",
  "updatedAt": "2024-06-06T02:45:47.409Z",
  "networkType": "ethereum",
  "devdoc": {
    "kind": "dev",
    "methods": {},
    "version": 1
  },
  "userdoc": {
    "kind": "user",
    "methods": {},
    "version": 1
  }
}