{
  "contractName": "UserManagement",
  "abi": [
    {
      "inputs": [],
      "stateMutability": "nonpayable",
      "type": "constructor"
    },
    {
      "inputs": [],
      "name": "owner",
      "outputs": [
        {
          "internalType": "address",
          "name": "",
          "type": "address"
        }
      ],
      "stateMutability": "view",
      "type": "function"
    },
    {
      "inputs": [
        {
          "internalType": "address",
          "name": "",
          "type": "address"
        }
      ],
      "name": "users",
      "outputs": [
        {
          "internalType": "address",
          "name": "userAddress",
          "type": "address"
        },
        {
          "internalType": "string",
          "name": "firstName",
          "type": "string"
        },
        {
          "internalType": "string",
          "name": "lastName",
          "type": "string"
        },
        {
          "internalType": "string",
          "name": "email",
          "type": "string"
        },
        {
          "internalType": "string",
          "name": "password",
          "type": "string"
        },
        {
          "internalType": "uint256",
          "name": "creditScore",
          "type": "uint256"
        },
        {
          "internalType": "bool",
          "name": "isVerified",
          "type": "bool"
        }
      ],
      "stateMutability": "view",
      "type": "function"
    },
    {
      "inputs": [
        {
          "internalType": "string",
          "name": "_firstName",
          "type": "string"
        },
        {
          "internalType": "string",
          "name": "_lastName",
          "type": "string"
        },
        {
          "internalType": "string",
          "name": "_email",
          "type": "string"
        },
        {
          "internalType": "string",
          "name": "_password",
          "type": "string"
        },
        {
          "internalType": "uint256",
          "name": "_creditScore",
          "type": "uint256"
        }
      ],
      "name": "registerUser",
      "outputs": [],
      "stateMutability": "nonpayable",
      "type": "function"
    },
    {
      "inputs": [
        {
          "internalType": "address",
          "name": "_user",
          "type": "address"
        }
      ],
      "name": "verifyUser",
      "outputs": [],
      "stateMutability": "nonpayable",
      "type": "function"
    },
    {
      "inputs": [
        {
          "internalType": "address",
          "name": "_user",
          "type": "address"
        }
      ],
      "name": "getUser",
      "outputs": [
        {
          "components": [
            {
              "internalType": "address",
              "name": "userAddress",
              "type": "address"
            },
            {
              "internalType": "string",
              "name": "firstName",
              "type": "string"
            },
            {
              "internalType": "string",
              "name": "lastName",
              "type": "string"
            },
            {
              "internalType": "string",
              "name": "email",
              "type": "string"
            },
            {
              "internalType": "string",
              "name": "password",
              "type": "string"
            },
            {
              "internalType": "uint256",
              "name": "creditScore",
              "type": "uint256"
            },
            {
              "internalType": "bool",
              "name": "isVerified",
              "type": "bool"
            }
          ],
          "internalType": "struct UserManagement.User",
          "name": "",
          "type": "tuple"
        }
      ],
      "stateMutability": "view",
      "type": "function"
    }
  ],
  "bytecode": "0x608060405234801561001057600080fd5b5033600160006101000a81548173ffffffffffffffffffffffffffffffffffffffff021916908373ffffffffffffffffffffffffffffffffffffffff16021790555061118a806100616000396000f3fe608060405234801561001057600080fd5b50600436106100575760003560e01c80630c89338a1461005c5780634d813120146100785780636f77926b146100945780638da5cb5b146100c4578063a87430ba146100e2575b600080fd5b61007660048036038101906100719190610b91565b610118565b005b610092600480360381019061008d9190610b68565b610321565b005b6100ae60048036038101906100a99190610b68565b61040e565b6040516100bb9190610f4b565b60405180910390f35b6100cc610729565b6040516100d99190610e65565b60405180910390f35b6100fc60048036038101906100f79190610b68565b61074f565b60405161010f9796959493929190610e80565b60405180910390f35b60008060003373ffffffffffffffffffffffffffffffffffffffff1673ffffffffffffffffffffffffffffffffffffffff168152602001908152602001600020600301805461016690611085565b9050146101a8576040517f08c379a000000000000000000000000000000000000000000000000000000000815260040161019f90610f2b565b60405180910390fd5b6040518060e001604052803373ffffffffffffffffffffffffffffffffffffffff168152602001868152602001858152602001848152602001838152602001828152602001600015158152506000803373ffffffffffffffffffffffffffffffffffffffff1673ffffffffffffffffffffffffffffffffffffffff16815260200190815260200160002060008201518160000160006101000a81548173ffffffffffffffffffffffffffffffffffffffff021916908373ffffffffffffffffffffffffffffffffffffffff16021790555060208201518160010190805190602001906102959291906109de565b5060408201518160020190805190602001906102b29291906109de565b5060608201518160030190805190602001906102cf9291906109de565b5060808201518160040190805190602001906102ec9291906109de565b5060a0820151816005015560c08201518160060160006101000a81548160ff0219169083151502179055509050505050505050565b600160009054906101000a900473ffffffffffffffffffffffffffffffffffffffff1673ffffffffffffffffffffffffffffffffffffffff163373ffffffffffffffffffffffffffffffffffffffff16146103b1576040517f08c379a00000000000000000000000000000000000000000000000000000000081526004016103a890610f0b565b60405180910390fd5b60016000808373ffffffffffffffffffffffffffffffffffffffff1673ffffffffffffffffffffffffffffffffffffffff16815260200190815260200160002060060160006101000a81548160ff02191690831515021790555050565b610416610a64565b6000808373ffffffffffffffffffffffffffffffffffffffff1673ffffffffffffffffffffffffffffffffffffffff1681526020019081526020016000206040518060e00160405290816000820160009054906101000a900473ffffffffffffffffffffffffffffffffffffffff1673ffffffffffffffffffffffffffffffffffffffff1673ffffffffffffffffffffffffffffffffffffffff1681526020016001820180546104c590611085565b80601f01602080910402602001604051908101604052809291908181526020018280546104f190611085565b801561053e5780601f106105135761010080835404028352916020019161053e565b820191906000526020600020905b81548152906001019060200180831161052157829003601f168201915b5050505050815260200160028201805461055790611085565b80601f016020809104026020016040519081016040528092919081815260200182805461058390611085565b80156105d05780601f106105a5576101008083540402835291602001916105d0565b820191906000526020600020905b8154815290600101906020018083116105b357829003601f168201915b505050505081526020016003820180546105e990611085565b80601f016020809104026020016040519081016040528092919081815260200182805461061590611085565b80156106625780601f1061063757610100808354040283529160200191610662565b820191906000526020600020905b81548152906001019060200180831161064557829003601f168201915b5050505050815260200160048201805461067b90611085565b80601f01602080910402602001604051908101604052809291908181526020018280546106a790611085565b80156106f45780601f106106c9576101008083540402835291602001916106f4565b820191906000526020600020905b8154815290600101906020018083116106d757829003601f168201915b50505050508152602001600582015481526020016006820160009054906101000a900460ff1615151515815250509050919050565b600160009054906101000a900473ffffffffffffffffffffffffffffffffffffffff1681565b60006020528060005260406000206000915090508060000160009054906101000a900473ffffffffffffffffffffffffffffffffffffffff169080600101805461079890611085565b80601f01602080910402602001604051908101604052809291908181526020018280546107c490611085565b80156108115780601f106107e657610100808354040283529160200191610811565b820191906000526020600020905b8154815290600101906020018083116107f457829003601f168201915b50505050509080600201805461082690611085565b80601f016020809104026020016040519081016040528092919081815260200182805461085290611085565b801561089f5780601f106108745761010080835404028352916020019161089f565b820191906000526020600020905b81548152906001019060200180831161088257829003601f168201915b5050505050908060030180546108b490611085565b80601f01602080910402602001604051908101604052809291908181526020018280546108e090611085565b801561092d5780601f106109025761010080835404028352916020019161092d565b820191906000526020600020905b81548152906001019060200180831161091057829003601f168201915b50505050509080600401805461094290611085565b80601f016020809104026020016040519081016040528092919081815260200182805461096e90611085565b80156109bb5780601f10610990576101008083540402835291602001916109bb565b820191906000526020600020905b81548152906001019060200180831161099e57829003601f168201915b5050505050908060050154908060060160009054906101000a900460ff16905087565b8280546109ea90611085565b90600052602060002090601f016020900481019282610a0c5760008555610a53565b82601f10610a2557805160ff1916838001178555610a53565b82800160010185558215610a53579182015b82811115610a52578251825591602001919060010190610a37565b5b509050610a609190610ab9565b5090565b6040518060e00160405280600073ffffffffffffffffffffffffffffffffffffffff16815260200160608152602001606081526020016060815260200160608152602001600081526020016000151581525090565b5b80821115610ad2576000816000905550600101610aba565b5090565b6000610ae9610ae484610f9e565b610f6d565b905082815260208101848484011115610b0157600080fd5b610b0c848285611043565b509392505050565b600081359050610b2381611126565b92915050565b600082601f830112610b3a57600080fd5b8135610b4a848260208601610ad6565b91505092915050565b600081359050610b628161113d565b92915050565b600060208284031215610b7a57600080fd5b6000610b8884828501610b14565b91505092915050565b600080600080600060a08688031215610ba957600080fd5b600086013567ffffffffffffffff811115610bc357600080fd5b610bcf88828901610b29565b955050602086013567ffffffffffffffff811115610bec57600080fd5b610bf888828901610b29565b945050604086013567ffffffffffffffff811115610c1557600080fd5b610c2188828901610b29565b935050606086013567ffffffffffffffff811115610c3e57600080fd5b610c4a88828901610b29565b9250506080610c5b88828901610b53565b9150509295509295909350565b610c7181610ffb565b82525050565b610c8081610ffb565b82525050565b610c8f8161100d565b82525050565b610c9e8161100d565b82525050565b6000610caf82610fce565b610cb98185610fd9565b9350610cc9818560208601611052565b610cd281611115565b840191505092915050565b6000610ce882610fce565b610cf28185610fea565b9350610d02818560208601611052565b610d0b81611115565b840191505092915050565b6000610d23601f83610fea565b91507f4f6e6c7920746865206f776e65722063616e20766572696679207573657273006000830152602082019050919050565b6000610d63601783610fea565b91507f5573657220616c726561647920726567697374657265640000000000000000006000830152602082019050919050565b600060e083016000830151610dae6000860182610c68565b5060208301518482036020860152610dc68282610ca4565b91505060408301518482036040860152610de08282610ca4565b91505060608301518482036060860152610dfa8282610ca4565b91505060808301518482036080860152610e148282610ca4565b91505060a0830151610e2960a0860182610e47565b5060c0830151610e3c60c0860182610c86565b508091505092915050565b610e5081611039565b82525050565b610e5f81611039565b82525050565b6000602082019050610e7a6000830184610c77565b92915050565b600060e082019050610e95600083018a610c77565b8181036020830152610ea78189610cdd565b90508181036040830152610ebb8188610cdd565b90508181036060830152610ecf8187610cdd565b90508181036080830152610ee38186610cdd565b9050610ef260a0830185610e56565b610eff60c0830184610c95565b98975050505050505050565b60006020820190508181036000830152610f2481610d16565b9050919050565b60006020820190508181036000830152610f4481610d56565b9050919050565b60006020820190508181036000830152610f658184610d96565b905092915050565b6000604051905081810181811067ffffffffffffffff82111715610f9457610f936110e6565b5b8060405250919050565b600067ffffffffffffffff821115610fb957610fb86110e6565b5b601f19601f8301169050602081019050919050565b600081519050919050565b600082825260208201905092915050565b600082825260208201905092915050565b600061100682611019565b9050919050565b60008115159050919050565b600073ffffffffffffffffffffffffffffffffffffffff82169050919050565b6000819050919050565b82818337600083830152505050565b60005b83811015611070578082015181840152602081019050611055565b8381111561107f576000848401525b50505050565b6000600282049050600182168061109d57607f821691505b602082108114156110b1576110b06110b7565b5b50919050565b7f4e487b7100000000000000000000000000000000000000000000000000000000600052602260045260246000fd5b7f4e487b7100000000000000000000000000000000000000000000000000000000600052604160045260246000fd5b6000601f19601f8301169050919050565b61112f81610ffb565b811461113a57600080fd5b50565b61114681611039565b811461115157600080fd5b5056fea264697066735822122003c4a17d17c53eb80fb20370060e6b01136c9395e893eca30581179e6cc0e93964736f6c63430008000033",
  "immutableReferences": {},
  "source": "// SPDX-License-Identifier: MIT\r\npragma solidity ^0.8.0;\r\n\r\ncontract UserManagement {\r\n    struct User {\r\n        address userAddress;\r\n        string firstName;\r\n        string lastName;\r\n        string email;\r\n        string password;\r\n        uint creditScore;\r\n        bool isVerified;\r\n    }\r\n\r\n    mapping(address => User) public users;\r\n    address public owner;\r\n\r\n    constructor() {\r\n        owner = msg.sender;\r\n    }\r\n\r\n    function registerUser(string memory _firstName, string memory _lastName, string memory _email, string memory _password, uint _creditScore) public {\r\n        require(bytes(users[msg.sender].email).length == 0, \"User already registered\");\r\n\r\n        users[msg.sender] = User({\r\n            userAddress: msg.sender,\r\n            firstName: _firstName,\r\n            lastName: _lastName,\r\n            email: _email,\r\n            password: _password,\r\n            creditScore: _creditScore,\r\n            isVerified: false  \r\n        });\r\n    }\r\n\r\n    function verifyUser(address _user) public {\r\n        require(msg.sender == owner, \"Only the owner can verify users\");\r\n        users[_user].isVerified = true;\r\n    }\r\n\r\n    function getUser(address _user) public view returns (User memory) {\r\n        return users[_user];\r\n    }\r\n}\r\n",
  "sourcePath": "C:\\Users\\jairo\\OneDrive\\Documents\\Q2 2024\\Vanguardia\\P2P-Lending\\microfinance-platform\\contracts\\UserManagement.sol",
  "compiler": {
    "name": "solc",
    "version": "0.8.0+commit.c7dfd78e.Emscripten.clang"
  },
  "schemaVersion": "3.4.16",
  "updatedAt": "2024-06-09T01:54:55.137Z",
  "devdoc": {
    "kind": "dev",
    "methods": {},
    "version": 1
  },
  "userdoc": {
    "kind": "user",
    "methods": {},
    "version": 1
  }
}